:020000040800F2
:1000000000000220752F0008392D0008412D00083E
:10001000492D0008512D0008592D0008000000004E
:10002000000000000000000000000000612D00083A
:100030006F2D0008000000007D2D00088B2D0008AA
:10004000C52F0008C52F0008C52F0008C52F0008C0
:10005000C52F0008C52F0008C52F0008C52F0008B0
:10006000C52F0008C52F0008C52F0008C52F0008A0
:10007000C52F0008C52F0008C52F0008C52F000890
:10008000C52F0008C52F0008C52F0008C52F000880
:10009000C52F0008C52F0008C52F0008C52F000870
:1000A000992D0008C52F0008C52F0008C52F00088E
:1000B000C52F0008C52F0008AD2D0008C52F00086A
:1000C000C52F0008C52F0008C52F0008C52F000840
:1000D000C52F0008C52F0008C12D0008C52F000836
:1000E000C52F0008C52F0008C52F0008C52F000820
:1000F000C52F0008C52F0008C52F0008C52F000810
:10010000C52F0008C52F0008D52D0008C52F0008F1
:10011000C52F0008C52F0008C52F0008C52F0008EF
:10012000C52F0008C52F0008C52F0008C52F0008DF
:10013000C52F0008C52F0008C52F0008C52F0008CF
:10014000C52F0008C52F0008C52F0008E92D00089D
:10015000C52F0008C52F0008C52F0008C52F0008AF
:10016000C52F0008C52F0008C52F0008C52F00089F
:10017000C52F0008C52F0008C52F0008000000008B
:08018000C52F0008C52F00087F
:1001900010B5054C237833B9044B13B10448AFF3C1
:1001A00000800123237010BD7803002000000000B0
:1001B0009416010808B5034B1BB103490348AFF37C
:1001C000008008BD000000007C0300209416010898
:1001D00010F8012B11F8013B012A28BF9A42F7D0F1
:1001E000D01A70470000000000000000000000006E
:1001F00001F0FF01102A2BDB10F0070F08D010F8D8
:10020000013B013A8B422DD010F0070F42B3F6D1DB
:10021000F0B441EA012141EA014122F007047FF0F4
:1002200000070023F0E80256083C85EA010586EA4B
:10023000010685FA47F5A3FA87F586FA47F6A5FA87
:1002400087F68EB9EED1F0BC01F0FF0102F0070293
:1002500032B110F8013B013A83EA010313B1F8D13E
:100260000020704701387047002D06BF354603381F
:10027000073815F0010F07D1013015F4807F02BF58
:10028000013015F4C03F0130F0BC0138704700BFA9
:10029000034613F8012B002AFBD1181A01387047C6
:1002A00081F0004102E000BF83F0004330B54FEA27
:1002B00041044FEA430594EA050F08BF90EA020F94
:1002C0001FBF54EA000C55EA020C7FEA645C7FEA27
:1002D000655C00F0E2804FEA5454D4EB5555B8BF4A
:1002E0006D420CDD2C4480EA020281EA030382EABB
:1002F000000083EA010180EA020281EA0303362D4D
:1003000088BF30BD11F0004F4FEA01314FF4801C1F
:100310004CEA113102D0404261EB410113F0004F31
:100320004FEA03334CEA133302D0524263EB4303E8
:1003300094EA050F00F0A780A4F10104D5F1200E86
:100340000DDB02FA0EFC22FA05F2801841F10001E1
:1003500003FA0EF2801843FA05F359410EE0A5F1B5
:1003600020050EF1200E012A03FA0EFC28BF4CF0E6
:10037000020C43FA05F3C01851EBE37101F000459C
:1003800007D54FF0000EDCF1000C7EEB00006EEBA9
:100390000101B1F5801F1BD3B1F5001F0CD3490833
:1003A0005FEA30004FEA3C0C04F101044FEA44528A
:1003B00012F5800F80F09A80BCF1004F08BF5FEA11
:1003C000500C50F1000041EB045141EA050130BDF1
:1003D0005FEA4C0C404141EB0101013C28BFB1F503
:1003E000801FE9D291F0000F04BF01460020B1FA4E
:1003F00081F308BF2033A3F10B03B3F120020CDA21
:100400000C3208DD02F1140CC2F10C0201FA0CF0FE
:1004100021FA02F10CE002F11402D8BFC2F1200C63
:1004200001FA02F120FA0CFCDCBF41EA0C01904019
:10043000E41AA2BF01EB0451294330BD6FEA040462
:100440001F3C1CDA0C340EDC04F11404C4F120024D
:1004500020FA04F001FA02F340EA030021FA04F35F
:1004600045EA030130BDC4F10C04C4F1200220FAB6
:1004700002F001FA04F340EA0300294630BD21FAF4
:1004800004F0294630BD94F0000F83F4801306BFBA
:1004900081F480110134013D4EE77FEA645C18BFAE
:1004A0007FEA655C29D094EA050F08BF90EA020F45
:1004B00005D054EA000C04BF1946104630BD91EA3D
:1004C000030F1EBF0021002030BD5FEA545C05D140
:1004D0004000494128BF41F0004130BD14F580047F
:1004E0003CBF01F5801130BD01F0004545F0FE41F3
:1004F00041F470014FF0000030BD7FEA645C1ABF28
:10050000194610467FEA655C1CBF0B46024650EA5E
:10051000013406BF52EA033591EA030F41F400218A
:1005200030BD00BF90F0000F04BF0021704730B510
:100530004FF4806404F132044FF000054FF00001E5
:1005400050E700BF90F0000F04BF0021704730B5A6
:100550004FF4806404F1320410F0004548BF40427B
:100560004FF000013EE700BF42004FEAE2014FEAD0
:1005700031014FEA02701FBF12F07F4393F07F4FAB
:1005800081F06051704732F07F4208BF704793F0AE
:100590007F4F04BF41F40021704730B54FF46074C1
:1005A00001F0004521F000411CE700BF50EA0102C4
:1005B00008BF704730B54FF000050AE050EA01026D
:1005C00008BF704730B511F0004502D5404261EBDD
:1005D00041014FF4806404F132045FEA915C3FF41E
:1005E000D8AE4FF003025FEADC0C18BF03325FEABB
:1005F000DC0C18BF033202EBDC02C2F1200300FA6C
:1006000003FC20FA02F001FA03FE40EA0E0021FA90
:1006100002F11444BDE600BF70B54FF0FF0C4CF47E
:10062000E06C1CEA11541DBF1CEA135594EA0C0F30
:1006300095EA0C0F00F0DEF82C4481EA030621EA6B
:100640004C5123EA4C5350EA013518BF52EA0335A6
:1006500041F4801143F4801338D0A0FB02CE4FF058
:100660000005E1FB02E506F00042E0FB03E54FF088
:100670000006E1FB03569CF0000F18BF4EF0010E80
:10068000A4F1FF04B6F5007F64F5407404D25FEA7C
:100690004E0E6D4146EB060642EAC62141EA55512F
:1006A0004FEAC52040EA5E504FEACE2EB4F1FD0C71
:1006B00088BFBCF5E06F1ED8BEF1004F08BF5FEAEF
:1006C000500E50F1000041EB045170BD06F00046A1
:1006D00046EA010140EA020081EA0301B4EB5C044E
:1006E000C2BFD4EB0C0541EA045170BD41F4801146
:1006F0004FF0000E013C00F3AB8014F1360FDEBF6B
:10070000002001F0004170BDC4F10004203C35DA46
:100710000C341BDC04F11404C4F1200500FA05F3C9
:1007200020FA04F001FA05F240EA020001F000426A
:1007300021F0004110EBD37021FA04F642EB0601E0
:100740005EEA430E08BF20EAD37070BDC4F10C040A
:10075000C4F1200500FA04F320FA05F001FA04F2CE
:1007600040EA020001F0004110EBD37041F10001BA
:100770005EEA430E08BF20EAD37070BDC4F12005C5
:1007800000FA05F24EEA020E20FA04F301FA05F22D
:1007900043EA020321FA04F001F0004121FA04F2D5
:1007A00020EA020000EBD3705EEA430E08BF20EAA5
:1007B000D37070BD94F0000F0FD101F000464000DF
:1007C00041EB010111F4801F08BF013CF7D041EA61
:1007D000060195F0000F18BF704703F00046520065
:1007E00043EB030313F4801F08BF013DF7D043EA36
:1007F0000603704794EA0C0F0CEA135518BF95EAEC
:100800000C0F0CD050EA410618BF52EA4306D1D172
:1008100081EA030101F000414FF0000070BD50EA91
:10082000410606BF1046194652EA430619D094EA1B
:100830000C0F02D150EA013613D195EA0C0F05D105
:1008400052EA03361CBF104619460AD181EA030159
:1008500001F0004141F0FE4141F470014FF0000011
:1008600070BD41F0FE4141F4780170BD70B54FF0AC
:10087000FF0C4CF4E06C1CEA11541DBF1CEA13552C
:1008800094EA0C0F95EA0C0F00F0A7F8A4EB05040E
:1008900081EA030E52EA03354FEA013100F0888005
:1008A0004FEA03334FF0805545EA131343EA1263CE
:1008B0004FEA022245EA111545EA10654FEA002683
:1008C0000EF000419D4208BF964244F1FD0404F53C
:1008D000407402D25B084FEA3202B61A65EB030598
:1008E0005B084FEA32024FF480104FF4002CB6EB55
:1008F000020E75EB030E22BFB61A754640EA0C00D5
:100900005B084FEA3202B6EB020E75EB030E22BF14
:10091000B61A754640EA5C005B084FEA3202B6EB55
:10092000020E75EB030E22BFB61A754640EA9C0014
:100930005B084FEA3202B6EB020E75EB030E22BFE4
:10094000B61A754640EADC0055EA060E18D04FEAA2
:10095000051545EA16754FEA06164FEAC30343EA42
:1009600052734FEAC2025FEA1C1CC0D111F4801F0F
:100970000BD141EA00014FF000004FF0004CB6E708
:1009800011F4801F04BF01430020B4F1FD0C88BFA7
:10099000BCF5E06F3FF6AFAEB5EB030C04BFB6EBB2
:1009A000020C5FEA500C50F1000041EB045170BDA5
:1009B0000EF0004E4EEA113114EB5C04C2BFD4EBD2
:1009C0000C0541EA045170BD41F480114FF0000E56
:1009D000013C90E645EA060E8DE60CEA135594EAD2
:1009E0000C0F08BF95EA0C0F3FF43BAF94EA0C0FD5
:1009F0000AD150EA01347FF434AF95EA0C0F7FF44A
:100A000025AF104619462CE795EA0C0F06D152EA9D
:100A100003353FF4FDAE1046194622E750EA410681
:100A200018BF52EA43067FF4C5AE50EA41047FF492
:100A30000DAF52EA43057FF4EBAE12E74FF0FF3CF7
:100A400006E000BF4FF0010C02E000BF4FF0010CC8
:100A50004DF804CD4FEA410C7FEA6C5C4FEA430C41
:100A600018BF7FEA6C5C1BD001B050EA410C0CBF90
:100A700052EA430C91EA030F02BF90EA020F0020F2
:100A8000704710F1000F91EA030F58BF994208BF59
:100A900090422CBFD8176FEAE37040F00100704716
:100AA0004FEA410C7FEA6C5C02D150EA013C07D16D
:100AB0004FEA430C7FEA6C5CD6D152EA033CD3D0B8
:100AC0005DF8040B704700BF8446104662468C46B2
:100AD0001946634600E000BF01B5FFF7B7FF0028E5
:100AE00048BF10F1000F01BD4DF808EDFFF7F4FF0E
:100AF0000CBF012000205DF808FB00BF4DF808ED99
:100B0000FFF7EAFF34BF012000205DF808FB00BFBB
:100B10004DF808EDFFF7E0FF94BF012000205DF8DD
:100B200008FB00BF4DF808EDFFF7CEFF94BF012092
:100B300000205DF808FB00BF4DF808EDFFF7C4FF8B
:100B400034BF012000205DF808FB00BF4FEA410CD4
:100B50007FEA6C5C02D150EA013C0AD14FEA430CB7
:100B60007FEA6C5C02D152EA033C02D14FF00000F4
:100B700070474FF0010070474FEA410212F5001232
:100B800015D211D56FF47873B3EB625212D94FEAD4
:100B9000C12343F0004343EA505311F0004F23FABE
:100BA00002F018BF404270474FF00000704750EA13
:100BB000013005D111F0004008BF6FF000407047D0
:100BC0004FF00000704700BF4A0011D212F500122A
:100BD00011D20DD56FF47873B3EB62520ED44FEA95
:100BE000C12343F0004343EA505323FA02F0704715
:100BF0004FF00000704750EA013002D14FF0FF3053
:100C000070474FF0000070474FEA4102B2F1E043F5
:100C100024BFB3F5001CDCF1FE5C0DD901F0004CE3
:100C20004FEAC0024CEA5070B2F1004F40EB830033
:100C300008BF20F00100704711F0804F21D113F15F
:100C40003872BCBF01F00040704741F480114FEA98
:100C50005252C2F11802C2F1200C10FA0CF320FA21
:100C600002F018BF40F001004FEAC1234FEAD3233E
:100C700003FA0CFC40EA0C0023FA02F34FEA4303A8
:100C8000CCE77FEA625307D150EA01331EBF4FF031
:100C9000FE4040F44000704701F0004040F0FE404C
:100CA00040F40000704700BF53B94AB9002908BF9B
:100CB00000281CBF4FF0FF314FF0FF3000F0BEB9ED
:100CC000ADF1080C6DE904CE00F03CF8DDF804E06D
:100CD000DDE9022304B0704738B500220023044642
:100CE0000D46FFF70BFF28B920462946BDE83840DE
:100CF00000F00AB8204605F1004100F005F8404236
:100D000061EB410138BD00BFD0B50C4B0022064657
:100D10000F46FFF781FCFFF757FF0446FFF702FC81
:100D2000074B0022FFF778FC02460B463046394657
:100D3000FFF7BAFAFFF748FF2146D0BD0000F03DAB
:100D40000000F0412DE9F047089D8E460446884694
:100D5000002B4AD18A42174662D9B2FA82F64EB1C6
:100D6000C6F1200301FA06F820FA03F3B74043EA7C
:100D70000808B4404FEA174E1FFA87FCB8FBFEF193
:100D8000230C0EFB118843EA084301FB0CF29A4244
:100D900009D9FB1801F1FF3080F0EA809A4240F255
:100DA000E78002393B449A1AA3B2B2FBFEF00EFB75
:100DB000102243EA024300FB0CFC9C4509D9FB18B6
:100DC00000F1FF3280F0D6809C4540F2D3803B4456
:100DD000023840EA0140A3EB0C0300211DB1F340AF
:100DE0000022C5E90032BDE8F0878B4205D90DB17C
:100DF000C5E9000100210846F5E7B3FA83F10029AF
:100E000046D1734502D3824200F20581841A6EEB0B
:100E1000030201209046002DE5D0C5E90048E2E735
:100E2000002A00F09080B2FA82F6002E40F0A480F2
:100E30008A1A030C4FEA174E80B2BCB20121B2FBF2
:100E4000FEFC0EFB1C2243EA024304FB0CF29A4216
:100E500007D9FB180CF1FF3802D29A4200F2E08069
:100E6000C4469B1AB3FBFEF20EFB123340EA034367
:100E700002FB04F49C4207D9FB1802F1FF3002D2B6
:100E80009C4200F2CA8002461B1B42EA0C40A5E7C6
:100E9000C1F120068B4022FA06F71F430EFA01F437
:100EA00020FA06F32EFA06FE4FEA1749234300FA0A
:100EB00001F81FFA87FCBEFBF9F01C0C09FB10EED1
:100EC00044EA0E4400FB0CFEA64502FA01F209D9E1
:100ED0003C1900F1FF3A80F09C80A64540F29980D1
:100EE00002383C44A4EB0E041FFA83FEB4FBF9F372
:100EF00009FB13444EEA044403FB0CFCA44508D947
:100F00003C1903F1FF3E80F08280A4457FD9023B6B
:100F10003C4443EA0040A4EB0C04A0FB02EC644513
:100F20007346E14662D35FD05DB1B8EB030264EB78
:100F3000090404FA06F622FA01F31E43CC40C5E97F
:100F4000006400214FE7B1FBF2FC010C41EA0E41C5
:100F500080B240EA01423B4638463C46B846BE466F
:100F60002026B1FBF7F1A2EB080241EA0C4166E74B
:100F7000014618E710462CE7C6F120022EFA02F3CC
:100F8000B740B14020FA02F24FEA174E0A43B3FBD2
:100F9000FEF8BCB20EFB1833110C41EA034108FB0A
:100FA00004F9B04089454FEA104380B23ED9791820
:100FB00008F1FF3C01D289451FD8A1EB0901B1FB23
:100FC000FEF909FB04F80EFB191192B242EA014244
:100FD000424529D2BA1809F1FF31C4D24245C2D2E2
:100FE000A9F102013A44BEE7F0459DD2BEEB0203EF
:100FF0006CEB070C0138E14696E7A7EB0909494479
:10100000A8F1020CB1FBFEF909FB04F8DBE773461B
:101010007FE7504666E70846FDE63B44023A33E781
:10102000ACF1020C3B441CE749469CE7A1EB0901EB
:10103000C446B1FBFEF909FB04F8C4E7704700BFE2
:1010400080B584B000AFF860B9607A6000BF7B689B
:101050009BB21946B8680BF03BF90346012BF6D05A
:101060007B6818461037BD4680BD000080B582B051
:1010700000AF786039603A6879680B480DF06BFB17
:10108000094A3B68134400221A703B68DAB2074BE6
:101090001A70032106480BF01BF9064B01221A7047
:1010A00000BF0837BD4680BD540600201400002054
:1010B000180000208606002080B483B000AF78605E
:1010C0007B681B68094A934202D1094B01221A70BE
:1010D0007B681B68074A934202D1074B01221A70B2
:1010E00000BF0C37BD465DF8047B70470008004028
:1010F00050060020000C00405106002080B582B050
:1011000000AF78607B681B68134A934220D1134B71
:101110001B780D2B0BD0124B1B785A1CD1B2104AE6
:1011200011701A460D4B19780E4B99540BE00C4B6D
:101130001B781A460B4B00219954094B00221A7058
:10114000094B01221A7001220449084806F07EFD6D
:1011500000BF0837BD4680BD004400409C0600200B
:101160009D060020880600209E06002050050020D5
:101170002DE9B0432DED028B88B002AF01F024FFC2
:1011800000F09AF900F060FC0AF0D6FF00F0FEF9DA
:1011900000F02AFA00F0C8FA00F03CFB00F0DCFB9B
:1011A00000F08CFB00F026FC00219D4805F068FC57
:1011B00000219C4805F064FC3C219B4805F0CEFDD5
:1011C0009A4805F093FB9A4805F090FB99499A4894
:1011D00000F000FE994BD3ED007A994B93ED007A25
:1011E000984BD3ED006A05230093B0EE661AF0EE3B
:1011F000470AB0EE670A944B944A8E49944801F02E
:1012000047FA6FF06303009364236FF031023221D9
:101210008F4801F0AFFA01F03DFF03468D4A13609D
:1012200001228D498D4806F011FD8D4B1B78002B56
:1012300000F0BE808B498C480DF0BAF978618B497B
:101240007869FEF7C5FF0346002B2AD185490020A7
:101250000DF0AEF9F860834900200DF0A9F9B860EF
:10126000804900200DF0A4F97860F8680BF08FFC3D
:10127000B0EE408AB8680BF08AFCF0EE408A7868DD
:101280000BF085FCF0EE407AB0EE671AF0EE680ADB
:10129000B0EE480A6E4801F039FA75480DF06CF866
:1012A00083E074497869FEF793FF0346002B55D11C
:1012B000674BD3ED007AF0EEE77A17EE900AFFF76E
:1012C00053F902460B466C480CF0EEFF604B5B682E
:1012D0001846FFF749F950A3D3E90023FFF7C6FAF0
:1012E00002460B46144623F0004522462B4663482F
:1012F0000CF0DAFF564B9B681846FFF735F946A30A
:10130000D3E90023FFF788F902460B46904623F005
:10131000004942464B465A480CF0C6FF594B1B78D1
:10132000194659480CF0C0FF474BD3E900235748F2
:101330000CF0BAFF3F4BD3E9002355480CF0B4FF43
:10134000544B5B881BB2194653480CF0ADFF3F4B22
:10135000D3E9002351480CF0A7FF26E050497869F3
:10136000FEF736FF0346002B06D14E480DF004F879
:101370004D480DF001F818E04C497869FEF728FF58
:101380000346002B11D1374900200DF011F93861C7
:1013900038690BF0F9FBB0EE407AF0EE607A2A4B38
:1013A00083ED007B32480CF0E7FF2D4B00221A70D2
:1013B0003F4B1B78002B08D03D4B00221A701E4873
:1013C00000F0CEFE224801F0F4F91A4BD3E90023D5
:1013D0002F4938480CF0D8FF3648FEF759FF03462E
:1013E0009BB2194633480AF073FF184B93ED007B0C
:1013F000B0EE470AF0EE670A264800F0ABFC254B3A
:101400009B889BB2DBB2234A528812B292B2194631
:10141000022000F039FC08E77B14AE47E17A743F04
:10142000E803002030040020780400200805002094
:10143000C00400204006002098050020080000207D
:101440000C000020100000200000002048060020B2
:1014500008060020E80600209C0600205005002019
:1014600086060020B016010854060020B4160108B4
:10147000B8160108C0160108C4160108D0160108E4
:10148000DC160108D3060020E8160108FC16010846
:1014900014170108F8050020201701082C1701086F
:1014A0004017010844170108601701086C1701086C
:1014B00050060020A006002080B594B000AF07F1D0
:1014C00020033022002118460DF058F807F10C03D4
:1014D00000221A605A609A60DA601A610023BB60C9
:1014E000284B1B6C274A43F080531364254B1B6C1D
:1014F00003F08053BB60BB6800237B60224B1B68FA
:10150000214A43F4804313601F4B1B6803F480435C
:101510007B607B6801233B624FF480337B62022354
:10152000BB634FF48003FB6304233B6448237B6469
:101530000223BB640323FB6407F12003184604F075
:10154000EDFC0346002B01D000F000FB0F23FB60F5
:1015500002233B6100237B614FF48053BB614FF456
:101560008053FB6107F10C030221184604F04EFF83
:101570000346002B01D000F0E9FA00BF5037BD460A
:1015800080BD00BF003802400070004080B500AF51
:10159000124B134A1A60114B124A5A600F4B002229
:1015A0009A600E4B0022DA600C4B4FF480421A61B5
:1015B0000A4B00225A61094B00229A61074B002214
:1015C000DA61064B00221A62044802F001FA03466F
:1015D000002B01D000F0BAFA00BF80BD94030020B8
:1015E00000540040A086010080B596B000AF07F11E
:1015F000480300221A605A609A60DA6007F14003DB
:1016000000221A605A6007F1240300221A605A600F
:101610009A60DA601A615A619A613B1D20220021AA
:1016200018460CF0ABFF3E4B3E4A1A603C4B47223B
:101630005A603B4B00229A60394B40F2E732DA6045
:10164000374B00221A61364B00225A61344B00227C
:101650009A61334805F0FAF80346002B01D000F0F8
:1016600075FA4FF48053BB6407F1480319462C48C0
:1016700005F0B4FD0346002B01D000F067FA2848BE
:1016800005F0A4F90346002B01D000F05FFA002317
:101690003B6400237B6407F140031946204806F0B1
:1016A000A3F90346002B01D000F050FA60237B62BF
:1016B0000023BB620023FB6200233B6300237B63A8
:1016C0000023BB630023FB6307F1240300221946B8
:1016D000134805F0C1FC0346002B01D000F036FA98
:1016E00000237B600023BB600023FB6000233B6181
:1016F00000237B614FF40053BB6100233B623B1D21
:101700001946074806F0ECF90346002B01D000F01B
:101710001DFA034801F060FA00BF5837BD4680BD8E
:10172000E80300200000014080B58EB000AF07F153
:10173000280300221A605A609A60DA6007F12003D9
:1017400000221A605A603B1D00221A605A609A609B
:10175000DA601A615A619A612D4B4FF080421A602B
:101760002B4B47225A602A4B00229A60284B40F2AA
:10177000E732DA60264B00221A61254B00229A617B
:10178000234805F063F80346002B01D000F0DEF992
:101790004FF48053BB6207F1280319461C4805F03B
:1017A0001DFD0346002B01D000F0D0F9184805F0CC
:1017B0000DF90346002B01D000F0C8F900233B626D
:1017C00000237B6207F120031946114806F00CF94B
:1017D0000346002B01D000F0B9F960237B600023A1
:1017E000BB600023FB6000237B613B1D0022194688
:1017F000074805F031FC0346002B01D000F0A6F9A4
:10180000034801F0E9F900BF3837BD4680BD00BF8D
:101810003004002080B58CB000AF07F10C03242207
:10182000002118460CF0AAFE3B1D00221A605A60E7
:10183000204B214A1A601F4B00225A601D4B002288
:101840009A601C4B4FF6FF72DA601A4B00221A6145
:10185000184B00229A610323FB6000233B610123A4
:101860007B610023BB610023FB6100233B620123FA
:101870007B620023BB620023FB6207F10C03194665
:101880000C4805F0C5F90346002B01D000F05EF9C5
:1018900000237B600023BB603B1D1946054806F012
:1018A000A3F80346002B01D000F050F900BF3037F9
:1018B000BD4680BD780400200004004080B586B09D
:1018C00000AF07F1080300221A605A609A60DA60DC
:1018D0003B4600221A605A601D4B1E4A1A601C4B80
:1018E00041F61F425A601A4B00229A60184B31226F
:1018F000DA60174B00221A61154B00229A611448D6
:1019000004F0A4FF0346002B01D000F01FF94FF4B0
:101910008053BB6007F1080319460D4805F05EFCD3
:101920000346002B01D000F011F900233B60002397
:101930007B603B461946064806F056F80346002BE6
:1019400001D000F003F900BF1837BD4680BD00BFCD
:10195000C00400200008004080B586B000AF07F149
:10196000080300221A605A609A60DA603B4600223F
:101970001A605A601D4B1E4A1A601C4B41F61F42EA
:101980005A601A4B00229A60184BC722DA60174B34
:1019900000221A61154B00229A61144804F056FF88
:1019A0000346002B01D000F0D1F84FF48053BB6008
:1019B00007F1080319460D4805F010FC0346002BFB
:1019C00001D000F0C3F800233B6000237B603B465E
:1019D0001946064806F008F80346002B01D000F02F
:1019E000B5F800BF1837BD4680BD00BF0805002010
:1019F000000C004080B500AF114B124A1A60104B2A
:101A00004FF4E1325A600E4B00229A600C4B0022D8
:101A1000DA600B4B00221A61094B0C225A61084B09
:101A200000229A61064B0022DA61054806F0BEF8F2
:101A30000346002B01D000F089F800BF80BD00BF35
:101A4000500500200044004080B58AB000AF07F187
:101A5000140300221A605A609A60DA601A61002347
:101A60003B61374B1B6B364A43F080031363344BA7
:101A70001B6B03F080033B613B690023FB60304B31
:101A80001B6B2F4A43F0010313632D4B1B6B03F0B9
:101A90000103FB60FB680023BB60294B1B6B284ADA
:101AA00043F004031363264B1B6B03F00403BB607A
:101AB000BB6800237B60224B1B6B214A43F002036F
:101AC00013631F4B1B6B03F002037B607B680023D7
:101AD0003B601B4B1B6B1A4A43F010031363184BFC
:101AE0001B6B03F010033B603B680022302115485C
:101AF00001F054FF00220321134801F04FFF30236F
:101B00007B610123BB610023FB6102233B6207F180
:101B1000140319460B4801F091FC03237B61012358
:101B2000BB610023FB6102233B6207F114031946EA
:101B3000054801F083FC00BF2837BD4680BD00BFCB
:101B400000380240000802400004024080B400AFA8
:101B500072B600BF00BFFDE780B500AF01220121D2
:101B6000044801F01BFF00220221024801F016FF89
:101B700000BF80BD0004024080B500AF00221021EC
:101B8000044801F00BFF01222021024801F006FF6A
:101B900000BF80BD0008024080B500AF00220121D7
:101BA000044801F0FBFE01220221024801F0F6FE8A
:101BB00000BF80BD0004024080B500AF01221021AB
:101BC000044801F0EBFE00222021024801F0E6FE6D
:101BD00000BF80BD0008024080B500AF0022012197
:101BE000044801F0DBFE00220221024801F0D6FE8B
:101BF00000BF80BD0004024080B500AF002210216C
:101C0000044801F0CBFE00222021024801F0C6FE6C
:101C100000BF80BD0008024080B485B000AF03461D
:101C2000FB80FB88642B01D96423FB80FB881A4668
:101C3000920013445B00FB81044B1B68FA895A63D2
:101C400000BF1437BD465DF8047B7047E8030020F1
:101C500080B485B000AF0346FB80FB88642B01D9BC
:101C60006423FB80FB881A46920013445B00FB81CF
:101C7000044B1B68FA895A6300BF1437BD465DF8F0
:101C8000047B70473004002080B582B000AF03466B
:101C9000FB710B46BB711346BB80BB88642B01D91B
:101CA0006423BB80FB79022B2CD0022B47DC002B5A
:101CB00002D0012B13D042E0BB79022B02D1FFF7F7
:101CC0008BFF40E0BB79002B02D1FFF745FF01E01D
:101CD000FFF762FFBB881846FFF79EFF33E0BB7932
:101CE000022B02D1FFF788FF2DE0BB79002B02D138
:101CF000FFF742FF01E0FFF75FFFBB881846FFF7E1
:101D0000A7FF20E0BB79022B04D1FFF765FFFFF7A7
:101D100073FF18E0BB79002B04D1FFF71DFFFFF71D
:101D20002BFF03E0FFF738FFFFF746FFBB8818469D
:101D3000FFF772FFBB881846FFF78AFF03E00448ED
:101D40000CF01AFB00BF00BF0837BD4680BD00BFC6
:101D500088170108F0B587B000AF786187ED020BF6
:101D600001231E464FF000024FF00003D7E90201A5
:101D7000FEF7C4FE0346002B01D100231E46F3B23A
:101D800083F00103DBB29AB27B699A80BB683B6047
:101D9000FB6823F000437B604FF000020C4BD7E957
:101DA0000001FEF7C9FE0346002B01D0642209E0C2
:101DB000BC68FB6823F0004520462946FEF7DCFEA0
:101DC00003461AB27B695A8000BF1C37BD46F0BD7E
:101DD0000000594080B588B004AF786039607B68F6
:101DE0003A689A65642001F061F94FF47A730293BE
:101DF0000123019307F10F03009301237522D021E2
:101E0000264802F053F8FA7B254B1A70FB7B682BAF
:101E10003FD10023BB734FF47A73029301230193E4
:101E200007F10E03009301236B22D0211B4801F020
:101E300043FF0723BB734FF47A730293012301938B
:101E400007F10E03009301231922D021134801F05A
:101E500033FF0023BB734FF47A7302930123019382
:101E600007F10E03009301231C22D0210B4801F03F
:101E700023FF0023BB734FF47A7302930123019372
:101E800007F10E03009301231B22D021034801F028
:101E900013FF00BF1037BD4680BD00BF9403002074
:101EA000D3060020B0B596B000AFF86187ED040B03
:101EB00087ED021B87ED002BFB69D3E90823D7E9E7
:101EC0000201FEF7F1F902460B46C7E91423FB694C
:101ED000D3E90645D7E91423D7E90001FEF79CFBB7
:101EE00002460B4620462946FEF7E0F902460B461D
:101EF000F969C1E90623FB69D3E90A45FB69D3E91E
:101F00001001D7E90023FEF787FB02460B46104677
:101F10001946FB69D3E90C23FEF7C6F902460B46C6
:101F200010461946FB69D3E90E23FEF7BDF90246B8
:101F30000B4610461946FB69D3E90023FEF7B6F9B4
:101F400002460B4610461946D7E90023FEF764FB0C
:101F500002460B4620462946FEF7A8F902460B46E4
:101F6000F969C1E90A23FB69D3E90C45FB69D3E9A7
:101F70001001D7E90023FEF74FFB02460B4620462F
:101F80002946FEF791F902460B46F969C1E90C238F
:101F9000FB69D3E90E45FB69D3E91001D7E90023BA
:101FA000FEF73AFB02460B4620462946FEF77CF92F
:101FB00002460B46F969C1E90E23FB69D3E91045D6
:101FC000FB69D3E90201D7E90023FEF725FB0246AE
:101FD0000B4620462946FEF769F902460B46F96989
:101FE000C1E91023FB69D3E90A01FB69D3E90423A2
:101FF000FEF75CF902460B46C7E91223FB69D3E9F9
:102000000A01D7E91223FEF731FC02460B46C7E965
:102010000823FB69D3E90E01D7E91223FEF726FC5A
:1020200002460B46C7E90A23FB69D3E90623D7E931
:102030000401FEF739F902460B46C7E91023FB6994
:10204000D3E90645D7E90801D7E91023FEF7E4FAFA
:1020500002460B4620462946FEF728F902460B4663
:10206000F969C1E90623FB69D3E90845D7E90A0103
:10207000D7E91023FEF7D0FA02460B462046294640
:10208000FEF714F902460B46F969C1E90823FB691A
:10209000D3E90A23C7E90E23FB69D3E90C23C7E977
:1020A0000C23FB69D3E90A45D7E90801D7E90E23D8
:1020B000FEF7B2FA02460B4620462946FEF7F4F830
:1020C00002460B46F969C1E90A23FB69D3E90C45CD
:1020D000D7E90801D7E90C23FEF79EFA02460B4622
:1020E00020462946FEF7E0F802460B46F969C1E9A9
:1020F0000C23FB69D3E90E45D7E90A01D7E90E2382
:10210000FEF78AFA02460B4620462946FEF7CCF82F
:1021100002460B46F969C1E90E23FB69D3E9104574
:10212000D7E90A01D7E90C23FEF776FA02460B46F7
:1021300020462946FEF7B8F802460B46F969C1E980
:102140001023FB69D3E9062343EC172BB0EE470AB3
:10215000F0EE670A5837BD46B0BD00000000000031
:102160002DE9B04F94B004AF7860052000F09EFFD9
:102170004FF47A7302930E23019307F1080300933F
:1021800001233B22D021A04801F090FE03461A46CD
:102190009E4B1A709D4B1B78002B0ED000F00CFA52
:1021A000994801F059FD032000F080FF964801F0A6
:1021B0000FFC974B00221A70E7E1954B68221A70CA
:1021C0003B7A1BB21B021AB27B7A1BB213431AB2C0
:1021D0007B681A80BB7A1BB21B021AB2FB7A1BB255
:1021E00013431AB27B685A803B7B1BB21B021AB2A4
:1021F0007B7B1BB213431AB27B689A80BB7B1BB2FA
:102200001B021AB2FB7B1BB21343FB863B7C1BB247
:102210001B021AB27B7C1BB213431AB27B681A846E
:10222000BB7C1BB21B021AB2FB7C1BB213431AB25B
:102230007B685A843B7D1BB21B021AB27B7D1BB2AA
:1022400013431AB27B689A847B68B3F9003018464E
:10225000FEF778F94FF000026E4BFEF707FB0246DF
:102260000B467968C1E902237B68B3F9023018464E
:10227000FEF768F94FF00002664BFEF7F7FA0246E8
:102280000B467968C1E904237B68B3F9043018462A
:10229000FEF758F956A3D3E90023FEF7E7FA024602
:1022A0000B467968C1E90623B7F9363007EE903A54
:1022B000B8EEE77ADFED586AC7EE267A9FED577AD7
:1022C00077EE877A7B68C3ED107A7B68B3F92030AC
:1022D0001846FEF737F948A3D3E90023FEF7C6FAFC
:1022E00002460B467968C1E90A237B68B3F92230BC
:1022F0001846FEF727F940A3D3E90023FEF7B6FA04
:1023000002460B467968C1E90C237B68B3F9243097
:102310001846FEF717F938A3D3E90023FEF7A6FA0B
:1023200002460B467968C1E90E2300F0B3FE02466F
:102330003B4B1B68D31A1846FEF7F4F84FF0000227
:10234000384BFEF793FA02460B46C7E90A2300F022
:10235000A1FE0346324A13607B68B3F900301A4687
:102360007B68B3F9003003FB02F27B68B3F90430F9
:1023700019467B68B3F9043001FB03F31344184694
:10238000FEF7E0F802460B4643EC102B0EF018FE69
:1023900087ED080B4FF000024FF00003D7E908016A
:1023A000FEF7A2FB0346002B3ED17B68B3F9023057
:1023B0001846FEF7C7F8D7E90823FEF757FA024692
:1023C0000B4643EC172BB0EE470AF0EE670A0EF00F
:1023D00023FE51EC100B0AA3D3E90023FEF71CF9EE
:1023E00002460B46C7E90E2324E000BFAFF300808E
:1023F000000000000029CC400000000000606040A8
:10240000F8C1631ADCA54C4094030020D2060020DA
:10241000D30600200000D0400000AA43B81E12429C
:10242000E806002000408F404FF000024FF000030C
:10243000C7E90E237B68B3F900305B421846FEF70C
:1024400081F882468B467B68B3F904301846FEF764
:1024500079F802460B4643EC112B4BEC10AB0EF017
:10246000ADFD51EC100B52A3D3E90023FEF7D4F8D5
:1024700002460B46C7E906234FF00002464BD7E958
:102480000601FEF73BFB0346002B0AD07B68D3E92D
:1024900014014FF00002414BFEF74EFB0346002BA8
:1024A00014D14FF000023D4BD7E90601FEF744FB83
:1024B0000346002B15D07B68D3E914014FF00002CE
:1024C000354BFEF71BFB0346002B0AD03449D7E9F6
:1024D0000623C1E906237968D7E90623C1E9142355
:1024E00014E07B6893ED0C7B97ED0A2BB0EE471A56
:1024F000F0EE671A97ED060B2948FFF7D3FCB0EE14
:10250000407AF0EE607A7B6883ED147B7B68D3E9D8
:102510001423904623F000494FF000021F4B404621
:102520004946FEF709FB0346002B08D07B68D3E938
:102530000A23144683F000457B68C3E90A4519491C
:10254000D7E90E23C1E900231749D7E90623C1E9DA
:1025500000237B6893ED0A7B97ED0A2BB0EE471AB8
:10256000F0EE671A97ED0E0B1048FFF79BFCB0EEEC
:10257000407AF0EE607A7B6883ED127B7B68996D20
:102580007B68D3E91223C1E900234037BD46BDE88B
:10259000B08F00BFAFF30080008056C0008056406F
:1025A00068000020D8060020E0060020200000205F
:1025B000F8C1631ADCA54C4080B586B000AF3B463D
:1025C00000221A605A609A60DA601A61C0233B6088
:1025D00011237B600123BB600223FB603B4619464D
:1025E0002A4800F02BFF01228021284801F0D6F96B
:1025F000012000F05BFD00237B6119E0802123486E
:1026000001F0B4F90346012B16D0012240211F48E6
:1026100001F0C4F9012000F049FD002240211B48CF
:1026200001F0BCF9012000F041FD7B6901337B61C1
:102630007B69082BE2DD00E000BF00228021134807
:1026400001F0ACF9012000F031FD012240210F48DA
:1026500001F0A4F9012000F029FD012280210B489E
:1026600001F09CF9012000F021FD12237B60002382
:10267000BB600223FB6004233B613B4619460348D1
:1026800000F0DCFE00BF1837BD4680BD00040240EC
:1026900080B588B000AFF861B9617A613B6187EDC0
:1026A000030AC7ED020A87ED011AFB69BA69DA610C
:1026B000FB697A691A62FB693A695A62B96AF86910
:1026C00000F015F897ED011AD7ED020A97ED030A0D
:1026D000F86900F01BF800F0DDFC0246FB69DB68DE
:1026E000D21AFB691A6100BF2037BD4680BD80B495
:1026F00083B000AF786039607B683A68DA6000BF09
:102700000C37BD465DF8047B7047000080B487B08D
:1027100000AFF86087ED020AC7ED010A87ED001AE5
:10272000FB68DB6807EE903AB8EE677ADFED106A77
:10273000C7EE267AC7ED057AFB68BA681A6097ED8E
:10274000017AD7ED057A67EE277AFB68C3ED017A47
:10275000D7ED006A97ED057AC6EE877AFB68C3ED80
:10276000027A00BF1C37BD465DF8047B704700BF8E
:1027700000007A4480B485B000AFF8600846114686
:102780001A4603467B810B463B811346FB80FB6860
:102790007A899A82FB683A89DA82FB68FA881A8316
:1027A000FB683A8B5A8300BF1437BD465DF8047B43
:1027B0007047B0B58EB000AF786000F06BFC786306
:1027C0007B681B697A6BD31A3B637B68DB683A6B67
:1027D0009A42C0F0A9807B68DB69D3E90023C7E98E
:1027E0000A237B685B6AD3E90023C7E90823D7E99A
:1027F0000A23D7E90801FDF757FD02460B46C7E952
:1028000006237B68D3E90A457B685B681846FDF7B9
:10281000ABFED7E90623FDF7FFFE02460B46204636
:102820002946FDF743FD02460B467968C1E90A23B4
:102830007B68D3E90A457B68B3F914301846FDF785
:1028400081FE02460B4620462946FEF775F90346EF
:10285000002B0AD07B68B3F914301846FDF772FEDE
:1028600002460B467968C1E90A237B68D3E90A4529
:102870007B68B3F916301846FDF764FE02460B4636
:1028800020462946FEF73AF90346002B0AD07B681A
:10289000B3F916301846FDF755FE02460B46796827
:1028A000C1E90A237B68D3E90C23D7E90601FDF7C8
:1028B000FBFC02460B46C7E904237B681B681846ED
:1028C000FDF752FED7E90623FDF7A6FE02460B46AA
:1028D000104619467B68D3E90A23FDF7E7FC024658
:1028E0000B4614461D467B689B681846FDF73CFE68
:1028F000D7E90423FDF790FE02460B462046294601
:10290000FDF7D4FC02460B46C7E902237B68196A2F
:10291000D7E90223C1E900237968D7E90623C1E991
:102920000C237B687A6B1A6100BF3837BD46B0BD97
:1029300080B483B000AF00237B60104B5B6C0F4A08
:1029400043F4804353640D4B5B6C03F480437B6022
:102950007B6800233B60094B1B6C084A43F08053A3
:102960001364064B1B6C03F080533B603B6800BF55
:102970000C37BD465DF8047B704700BF003802404D
:1029800080B58AB000AF786007F1140300221A60A6
:102990005A609A60DA601A617B681B68194A934230
:1029A0002CD100233B61184B1B6B174A43F00203E9
:1029B0001363154B1B6B03F002033B613B694FF440
:1029C00040737B611223BB610023FB6103233B62E5
:1029D00004237B6207F1140319460C4800F02EFD16
:1029E0000023FB60084B1B6C074A43F4001313647D
:1029F000054B1B6C03F40013FB60FB6800BF28371A
:102A0000BD4680BD00540040003802400004024032
:102A100080B582B000AF78607B681B680B4A934238
:102A20000FD10B4B1B6C0A4A23F4001313644FF4B1
:102A30008071084800F09EFE4FF40071054800F0D8
:102A400099FE00BF0837BD4680BD00BF005400405E
:102A5000003802400004024080B586B000AF7860C4
:102A60007B681B68344A934216D100237B61334B49
:102A70005B6C324A43F001035364304B5B6C03F0F0
:102A800001037B617B6900220021182000F00DFC0E
:102A9000182000F026FC4AE07B681B68B3F1804FE9
:102AA0000ED100233B61254B1B6C244A43F00103EC
:102AB0001364224B1B6C03F001033B613B6936E05E
:102AC0007B681B681E4A934216D10023FB601B4B98
:102AD0001B6C1A4A43F004031364184B1B6C03F07D
:102AE0000403FB60FB68002200211E2000F0DDFBD8
:102AF0001E2000F0F6FB1AE07B681B68114A934227
:102B000015D10023BB600D4B1B6C0C4A43F008032E
:102B100013640A4B1B6C03F00803BB60BB68002204
:102B20000021322000F0C1FB322000F0DAFB00BFB0
:102B30001837BD4680BD00BF00000140003802408C
:102B400000080040000C004080B58AB000AF7860FB
:102B500007F1140300221A605A609A60DA601A6161
:102B60007B681B68194A93422BD100233B61184BA9
:102B70001B6C174A43F002031364154B1B6C03F0E4
:102B800002033B613B690023FB60114B1B6B104A46
:102B900043F0010313630E4B1B6B03F00103FB6057
:102BA000FB68C0237B610223BB610023FB61002320
:102BB0003B6202237B6207F114031946054800F0CB
:102BC0003DFC00BF2837BD4680BD00BF000400406B
:102BD000003802400000024080B58AB000AF786043
:102BE00007F1140300221A605A609A60DA601A61D1
:102BF0007B681B68244A93421FD100233B61234B0F
:102C00001B6B224A43F010031363204B1B6B03F032
:102C100010033B613B694FF400737B610223BB618E
:102C20000023FB6100233B6201237B6207F1140355
:102C30001946174800F002FC22E07B681B68B3F1DC
:102C4000804F1DD10023FB60104B1B6B0F4A43F0DC
:102C5000010313630D4B1B6B03F00103FB60FB6867
:102C600020237B610223BB610023FB6100233B62C5
:102C700001237B6207F114031946064800F0DEFBCE
:102C800000BF2837BD4680BD00000140003802402B
:102C9000001002400000024080B58AB000AF7860AA
:102CA00007F1140300221A605A609A60DA601A6110
:102CB0007B681B681D4A934233D100233B611C4B48
:102CC0001B6C1B4A43F400331364194B1B6C03F455
:102CD00000333B613B690023FB60154B1B6B144ABF
:102CE00043F001031363124B1B6B03F00103FB6002
:102CF000FB680C237B610223BB610023FB61032380
:102D00003B6207237B6207F114031946094800F070
:102D100095FB00220021262000F0C7FA262000F0B3
:102D2000E0FA00BF2837BD4680BD00BF0044004028
:102D3000003802400000024080B400AF00BFFDE751
:102D400080B400AF00BFFDE780B400AF00BFFDE777
:102D500080B400AF00BFFDE780B400AF00BFFDE767
:102D600080B400AF00BFBD465DF8047B704780B4FF
:102D700000AF00BFBD465DF8047B704780B400AF74
:102D800000BFBD465DF8047B704780B500AF00F022
:102D90006DF900BF80BD000080B500AF024804F0AF
:102DA0006BF800BF80BD00BFE803002080B500AF16
:102DB000024804F061F800BF80BD00BFC0040020DD
:102DC00080B500AF024804F067FF00BF80BD00BFC0
:102DD0005005002080B500AF024804F04DF800BF58
:102DE00080BD00BF0805002080B500AF024801F09B
:102DF00087FF00BF80BD00BFD41B002080B400AFA0
:102E000001231846BD465DF8047B704780B582B04B
:102E100000AF786039600BF071FC034616221A602F
:102E20004FF0FF3318460837BD4680BD80B582B0ED
:102E300000AF78604FF0FF317868FFF7E7FF00BF21
:102E4000FDE780B586B000AFF860B9607A60002316
:102E50007B610AE0AFF300800146BB685A1CBA6090
:102E6000CAB21A707B6901337B617A697B689A42C6
:102E7000F0DB7B6818461837BD4680BD80B483B050
:102E800000AF78604FF0FF3318460C37BD465DF851
:102E9000047B704780B483B000AF786039603B68D2
:102EA0004FF400525A60002318460C37BD465DF8B7
:102EB000047B704780B483B000AF7860012318466C
:102EC0000C37BD465DF8047B704780B485B000AF19
:102ED000F860B9607A60002318461437BD465DF883
:102EE000047B704780B586B000AF7860144A154BFC
:102EF000D31A7B617B693B61134B1B68002B02D1AA
:102F0000114B124A1A60104B1A687B6813443A69D5
:102F10009A4207D20BF0F2FB03460C221A604FF0E4
:102F2000FF3309E0084B1B68FB60074B1A687B689E
:102F30001344054A1360FB6818461837BD4680BD28
:102F40000000022000040000EC06002028240020DD
:102F500080B400AF064BD3F88830054A43F47003C1
:102F6000C2F8883000BFBD465DF8047B704700BFE3
:102F700000ED00E0DFF834D0FFF7EAFF0C480D4920
:102F80000D4A002302E0D458C4500433C4188C42C4
:102F9000F9D30A4A0A4C002301E013600432A2422A
:102FA000FBD30BF0B1FBFEF7E3F870470000022003
:102FB0000000002074030020181D01087803002081
:102FC00024240020FEE7000080B500AF0E4B1B68F4
:102FD0000D4A43F4007313600B4B1B680A4A43F419
:102FE00080631360084B1B68074A43F480731360C7
:102FF000032000F04FF90F2000F008F8FFF798FCCD
:103000000023184680BD00BF003C024080B582B05E
:1030100000AF7860124B1A68124B1B7819464FF4B8
:103020007A73B3FBF1F3B2FBF3F3184600F067F9E0
:103030000346002B01D001230EE07B680F2B0AD83A
:10304000002279684FF0FF3000F02FF9064A7B68C4
:103050001360002300E0012318460837BD4680BDF9
:10306000B0000020B8000020B400002080B400AF01
:10307000064B1B781A46064B1B681344044A136020
:1030800000BFBD465DF8047B704700BFB80000205C
:10309000F006002080B400AF034B1B681846BD4605
:1030A0005DF8047B704700BFF006002080B584B057
:1030B00000AF7860FFF7EEFFB8607B68FB60FB68ED
:1030C000B3F1FF3F05D00A4B1B781A46FB68134447
:1030D000FB6000BFFFF7DEFF0246BB68D31AFA6849
:1030E0009A42F7D800BF00BF1037BD4680BD00BF71
:1030F000B800002080B485B000AF78607B6803F032
:103100000703FB600C4BDB68BB60BA684FF6FF033C
:103110001340BB60FB681A02BB68134343F0BF63F4
:1031200043F40033BB60044ABB68D36000BF14376C
:10313000BD465DF8047B704700ED00E080B400AF51
:10314000044BDB681B0A03F007031846BD465DF815
:10315000047B704700ED00E080B483B000AF03460D
:10316000FB7197F90730002B0BDBFB7903F01F0293
:10317000074997F907305B09012000FA02F241F88C
:10318000232000BF0C37BD465DF8047B704700BFAD
:1031900000E100E080B483B000AF03463960FB710A
:1031A00097F90730002B0ADB3B68DAB20C4997F934
:1031B00007301201D2B20B4483F800230AE03B68C7
:1031C000DAB20849FB7903F00F03043B1201D2B2D3
:1031D0000B441A7600BF0C37BD465DF8047B704780
:1031E00000E100E000ED00E080B489B000AFF860DD
:1031F000B9607A60FB6803F00703FB61FB69C3F108
:103200000703042B28BF0423BB61FB690433062B8F
:1032100002D9FB69033B00E000237B614FF0FF32E2
:10322000BB6902FA03F3DA43BB681A407B699A4030
:103230004FF0FF317B6901FA03F3D9437B680B4000
:10324000134318462437BD465DF8047B70470000E1
:1032500080B582B000AF78607B68013BB3F1807FBE
:1032600001D301230FE00A4A7B68013B53600F2121
:103270004FF0FF30FFF78EFF054B00229A60044BA2
:1032800007221A60002318460837BD4680BD00BFDC
:1032900010E000E080B582B000AF78607868FFF79A
:1032A00029FF00BF0837BD4680BD80B586B000AF9E
:1032B0000346B9607A60FB7300237B61FFF73EFF32
:1032C00078617A68B9687869FFF78EFF024697F9E6
:1032D0000F3011461846FFF75DFF00BF1837BD4697
:1032E00080BD80B582B000AF0346FB7197F907300F
:1032F0001846FFF731FF00BF0837BD4680BD80B5D7
:1033000082B000AF78607868FFF7A2FF03461846E6
:103310000837BD4680BD80B584B000AF78607B685B
:103320009B6DFB60FFF7B6FEB8607B6893F83530A5
:10333000DBB2022B08D07B6880225A657B680022B2
:1033400083F83420012352E07B681B681A687B688D
:103350001B6822F016021A607B681B685A697B683A
:103360001B6822F080025A617B681B6C002B03D122
:103370007B689B6C002B07D07B681B681A687B6896
:103380001B6822F008021A607B681B681A687B6859
:103390001B6822F001021A6013E0FFF77BFE024671
:1033A000BB68D31A052B0CD97B6820225A657B6831
:1033B000032283F835207B68002283F8342003231E
:1033C00015E07B681B681B6803F00103002BE4D148
:1033D0007B68DB6D3F229A40FB689A607B68012224
:1033E00083F835207B68002283F8342000231846B8
:1033F0001037BD4680BD80B483B000AF78607B6875
:1034000093F83530DBB2022B04D07B6880225A65FA
:1034100001230CE07B68052283F835207B681B685C
:103420001A687B681B6822F001021A6000231846A4
:103430000C37BD465DF8047B7047000080B489B04E
:1034400000AF7860396000237B6100233B6100237B
:10345000BB610023FB616BE10122FB6902FA03F30C
:103460007B613B681B687A6913403B613A697B6901
:103470009A4240F05A813B685B6803F00303012BDA
:1034800005D03B685B6803F00303022B30D17B68F7
:103490009B68BB61FB695B00032202FA03F3DB4319
:1034A000BA691340BB613B68DA68FB695B0002FAEA
:1034B00003F3BA691343BB617B68BA699A607B689E
:1034C0005B68BB610122FB6902FA03F3DB43BA6963
:1034D0001340BB613B685B681B0903F00102FB6999
:1034E00002FA03F3BA691343BB617B68BA695A6095
:1034F0003B685B6803F00303032B17D07B68DB6832
:10350000BB61FB695B00032202FA03F3DB43BA6988
:103510001340BB613B689A68FB695B0002FA03F3E6
:10352000BA691343BB617B68BA69DA603B685B6860
:1035300003F00303022B23D1FB69DA087B6808320E
:1035400053F82230BB61FB6903F007039B000F2295
:1035500002FA03F3DB43BA691340BB613B681A69A3
:10356000FB6903F007039B0002FA03F3BA691343F4
:10357000BB61FB69DA087B680832B96943F822103D
:103580007B681B68BB61FB695B00032202FA03F3E3
:10359000DB43BA691340BB613B685B6803F003021D
:1035A000FB695B0002FA03F3BA691343BB617B68F2
:1035B000BA691A603B685B6803F44033002B00F083
:1035C000B4800023FB60604B5B6C5F4A43F4804334
:1035D00053645D4B5B6C03F48043FB60FB685B4AA8
:1035E000FB699B08023352F82330BB61FB6903F08F
:1035F00003039B000F2202FA03F3DB43BA69134073
:10360000BB617B68524A93422BD07B68514A9342FC
:1036100025D07B68504A93421FD07B684F4A934223
:1036200019D07B684E4A934213D07B684D4A93422F
:103630000DD07B684C4A934207D07B684B4A93423B
:1036400001D107230EE008230CE006230AE005233E
:1036500008E0042306E0032304E0022302E0012340
:1036600000E00023FA6902F0030292009340BA6975
:103670001343BB613549FB699B080233BA6941F8C2
:1036800023203B4B9B68BB613B69DB43BA6913401A
:10369000BB613B685B6803F48013002B03D0BA69FD
:1036A0003B691343BB61324ABB699360304BDB68B3
:1036B000BB613B69DB43BA691340BB613B685B6834
:1036C00003F40013002B03D0BA693B691343BB61B9
:1036D000274ABB69D360264B5B68BB613B69DB4310
:1036E000BA691340BB613B685B6803F40033002B8D
:1036F00003D0BA693B691343BB611D4ABB69536080
:103700001B4B1B68BB613B69DB43BA691340BB6160
:103710003B685B6803F48033002B03D0BA693B69D4
:103720001343BB61124ABB691360FB690133FB6140
:10373000FB690F2B7FF690AE00BF00BF2437BD465C
:103740005DF8047B704700BF00380240003801403C
:10375000000002400004024000080240000C024049
:10376000001002400014024000180240001C0240F9
:10377000003C014080B487B000AF7860396000231E
:103780003B610023FB600023BB6000237B61CDE035
:1037900001227B6902FA03F33B613A683B691340FB
:1037A000FB60FA683B699A4240F0BD80654A7B69DC
:1037B0009B08023352F82330BB607B6903F003039C
:1037C0009B000F2202FA03F3BA681340BB607B68C8
:1037D0005D4A93422BD07B685C4A934225D07B683C
:1037E0005B4A93421FD07B685A4A934219D07B6848
:1037F000594A934213D07B68584A93420DD07B6854
:10380000574A934207D07B68564A934201D1072317
:103810000EE008230CE006230AE0052308E0042359
:1038200006E0032304E0022302E0012300E000237A
:103830007A6902F0030292009340BA689A4232D148
:10384000494B1A68FB68DB43474913400B60464B02
:103850005A68FB68DB43444913404B60424BDA68CB
:10386000FB68DB4340491340CB603F4B9A68FB68E1
:10387000DB433D4913408B607B6903F003039B00EE
:103880000F2202FA03F3BB602E4A7B699B080233C6
:1038900052F82310BB68DA432A487B699B080A4028
:1038A000023340F823207B681A687B695B000321A0
:1038B00001FA03F3DB431A407B681A607B69DA087C
:1038C0007B68083253F822107B6903F007039B00E2
:1038D0000F2202FA03F3DB437A69D20819407B68AE
:1038E000083243F822107B68DA687B695B000321A9
:1038F00001FA03F3DB431A407B68DA607B685A689D
:1039000001217B6901FA03F3DB431A407B685A60AB
:103910007B689A687B695B00032101FA03F3DB4350
:103920001A407B689A607B6901337B617B690F2B4E
:103930007FF62EAF00BF00BF1C37BD465DF8047B8D
:10394000704700BF00380140000002400004024000
:1039500000080240000C0240001002400014024027
:1039600000180240001C0240003C014080B485B0B9
:1039700000AF78600B467B807B681A697B881340B8
:10398000002B02D00123FB7301E00023FB73FB7BC0
:1039900018461437BD465DF8047B704780B483B089
:1039A00000AF78600B467B8013467B707B78002BE2
:1039B00003D07A887B689A6103E07B881A047B686D
:1039C0009A6100BF0C37BD465DF8047B704700006C
:1039D00080B584B000AF78607B68002B01D10123F3
:1039E0002BE17B6893F83D30DBB2002B06D17B687E
:1039F000002283F83C207868FEF7C2FF7B6824220F
:103A000083F83D207B681B681A687B681B6822F07E
:103A100001021A607B681B681A687B681B6842F4A5
:103A200000421A607B681B681A687B681B6822F476
:103A300000421A6002F0E2FEF8607B685B68814A2F
:103A4000934207D8FB68804A934294BF0123002326
:103A5000DBB206E0FB687D4A934294BF012300235A
:103A6000DBB2002B01D00123E7E0FB68784AA2FB20
:103A700003239B0CBB607B681B685B6823F03F01E2
:103A80007B681B68BA680A435A607B681B681B6ABC
:103A900023F03F017B685B686A4A934202D8BB68A7
:103AA000013309E0BB684FF4967202FB03F3694AE5
:103AB000A2FB03239B0901337A6812680B4313624C
:103AC0007B681B68DB6923F44F4222F0FF027B68AE
:103AD0005B685C498B4219D8FB68591E7B685B6840
:103AE0005B00B1FBF3F3591C40F6FC730B40002B59
:103AF0000AD0FB68591E7B685B685B00B1FBF3F37F
:103B00000133C3F30B0351E004234FE07B689B6850
:103B1000002B11D1FB68581E7B6859680B465B006F
:103B20000B44B0FBF3F30133C3F30B03002B0CBFC7
:103B300001230023DBB212E0FB68581E7B68596842
:103B40000B469B000B4499000B44B0FBF3F301338D
:103B5000C3F30B03002B0CBF01230023DBB2002BAC
:103B600001D0012322E07B689B68002B0ED1FB680B
:103B7000581E7B6859680B465B000B44B0FBF3F39F
:103B80000133C3F30B0343F400430FE0FB68581EFB
:103B90007B6859680B469B000B4499000B44B0FBB3
:103BA000F3F30133C3F30B0343F44043796809682B
:103BB0001343CB617B681B681B6823F0C0017B68E3
:103BC000DA697B681B6A1A437B681B680A431A60C0
:103BD0007B681B689B6823F4034323F0FF037A6828
:103BE00011697A68D26811437A6812680B4393604E
:103BF0007B681B68DB6823F0FF017B685A697B6880
:103C00009B691A437B681B680A43DA607B681B6800
:103C10001A687B681B6842F001021A607B68002208
:103C20001A647B68202283F83D207B6800221A6397
:103C30007B68002283F83E20002318461037BD46DB
:103C400080BD00BFA08601007F841E00FF083D00EC
:103C500083DE1B43D34D621080B582B000AF786025
:103C60007B68002B01D1012321E07B68242283F8AB
:103C70003D207B681B681A687B681B6822F0010284
:103C80001A607868FEF7C4FE7B6800221A647B68BD
:103C9000002283F83D207B6800221A637B680022A3
:103CA00083F83E207B68002283F83C2000231846DE
:103CB0000837BD4680BD000080B588B002AFF8600F
:103CC000084611461A4603467B810B463B81134644
:103CD000FB80FFF7DFF97861FB6893F83D30DBB2DA
:103CE000202B40F0D9807B690093192301226D4974
:103CF000F86800F08BFC0346002B01D00223CCE0D7
:103D0000FB6893F83C30012B01D10223C5E0FB682E
:103D1000012283F83C20FB681B681B6803F0010349
:103D2000012B07D0FB681B681A68FB681B6842F010
:103D300001021A60FB681B681A68FB681B6822F4A2
:103D400000621A60FB68212283F83D20FB68402254
:103D500083F83E20FB6800221A64FB683A6A5A62C4
:103D6000FB68BA8C5A85FB685B8D9AB2FB681A8532
:103D7000FB684D4ADA62F8883A8979897B69019350
:103D8000BB6A00930346F86800F0C2FA0346002BB2
:103D900052D0012381E07A69B96AF86800F050FDD9
:103DA0000346002B0DD0FB681B6C042B07D1FB686E
:103DB0001B681A68FB681B6842F400721A600123D2
:103DC0006BE0FB685B6A1A78FB681B681A61FB682A
:103DD0005B6A5A1CFB685A62FB681B8D013B9AB2F6
:103DE000FB681A85FB685B8D9BB2013B9AB2FB684E
:103DF0005A85FB681B685B6903F00403042B1BD125
:103E0000FB681B8D002B17D0FB685B6A1A78FB6878
:103E10001B681A61FB685B6A5A1CFB685A62FB6884
:103E20001B8D013B9AB2FB681A85FB685B8D9BB2C8
:103E3000013B9AB2FB685A85FB681B8D002BAAD107
:103E40007A69B96AF86800F043FD0346002B0DD08B
:103E5000FB681B6C042B07D1FB681B681A68FB68A6
:103E60001B6842F400721A60012316E0FB681B68AD
:103E70001A68FB681B6842F400721A60FB68202213
:103E800083F83D20FB68002283F83E20FB68002277
:103E900083F83C20002300E0022318461837BD4673
:103EA00080BD00BF020010000000FFFF80B58CB095
:103EB00002AFF860084611461A4603467B810B465E
:103EC0003B811346FB80FFF7E5F87862FB6893F8C7
:103ED0003D30DBB2202B40F014827B6A0093192323
:103EE00001227B49F86800F091FB0346002B01D0CA
:103EF000022307E2FB6893F83C30012B01D1022337
:103F000000E2FB68012283F83C20FB681B681B6809
:103F100003F00103012B07D0FB681B681A68FB68DC
:103F20001B6842F001021A60FB681B681A68FB6894
:103F30001B6822F400621A60FB68222283F83D208D
:103F4000FB68402283F83E20FB6800221A64FB686D
:103F50003A6B5A62FB68BA8E5A85FB685B8D9AB2DF
:103F6000FB681A85FB685B4ADA62F8883A897989C6
:103F70007B6A0193BB6B00930346F86800F05EFA1E
:103F80000346002B01D00123BCE1FB681B8D002BF5
:103F900013D100233B62FB681B685B693B62FB68D3
:103FA0001B689B693B623B6AFB681B681A68FB687D
:103FB0001B6842F400721A6090E1FB681B8D012BB4
:103FC0001BD1FB681B681A68FB681B6822F48062BF
:103FD0001A600023FB61FB681B685B69FB61FB687F
:103FE0001B689B69FB61FB69FB681B681A68FB68BF
:103FF0001B6842F400721A6070E1FB681B8D022B93
:104000001BD1FB681B681A68FB681B6822F480627E
:104010001A60FB681B681A68FB681B6842F4006240
:104020001A600023BB61FB681B685B69BB61FB68AE
:104030001B689B69BB61BB6950E100237B61FB6826
:104040001B685B697B61FB681B689B697B617B69A3
:1040500044E1FB681B8D032B00F2F180FB681B8D94
:10406000012B23D17A6AB96BF86800F079FC03461A
:10407000002B01D0012345E1FB681B681A69FB682E
:104080005B6AD2B21A70FB685B6A5A1CFB685A62A0
:10409000FB681B8D013B9AB2FB681A85FB685B8D40
:1040A0009BB2013B9AB2FB685A8517E1FB681B8DF6
:1040B000022B4ED17B6A0093BB6B00220649F86845
:1040C00000F0A4FA0346002B08D001231AE100BF38
:1040D000020010000000FFFF04000100FB681B68E5
:1040E0001A68FB681B6842F400721A60FB681B6860
:1040F0001A69FB685B6AD2B21A70FB685B6A5A1C69
:10410000FB685A62FB681B8D013B9AB2FB681A85FB
:10411000FB685B8D9BB2013B9AB2FB685A85FB68DA
:104120001B681A69FB685B6AD2B21A70FB685B6A2B
:104130005A1CFB685A62FB681B8D013B9AB2FB68F4
:104140001A85FB685B8D9BB2013B9AB2FB685A856E
:10415000C4E07B6A0093BB6B00226C49F86800F0F6
:1041600055FA0346002B01D00123CBE0FB681B6806
:104170001A68FB681B6822F480621A60FB681B687F
:104180001A69FB685B6AD2B21A70FB685B6A5A1CD8
:10419000FB685A62FB681B8D013B9AB2FB681A856B
:1041A000FB685B8D9BB2013B9AB2FB685A857B6AC8
:1041B0000093BB6B00225549F86800F027FA0346CC
:1041C000002B01D001239DE0FB681B681A68FB6887
:1041D0001B6842F400721A60FB681B681A69FB686E
:1041E0005B6AD2B21A70FB685B6A5A1CFB685A623F
:1041F000FB681B8D013B9AB2FB681A85FB685B8DDF
:104200009BB2013B9AB2FB685A85FB681B681A692E
:10421000FB685B6AD2B21A70FB685B6A5A1CFB6867
:104220005A62FB681B8D013B9AB2FB681A85FB68DA
:104230005B8D9BB2013B9AB2FB685A854EE07A6A6D
:10424000B96BF86800F08CFB0346002B01D001230A
:1042500058E0FB681B681A69FB685B6AD2B21A7087
:10426000FB685B6A5A1CFB685A62FB681B8D013B4A
:104270009AB2FB681A85FB685B8D9BB2013B9AB2D0
:10428000FB685A85FB681B685B6903F00403042B19
:1042900024D1FB681B8D032B07D1FB681B681A68B0
:1042A000FB681B6822F480621A60FB681B681A694D
:1042B000FB685B6AD2B21A70FB685B6A5A1CFB68C7
:1042C0005A62FB681B8D013B9AB2FB681A85FB683A
:1042D0005B8D9BB2013B9AB2FB685A85FB681B8DD4
:1042E000002B7FF4B6AEFB68202283F83D20FB68EC
:1042F000002283F83E20FB68002283F83C20002344
:1043000000E0022318462837BD4680BD04000100A6
:1043100080B588B002AFF860084611461A460346D9
:104320007B810B463B811346FB80FB681B681A6848
:10433000FB681B6842F480721A607B6A00933B6AD8
:1043400000224FF00111F86800F060F90346002BDD
:104350000DD0FB681B681B6803F48073B3F5807F86
:1043600003D1FB684FF400721A6403235FE07B897A
:10437000DBB21A46FB681B6802F0FE021A617B6A18
:104380003A6A2D49F86800F0BBF90346002B01D0CA
:1043900001234CE000237B61FB681B685B697B6148
:1043A000FB681B689B697B617B697A6A396AF8687C
:1043B00000F046FA0346002B0DD0FB681B6C042B63
:1043C00007D1FB681B681A68FB681B6842F400721F
:1043D0001A6001232BE0FB88012B05D13B89DAB25F
:1043E000FB681B681A6121E03B891B0A9BB2DAB2A9
:1043F000FB681B681A617A6A396AF86800F020FA6B
:104400000346002B0DD0FB681B6C042B07D1FB6807
:104410001B681A68FB681B6842F400721A6001236B
:1044200005E03B89DAB2FB681B681A610023184675
:104430001837BD4680BD00BF0200010080B588B0BE
:1044400002AFF860084611461A4603467B810B46C8
:104450003B811346FB80FB681B681A68FB681B687E
:1044600042F480621A60FB681B681A68FB681B686C
:1044700042F480721A607B6A00933B6A00224FF01C
:104480000111F86800F0C2F80346002B0DD0FB685C
:104490001B681B6803F48073B3F5807F03D1FB684E
:1044A0004FF400721A640323AAE07B89DBB21A4638
:1044B000FB681B6802F0FE021A617B6A3A6A524985
:1044C000F86800F01DF90346002B01D0012397E0A6
:1044D00000237B61FB681B685B697B61FB681B6871
:1044E0009B697B617B697A6A396AF86800F0A8F990
:1044F0000346002B0DD0FB681B6C042B07D1FB6817
:104500001B681A68FB681B6842F400721A6001237A
:1045100076E0FB88012B05D13B89DAB2FB681B688A
:104520001A6121E03B891B0A9BB2DAB2FB681B6867
:104530001A617A6A396AF86800F082F90346002B3A
:104540000DD0FB681B6C042B07D1FB681B681A6835
:10455000FB681B6842F400721A60012350E03B893B
:10456000DAB2FB681B681A617A6A396AF86800F087
:1045700067F90346002B0DD0FB681B6C042B07D199
:10458000FB681B681A68FB681B6842F400721A60BB
:10459000012335E0FB681B681A68FB681B6842F45E
:1045A00080721A607B6A00933B6A00224FF001110F
:1045B000F86800F02BF80346002B0DD0FB681B6851
:1045C0001B6803F48073B3F5807F03D1FB684FF45D
:1045D00000721A64032313E07B89DBB243F001030A
:1045E000DAB2FB681B681A617B6A3A6A0649F868A6
:1045F00000F086F80346002B01D0012300E00023E1
:1046000018461837BD4680BD0200010080B584B051
:1046100000AFF860B9603B601346FB7148E03B684F
:10462000B3F1FF3F44D0FEF735FD0246BB69D31A14
:104630003A689A4202D33B68002B39D1BB681B0C05
:10464000DBB2012B0DD1FB681B685B69DA43BB68E9
:1046500013409BB2002B0CBF01230023DBB21A4690
:104660000CE0FB681B689B69DA43BB6813409BB294
:10467000002B0CBF01230023DBB21A46FB799A42C0
:1046800016D1FB6800221A63FB68202283F83D20C4
:10469000FB68002283F83E20FB681B6C43F020027D
:1046A000FB681A64FB68002283F83C20012323E0A6
:1046B000BB681B0CDBB2012B0DD1FB681B685B696F
:1046C000DA43BB6813409BB2002B0CBF01230023CD
:1046D000DBB21A460CE0FB681B689B69DA43BB68D7
:1046E00013409BB2002B0CBF01230023DBB21A4600
:1046F000FB799A4293D0002318461037BD4680BDFF
:1047000080B584B000AFF860B9607A603B6071E05A
:10471000FB681B685B6903F48063B3F5806F23D18A
:10472000FB681B681A68FB681B6842F400721A6019
:10473000FB681B686FF480625A61FB6800221A6391
:10474000FB68202283F83D20FB68002283F83E208E
:10475000FB681B6C43F00402FB681A64FB680022D0
:1047600083F83C20012367E07B68B3F1FF3F41D031
:10477000FEF790FC02463B68D31A7A689A4202D34D
:104780007B68002B36D1BB681B0CDBB2012B0CD134
:10479000FB681B685B69DA43BB6813409BB2002B64
:1047A00014BF01230023DBB20BE0FB681B689B698D
:1047B000DA43BB6813409BB2002B14BF01230023D4
:1047C000DBB2002B16D0FB6800221A63FB682022A4
:1047D00083F83D20FB68002283F83E20FB681B6CB9
:1047E00043F02002FB681A64FB68002283F83C2037
:1047F000012321E0BB681B0CDBB2012B0CD1FB6851
:104800001B685B69DA43BB6813409BB2002B14BF83
:1048100001230023DBB20BE0FB681B689B69DA43D2
:10482000BB6813409BB2002B14BF01230023DBB2F3
:10483000002B7FF46DAF002318461037BD4680BDB6
:1048400080B584B000AFF860B9607A6034E0F86891
:1048500000F0E3F80346002B01D0012334E0BB68ED
:10486000B3F1FF3F28D0FEF715FC02467B68D31A50
:10487000BA689A4202D3BB68002B1DD1FB681B6843
:104880005B6903F08003802B16D0FB6800221A635B
:10489000FB68202283F83D20FB68002283F83E203D
:1048A000FB681B6C43F02002FB681A64FB68002263
:1048B00083F83C20012307E0FB681B685B6903F079
:1048C0008003802BC3D1002318461037BD4680BD1E
:1048D00080B584B000AFF860B9607A6034E0F86801
:1048E00000F09BF80346002B01D0012334E0BB68A5
:1048F000B3F1FF3F28D0FEF7CDFB02467B68D31A09
:10490000BA689A4202D3BB68002B1DD1FB681B68B2
:104910005B6903F00403042B16D0FB6800221A63C2
:10492000FB68202283F83D20FB68002283F83E20AC
:10493000FB681B6C43F02002FB681A64FB680022D2
:1049400083F83C20012307E0FB681B685B6903F0E8
:104950000403042BC3D1002318461037BD4680BD85
:1049600080B584B000AFF860B9607A6049E0FB6858
:104970001B685B6903F01003102B19D1FB681B68DF
:104980006FF010025A61FB6800221A63FB68202254
:1049900083F83D20FB68002283F83E20FB681A6CF8
:1049A000FB681A64FB68002283F83C20012330E096
:1049B000FEF770FB02467B68D31ABA689A4202D3AC
:1049C000BB68002B1DD1FB681B685B6903F04003CB
:1049D000402B16D0FB6800221A63FB68202283F864
:1049E0003D20FB68002283F83E20FB681B6C43F0EF
:1049F0002002FB681A64FB68002283F83C20012334
:104A000007E0FB681B685B6903F04003402BAED1F5
:104A1000002318461037BD4680BD80B483B000AF78
:104A200078607B681B685B6903F48063B3F5806F13
:104A30001BD17B681B686FF480625A617B6800221F
:104A40001A637B68202283F83D207B68002283F86C
:104A50003E207B681B6C43F004027B681A647B6811
:104A6000002283F83C20012300E0002318460C3785
:104A7000BD465DF8047B704780B586B002AF7860B4
:104A80007B68002B01D1012301E17B681B68BB60BF
:104A90007B6893F89534DBB2002B06D17B6800224B
:104AA00083F89424786807F05BFD7B68032283F821
:104AB0009524BB68B3F1A04F02D17B6800229A71A4
:104AC0007B681B68184604F010F97B6818687B68DF
:104AD0001A7C8DF8002004330ECB03F0EFFF034661
:104AE000002B05D07B68022283F895240123CEE0B9
:104AF0007B681B680021184604F008F90346002B68
:104B000005D07B68022283F895240123BFE00023AF
:104B1000FB734AE0FA7B79681346DB0013449B0081
:104B20000B44153301221A70FA7B79681346DB00B7
:104B300013449B000B441433FA7B1A70FA7BFB7B03
:104B400098B279681346DB0013449B000B442E3364
:104B500002461A80FA7B79681346DB0013449B00F7
:104B60000B44183300221A70FA7B79681346DB0075
:104B700013449B000B441C3300221A60FA7B7968B3
:104B80001346DB0013449B000B44203300221A60C1
:104B9000FA7B79681346DB0013449B000B442433F3
:104BA00000221A60FB7B0133FB737B681B79FA7B65
:104BB0009A42AFD30023FB7344E0FA7B7968134633
:104BC000DB0013449B000B4403F2552300221A70B0
:104BD000FA7B79681346DB0013449B000B4403F512
:104BE0001573FA7B1A70FA7B79681346DB0013445D
:104BF0009B000B4403F5167300221A70FA7B796848
:104C00001346DB0013449B000B4403F5177300228B
:104C10001A60FA7B79681346DB0013449B000B444F
:104C200003F5187300221A60FA7B79681346DB00DB
:104C300013449B000B4403F5197300221A60FB7B9D
:104C40000133FB737B681B79FA7B9A42B5D37B688F
:104C500018687B681A7C8DF8002004330ECB04F0B2
:104C6000A1F80346002B05D07B68022283F8952427
:104C700001230CE07B6800225A747B68012283F8D0
:104C800095247B681B68184605F0EBF8002318464E
:104C90001037BD4680BD80B584B000AF78607B68BA
:104CA0001B68FB607B6893F89434012B01D10223CD
:104CB00022E07B68012283F89424FB68DB6803F020
:104CC0004003002B09D07B685B7B012B05D1FB687F
:104CD0009B6B43F48032FB689A637B681B681846C1
:104CE00003F0F2FF7B681B68184605F099F87B68B3
:104CF000002283F89424002318461037BD4680BD57
:104D000090B58DB000AF78607B681B683B623B6AF2
:104D1000FB617B681B68184605F057F90346002BBA
:104D200040F08C847B681B68184605F0BBF803468E
:104D3000002B00F08284FB6903F500639B681B0A6B
:104D4000C3F30D027B68C3F8D4247B681B68184644
:104D500005F0A8F8034603F00203022B07D17B6895
:104D60001B685A697B681B6802F002025A617B6803
:104D70001B68184605F096F8034603F01003102B45
:104D800061D17B681B689A697B681B6822F01002FE
:104D90009A613B6A1B6ABB61BB6903F00F02134651
:104DA000DB0013449B0003F514737A681344043347
:104DB0007B61BB6903F4F013B3F5802F24D1BA698A
:104DC00047F6F0731340002B35D07B69D968BB6977
:104DD0001B099BB2C3F30A039BB21A46386A04F05C
:104DE000CDFE7B69DA68BB691B09C3F30A031A4469
:104DF0007B69DA607B695A69BB691B09C3F30A03E3
:104E00001A447B695A6116E0BB6903F4F013B3F5E9
:104E1000402F10D17B6803F29C4308221946386A60
:104E200004F0ACFE7B695A69BB691B09C3F30A0332
:104E30001A447B695A617B681B689A697B681B68A6
:104E400042F010029A617B681B68184605F02AF848
:104E5000034603F40023B3F5002F40F0A78000239E
:104E60007B627B681B68184605F02FF8B86299E0F2
:104E7000BB6A03F00103002B00F08E807B681B6887
:104E80007A6AD2B21146184605F053F838613B6988
:104E900003F00103002B0CD07B6A5A01FB69134419
:104EA00003F530631A4601239360796A786800F04D
:104EB000A3FE3B6903F00803002B0CD07B6A5A0168
:104EC000FB69134403F530631A4608239360796A3B
:104ED000786800F079FF3B6903F01003002B08D0DD
:104EE0007B6A5A01FB69134403F530631A461023A9
:104EF00093603B6903F00203002B30D03B6A5B698F
:104F000003F08003802B09D1FB6903F500635B6824
:104F1000FA6902F5006243F4806353607A6A1346CB
:104F2000DB0013449B0003F514737A6813440433C5
:104F30007B617B69DB78012B08D17B690022DA7009
:104F40007B6ADBB21946786807F010FC7B6A5A016D
:104F5000FB69134403F530631A46022393603B69EF
:104F600003F02003002B08D07B6A5A01FB6913442D
:104F700003F530631A46202393603B6903F4005322
:104F8000002B09D07B6A5A01FB69134403F5306397
:104F90001A464FF4005393607B6A01337B62BB6A0D
:104FA0005B08BB62BB6A002B7FF462AF7B681B6847
:104FB000184604F077FF034603F48023B3F5802FEF
:104FC00040F0DB807B681B68184604F098FFB862ED
:104FD00000237B62CDE0BB6A03F00103002B00F0ED
:104FE000C2807B681B687A6AD2B21146184604F008
:104FF000BEFF38613B6903F00103002B57D07B6A89
:1050000003F00F03012202FA03F3FB60FB6903F5CF
:1050100000635A6BFB68DB43F96901F500611340DB
:105020004B637B6A5A01FB69134403F510631A460C
:10503000012393607B689B79012B32D179687A6A6E
:105040001346DB0013449B000B4420331968786837
:105050007A6A1346DB0013449B0003441C331B682D
:10506000194478687A6A1346DB0013449B000344B2
:10507000203319607B6A002B13D179687A6A134652
:10508000DB0013449B000B4424331B68002B08D126
:105090007B6818687B6803F29C431A46012104F080
:1050A000C5FF7B6ADBB21946786807F0DAFA3B691C
:1050B00003F00803002B08D07B6A5A01FB691344F4
:1050C00003F510631A46082393603B6903F010034D
:1050D000002B08D07B6A5A01FB69134403F5106367
:1050E0001A46102393603B6903F04003002B08D05D
:1050F0007B6A5A01FB69134403F510631A46402387
:1051000093603B6903F00203002B23D0796A386A6D
:1051100003F0ACFF7A6A1346DB0013449B001033A4
:105120007A68134404337B617B69DB78012B08D1F7
:105130007B690022DA707B6ADBB21946786807F077
:1051400027FB7B6A5A01FB69134403F510631A4677
:10515000022393603B6903F08003002B03D0796A3C
:10516000786800F0BDFC7B6A01337B62BB6A5B0838
:10517000BB62BB6A002B7FF42EAF7B681B681846AE
:1051800004F090FE034603F00043B3F1004F22D138
:10519000FB6903F500635B68FA6902F5006223F0BE
:1051A000010353607B6893F8CC34012B08D17B68F2
:1051B000002283F8CC240021786800F0A3FE02E0EE
:1051C000786807F0C5FA7B681B685A697B681B68BA
:1051D00002F000425A617B681B68184604F062FEC8
:1051E000034603F40063B3F5006F12D1FB6903F5C6
:1051F00000639B6803F00103012B02D1786807F07C
:1052000081FA7B681B685A697B681B6802F400623C
:105210005A617B681B68184604F044FE034603F499
:105220008053B3F5805F40F0B780FB6903F50063FE
:105230005B68FA6902F5006223F0010353607B6842
:105240001B681021184603F011FF0023FB6246E0A3
:10525000FB6A5A01FB69134403F510631A464FF6C3
:105260007F339360FB6A5A01FB69134403F51063B3
:105270001B68FA6A5101FA690A4402F5106223F4C4
:1052800000131360FB6A5A01FB69134403F5306392
:105290001A464FF67F339360FB6A5A01FB69134449
:1052A00003F530631B68FA6A5101FA690A4402F592
:1052B000306223F400131360FB6A5A01FB69134444
:1052C00003F530631B68FA6A5101FA690A4402F572
:1052D000306243F000631360FB6A0133FB627B685A
:1052E0001B791A46FB6A9342B2D3FB6903F500634C
:1052F000DB69FA6902F5006243F00113D3617B6850
:10530000DB7B002B16D0FB6903F50063D3F88430F8
:10531000FA6902F5006243F00B03C2F88430FB69BE
:1053200003F500635B6CFA6902F5006243F00B035E
:10533000536415E0FB6903F500635B69FA6902F5E4
:10534000006243F4005343F02B035361FB6903F500
:1053500000631B69FA6902F5006243F00B031361F5
:10536000FB6903F500631B68FA6902F5006223F428
:10537000FE6313607B6818687B6899797B6803F229
:105380009C431A4604F052FE7B681B685A697B688E
:105390001B6802F480525A617B681B68184604F04F
:1053A00081FD034603F40053B3F5005F23D17B680E
:1053B0001B68184604F017FE7B681B68184603F04C
:1053C000CEFE03461A467B68DA717B681C6801F0E2
:1053D00009FA01467B68DB791A46204603F0D2FBC6
:1053E000786807F066F97B681B685A697B681B68F8
:1053F00002F400525A617B681B68184604F052FDA3
:10540000034603F00803082B0AD1786807F043F934
:105410007B681B685A697B681B6802F008025A6146
:105420007B681B68184604F03DFD034603F08003CB
:10543000802B23D13B6A9B6923F080023B6A9A61EF
:1054400001237B6214E079687A6A1346DB00134417
:105450009B000B4403F257231B78012B05D17B6A79
:10546000DBB21946786800F00AFB7B6A01337B6285
:105470007B681B791A467B6A9342E4D37B681B687E
:10548000184604F00FFD034603F48013B3F5801FA4
:105490003CD101237B622BE07B6A5A01FB691344F8
:1054A00003F510631B68BB6179687A6A1346DB00F9
:1054B00013449B000B4418331B78012B15D1BB6997
:1054C000002B12DA79687A6A1346DB0013449B00DA
:1054D0000B44173301221A707B6ADBB263F07F033F
:1054E000DBB21946786800F0CAFA7B6A01337B6246
:1054F0007B681B791A467B6A9342CDD37B681B6815
:105500005A697B681B6802F480125A617B681B68C9
:10551000184604F0C7FC034603F40013B3F5001F5C
:1055200056D101237B6245E07B6A5A01FB69134433
:1055300003F530631B68BB6179687A6A1346DB0048
:1055400013449B000B4403F516731B78012B2ED1DB
:10555000BB69002B2BDABB691A0C7B68D3F8D434F7
:10556000534003F00103002B21D179687A6A134676
:10557000DB0013449B000B4403F2572301221A70F3
:105580003B6A9B6943F080023B6A9A613B6A5B69B4
:1055900003F08003002B0AD1FB6903F500635B680D
:1055A000FA6902F5006243F40073536008E07B6A15
:1055B00001337B627B681B791A467B6A9342B3D3C3
:1055C0007B681B685A697B681B6802F400125A6189
:1055D0007B681B68184604F065FC034603F08043B3
:1055E000B3F1804F0AD1786807F0E4F87B681B6854
:1055F0005A697B681B6802F080425A617B681B68AD
:10560000184604F04FFC034603F00403042B15D1A5
:105610007B681B685B68BB61BB6903F00403002BFC
:1056200002D0786807F0D4F87B681B6859687B68FB
:105630001B68BA690A435A6000E000BF3437BD46B0
:1056400090BD80B582B000AF78600B46FB707B6880
:1056500093F89434012B01D1022312E07B680122DC
:1056600083F894247B68FA785A747B681B68FA780C
:105670001146184604F0AEFB7B68002283F89424A0
:10568000002318460837BD4680BD80B584B000AF02
:105690007860084611461A460346FB700B463B806D
:1056A0001346BB700023FB7297F90330002B0FDA0F
:1056B000FB7803F00F021346DB0013449B0010330A
:1056C0007A6813440433FB60FB6801225A700FE0D0
:1056D000FB7803F00F021346DB0013449B0003F535
:1056E00014737A6813440433FB60FB6800225A7019
:1056F000FB7803F00F03DAB2FB681A703B88C3F340
:105700000A02FB689A60FB68BA781A71FB685B78DA
:10571000002B04D0FB681B781A46FB685A83BB78C1
:10572000022B02D1FB6800225A717B6893F89434F3
:10573000012B01D102230EE07B68012283F894241F
:105740007B681B68F968184603F02EFD7B68002211
:1057500083F89424FB7A18461037BD4680BD80B587
:1057600084B000AF78600B46FB7097F90330002BD4
:105770000FDAFB7803F00F021346DB0013449B00A3
:1057800010337A6813440433FB60FB6801225A70BB
:105790000FE0FB7803F00F021346DB0013449B007D
:1057A00003F514737A6813440433FB60FB6800222A
:1057B0005A70FB7803F00F03DAB2FB681A707B684B
:1057C00093F89434012B01D102230EE07B6801226F
:1057D00083F894247B681B68F968184603F06CFD15
:1057E0007B68002283F89424002318461037BD46B6
:1057F00080BD80B586B000AFF8607A603B600B4634
:10580000FB72FB7A03F00F021346DB0013449B008C
:1058100003F51473FA68134404337B617B697A6877
:10582000DA607B693A681A617B6900225A617B6998
:1058300000225A70FB7A03F00F03DAB27B691A7008
:10584000FB689B79012B02D17A687B69DA61FB687E
:105850001868FB689B791A46796903F009FE0023F2
:1058600018461837BD4680BD80B483B000AF78605D
:105870000B46FB70FB7803F00F0279681346DB00E0
:1058800013449B000B4403F51A731B6818460C372E
:10589000BD465DF8047B704780B586B000AFF86008
:1058A0007A603B600B46FB72FB7A03F00F021346F3
:1058B000DB0013449B001033FA68134404337B610C
:1058C0007B697A68DA607B693A681A617B690022D1
:1058D0005A617B6901225A70FB7A03F00F03DAB236
:1058E0007B691A70FB689B79012B02D17A687B690E
:1058F000DA61FB681868FB689B791A46796903F0DE
:10590000B7FD002318461837BD4680BD80B584B06A
:1059100000AF78600B46FB70FB7803F00F037A68EA
:105920001279934201D901234FE097F90330002BFC
:105930000FDAFB7803F00F021346DB0013449B00E1
:1059400010337A6813440433FB60FB6801225A70F9
:105950000DE0FA781346DB0013449B0003F5147343
:105960007A6813440433FB60FB6800225A70FB68BA
:1059700001229A70FB7803F00F03DAB2FB681A7009
:105980007B6893F89434012B01D102231DE07B68DE
:10599000012283F894247B681B68F968184604F098
:1059A00045F9FB7803F00F03002B09D17B681868D9
:1059B0007B6899797B6803F29C431A4604F036FBB6
:1059C0007B68002283F89424002318461037BD46D4
:1059D00080BD80B584B000AF78600B46FB70FB786B
:1059E00003F00F037A681279934201D9012342E050
:1059F00097F90330002B0FDAFB7803F00F02134600
:105A0000DB0013449B0010337A6813440433FB60BB
:105A1000FB6801225A700FE0FB7803F00F02134677
:105A2000DB0013449B0003F514737A6813440433BA
:105A3000FB60FB6800225A70FB6800229A70FB78BA
:105A400003F00F03DAB2FB681A707B6893F89434A2
:105A5000012B01D102230EE07B68012283F89424FC
:105A60007B681B68F968184604F04EF97B680022D1
:105A700083F89424002318461037BD4680BD80B5B6
:105A800084B000AF78600B46FB7097F90330002BB1
:105A90000CDAFB7803F00F021346DB0013449B0083
:105AA00010337A6813440433FB600CE0FB7803F096
:105AB0000F021346DB0013449B0003F514737A684E
:105AC00013440433FB607B681B68F968184603F0D5
:105AD0006DFF0346FB72FB7A18461037BD4680BD4A
