:020000040800F2
:1000000000000220D9300008D92E0008E12E000897
:10001000E92E0008F12E0008F92E0008000000006B
:10002000000000000000000000000000012F000898
:100030000F2F0008000000001D2F00082B2F0008C4
:100040002931000829310008293100082931000828
:100050002931000829310008293100082931000818
:100060002931000829310008293100082931000808
:1000700029310008293100082931000829310008F8
:1000800029310008293100082931000829310008E8
:1000900029310008293100082931000829310008D8
:1000A00029310008293100082931000829310008C8
:1000B0002931000829310008392F000829310008AA
:1000C00029310008293100082931000829310008A8
:1000D0002931000829310008293100082931000898
:1000E0002931000829310008293100082931000888
:1000F0002931000829310008293100082931000878
:100100002931000829310008293100082931000867
:100110002931000829310008293100082931000857
:100120002931000829310008293100082931000847
:100130002931000829310008293100082931000837
:100140002931000829310008293100084D2F000805
:100150002931000829310008293100082931000817
:100160002931000829310008293100082931000807
:100170002931000829310008293100080000000059
:080180002931000829310008B3
:1001900010B5054C237833B9044B13B10448AFF3C1
:1001A00000800123237010BD8803002000000000A0
:1001B0001405010808B5034B1BB103490348AFF30D
:1001C000008008BD000000008C0300201405010819
:1001D00010F8012B11F8013B012A28BF9A42F7D0F1
:1001E000D01A70470000000000000000000000006E
:1001F00001F0FF01102A2BDB10F0070F08D010F8D8
:10020000013B013A8B422DD010F0070F42B3F6D1DB
:10021000F0B441EA012141EA014122F007047FF0F4
:1002200000070023F0E80256083C85EA010586EA4B
:10023000010685FA47F5A3FA87F586FA47F6A5FA87
:1002400087F68EB9EED1F0BC01F0FF0102F0070293
:1002500032B110F8013B013A83EA010313B1F8D13E
:100260000020704701387047002D06BF354603381F
:10027000073815F0010F07D1013015F4807F02BF58
:10028000013015F4C03F0130F0BC0138704700BFA9
:10029000034613F8012B002AFBD1181A01387047C6
:1002A00081F0004102E000BF83F0004330B54FEA27
:1002B00041044FEA430594EA050F08BF90EA020F94
:1002C0001FBF54EA000C55EA020C7FEA645C7FEA27
:1002D000655C00F0E2804FEA5454D4EB5555B8BF4A
:1002E0006D420CDD2C4480EA020281EA030382EABB
:1002F000000083EA010180EA020281EA0303362D4D
:1003000088BF30BD11F0004F4FEA01314FF4801C1F
:100310004CEA113102D0404261EB410113F0004F31
:100320004FEA03334CEA133302D0524263EB4303E8
:1003300094EA050F00F0A780A4F10104D5F1200E86
:100340000DDB02FA0EFC22FA05F2801841F10001E1
:1003500003FA0EF2801843FA05F359410EE0A5F1B5
:1003600020050EF1200E012A03FA0EFC28BF4CF0E6
:10037000020C43FA05F3C01851EBE37101F000459C
:1003800007D54FF0000EDCF1000C7EEB00006EEBA9
:100390000101B1F5801F1BD3B1F5001F0CD3490833
:1003A0005FEA30004FEA3C0C04F101044FEA44528A
:1003B00012F5800F80F09A80BCF1004F08BF5FEA11
:1003C000500C50F1000041EB045141EA050130BDF1
:1003D0005FEA4C0C404141EB0101013C28BFB1F503
:1003E000801FE9D291F0000F04BF01460020B1FA4E
:1003F00081F308BF2033A3F10B03B3F120020CDA21
:100400000C3208DD02F1140CC2F10C0201FA0CF0FE
:1004100021FA02F10CE002F11402D8BFC2F1200C63
:1004200001FA02F120FA0CFCDCBF41EA0C01904019
:10043000E41AA2BF01EB0451294330BD6FEA040462
:100440001F3C1CDA0C340EDC04F11404C4F120024D
:1004500020FA04F001FA02F340EA030021FA04F35F
:1004600045EA030130BDC4F10C04C4F1200220FAB6
:1004700002F001FA04F340EA0300294630BD21FAF4
:1004800004F0294630BD94F0000F83F4801306BFBA
:1004900081F480110134013D4EE77FEA645C18BFAE
:1004A0007FEA655C29D094EA050F08BF90EA020F45
:1004B00005D054EA000C04BF1946104630BD91EA3D
:1004C000030F1EBF0021002030BD5FEA545C05D140
:1004D0004000494128BF41F0004130BD14F580047F
:1004E0003CBF01F5801130BD01F0004545F0FE41F3
:1004F00041F470014FF0000030BD7FEA645C1ABF28
:10050000194610467FEA655C1CBF0B46024650EA5E
:10051000013406BF52EA033591EA030F41F400218A
:1005200030BD00BF90F0000F04BF0021704730B510
:100530004FF4806404F132044FF000054FF00001E5
:1005400050E700BF90F0000F04BF0021704730B5A6
:100550004FF4806404F1320410F0004548BF40427B
:100560004FF000013EE700BF42004FEAE2014FEAD0
:1005700031014FEA02701FBF12F07F4393F07F4FAB
:1005800081F06051704732F07F4208BF704793F0AE
:100590007F4F04BF41F40021704730B54FF46074C1
:1005A00001F0004521F000411CE700BF50EA0102C4
:1005B00008BF704730B54FF000050AE050EA01026D
:1005C00008BF704730B511F0004502D5404261EBDD
:1005D00041014FF4806404F132045FEA915C3FF41E
:1005E000D8AE4FF003025FEADC0C18BF03325FEABB
:1005F000DC0C18BF033202EBDC02C2F1200300FA6C
:1006000003FC20FA02F001FA03FE40EA0E0021FA90
:1006100002F11444BDE600BF70B54FF0FF0C4CF47E
:10062000E06C1CEA11541DBF1CEA135594EA0C0F30
:1006300095EA0C0F00F0DEF82C4481EA030621EA6B
:100640004C5123EA4C5350EA013518BF52EA0335A6
:1006500041F4801143F4801338D0A0FB02CE4FF058
:100660000005E1FB02E506F00042E0FB03E54FF088
:100670000006E1FB03569CF0000F18BF4EF0010E80
:10068000A4F1FF04B6F5007F64F5407404D25FEA7C
:100690004E0E6D4146EB060642EAC62141EA55512F
:1006A0004FEAC52040EA5E504FEACE2EB4F1FD0C71
:1006B00088BFBCF5E06F1ED8BEF1004F08BF5FEAEF
:1006C000500E50F1000041EB045170BD06F00046A1
:1006D00046EA010140EA020081EA0301B4EB5C044E
:1006E000C2BFD4EB0C0541EA045170BD41F4801146
:1006F0004FF0000E013C00F3AB8014F1360FDEBF6B
:10070000002001F0004170BDC4F10004203C35DA46
:100710000C341BDC04F11404C4F1200500FA05F3C9
:1007200020FA04F001FA05F240EA020001F000426A
:1007300021F0004110EBD37021FA04F642EB0601E0
:100740005EEA430E08BF20EAD37070BDC4F10C040A
:10075000C4F1200500FA04F320FA05F001FA04F2CE
:1007600040EA020001F0004110EBD37041F10001BA
:100770005EEA430E08BF20EAD37070BDC4F12005C5
:1007800000FA05F24EEA020E20FA04F301FA05F22D
:1007900043EA020321FA04F001F0004121FA04F2D5
:1007A00020EA020000EBD3705EEA430E08BF20EAA5
:1007B000D37070BD94F0000F0FD101F000464000DF
:1007C00041EB010111F4801F08BF013CF7D041EA61
:1007D000060195F0000F18BF704703F00046520065
:1007E00043EB030313F4801F08BF013DF7D043EA36
:1007F0000603704794EA0C0F0CEA135518BF95EAEC
:100800000C0F0CD050EA410618BF52EA4306D1D172
:1008100081EA030101F000414FF0000070BD50EA91
:10082000410606BF1046194652EA430619D094EA1B
:100830000C0F02D150EA013613D195EA0C0F05D105
:1008400052EA03361CBF104619460AD181EA030159
:1008500001F0004141F0FE4141F470014FF0000011
:1008600070BD41F0FE4141F4780170BD70B54FF0AC
:10087000FF0C4CF4E06C1CEA11541DBF1CEA13552C
:1008800094EA0C0F95EA0C0F00F0A7F8A4EB05040E
:1008900081EA030E52EA03354FEA013100F0888005
:1008A0004FEA03334FF0805545EA131343EA1263CE
:1008B0004FEA022245EA111545EA10654FEA002683
:1008C0000EF000419D4208BF964244F1FD0404F53C
:1008D000407402D25B084FEA3202B61A65EB030598
:1008E0005B084FEA32024FF480104FF4002CB6EB55
:1008F000020E75EB030E22BFB61A754640EA0C00D5
:100900005B084FEA3202B6EB020E75EB030E22BF14
:10091000B61A754640EA5C005B084FEA3202B6EB55
:10092000020E75EB030E22BFB61A754640EA9C0014
:100930005B084FEA3202B6EB020E75EB030E22BFE4
:10094000B61A754640EADC0055EA060E18D04FEAA2
:10095000051545EA16754FEA06164FEAC30343EA42
:1009600052734FEAC2025FEA1C1CC0D111F4801F0F
:100970000BD141EA00014FF000004FF0004CB6E708
:1009800011F4801F04BF01430020B4F1FD0C88BFA7
:10099000BCF5E06F3FF6AFAEB5EB030C04BFB6EBB2
:1009A000020C5FEA500C50F1000041EB045170BDA5
:1009B0000EF0004E4EEA113114EB5C04C2BFD4EBD2
:1009C0000C0541EA045170BD41F480114FF0000E56
:1009D000013C90E645EA060E8DE60CEA135594EAD2
:1009E0000C0F08BF95EA0C0F3FF43BAF94EA0C0FD5
:1009F0000AD150EA01347FF434AF95EA0C0F7FF44A
:100A000025AF104619462CE795EA0C0F06D152EA9D
:100A100003353FF4FDAE1046194622E750EA410681
:100A200018BF52EA43067FF4C5AE50EA41047FF492
:100A30000DAF52EA43057FF4EBAE12E74FF0FF3CF7
:100A400006E000BF4FF0010C02E000BF4FF0010CC8
:100A50004DF804CD4FEA410C7FEA6C5C4FEA430C41
:100A600018BF7FEA6C5C1BD001B050EA410C0CBF90
:100A700052EA430C91EA030F02BF90EA020F0020F2
:100A8000704710F1000F91EA030F58BF994208BF59
:100A900090422CBFD8176FEAE37040F00100704716
:100AA0004FEA410C7FEA6C5C02D150EA013C07D16D
:100AB0004FEA430C7FEA6C5CD6D152EA033CD3D0B8
:100AC0005DF8040B704700BF8446104662468C46B2
:100AD0001946634600E000BF01B5FFF7B7FF0028E5
:100AE00048BF10F1000F01BD4DF808EDFFF7F4FF0E
:100AF0000CBF012000205DF808FB00BF4DF808ED99
:100B0000FFF7EAFF34BF012000205DF808FB00BFBB
:100B10004DF808EDFFF7E0FF94BF012000205DF8DD
:100B200008FB00BF4DF808EDFFF7CEFF94BF012092
:100B300000205DF808FB00BF4DF808EDFFF7C4FF8B
:100B400034BF012000205DF808FB00BF4FEA410CD4
:100B50007FEA6C5C02D150EA013C0AD14FEA430CB7
:100B60007FEA6C5C02D152EA033C02D14FF00000F4
:100B700070474FF0010070474FEA410212F5001232
:100B800015D211D56FF47873B3EB625212D94FEAD4
:100B9000C12343F0004343EA505311F0004F23FABE
:100BA00002F018BF404270474FF00000704750EA13
:100BB000013005D111F0004008BF6FF000407047D0
:100BC0004FF00000704700BF4A0011D212F500122A
:100BD00011D20DD56FF47873B3EB62520ED44FEA95
:100BE000C12343F0004343EA505323FA02F0704715
:100BF0004FF00000704750EA013002D14FF0FF3053
:100C000070474FF0000070474FEA4102B2F1E043F5
:100C100024BFB3F5001CDCF1FE5C0DD901F0004CE3
:100C20004FEAC0024CEA5070B2F1004F40EB830033
:100C300008BF20F00100704711F0804F21D113F15F
:100C40003872BCBF01F00040704741F480114FEA98
:100C50005252C2F11802C2F1200C10FA0CF320FA21
:100C600002F018BF40F001004FEAC1234FEAD3233E
:100C700003FA0CFC40EA0C0023FA02F34FEA4303A8
:100C8000CCE77FEA625307D150EA01331EBF4FF031
:100C9000FE4040F44000704701F0004040F0FE404C
:100CA00040F40000704700BF53B94AB9002908BF9B
:100CB00000281CBF4FF0FF314FF0FF3000F0BEB9ED
:100CC000ADF1080C6DE904CE00F03CF8DDF804E06D
:100CD000DDE9022304B0704738B500220023044642
:100CE0000D46FFF70BFF28B920462946BDE83840DE
:100CF00000F00AB8204605F1004100F005F8404236
:100D000061EB410138BD00BFD0B50C4B0022064657
:100D10000F46FFF781FCFFF757FF0446FFF702FC81
:100D2000074B0022FFF778FC02460B463046394657
:100D3000FFF7BAFAFFF748FF2146D0BD0000F03DAB
:100D40000000F0412DE9F047089D8E460446884694
:100D5000002B4AD18A42174662D9B2FA82F64EB1C6
:100D6000C6F1200301FA06F820FA03F3B74043EA7C
:100D70000808B4404FEA174E1FFA87FCB8FBFEF193
:100D8000230C0EFB118843EA084301FB0CF29A4244
:100D900009D9FB1801F1FF3080F0EA809A4240F255
:100DA000E78002393B449A1AA3B2B2FBFEF00EFB75
:100DB000102243EA024300FB0CFC9C4509D9FB18B6
:100DC00000F1FF3280F0D6809C4540F2D3803B4456
:100DD000023840EA0140A3EB0C0300211DB1F340AF
:100DE0000022C5E90032BDE8F0878B4205D90DB17C
:100DF000C5E9000100210846F5E7B3FA83F10029AF
:100E000046D1734502D3824200F20581841A6EEB0B
:100E1000030201209046002DE5D0C5E90048E2E735
:100E2000002A00F09080B2FA82F6002E40F0A480F2
:100E30008A1A030C4FEA174E80B2BCB20121B2FBF2
:100E4000FEFC0EFB1C2243EA024304FB0CF29A4216
:100E500007D9FB180CF1FF3802D29A4200F2E08069
:100E6000C4469B1AB3FBFEF20EFB123340EA034367
:100E700002FB04F49C4207D9FB1802F1FF3002D2B6
:100E80009C4200F2CA8002461B1B42EA0C40A5E7C6
:100E9000C1F120068B4022FA06F71F430EFA01F437
:100EA00020FA06F32EFA06FE4FEA1749234300FA0A
:100EB00001F81FFA87FCBEFBF9F01C0C09FB10EED1
:100EC00044EA0E4400FB0CFEA64502FA01F209D9E1
:100ED0003C1900F1FF3A80F09C80A64540F29980D1
:100EE00002383C44A4EB0E041FFA83FEB4FBF9F372
:100EF00009FB13444EEA044403FB0CFCA44508D947
:100F00003C1903F1FF3E80F08280A4457FD9023B6B
:100F10003C4443EA0040A4EB0C04A0FB02EC644513
:100F20007346E14662D35FD05DB1B8EB030264EB78
:100F3000090404FA06F622FA01F31E43CC40C5E97F
:100F4000006400214FE7B1FBF2FC010C41EA0E41C5
:100F500080B240EA01423B4638463C46B846BE466F
:100F60002026B1FBF7F1A2EB080241EA0C4166E74B
:100F7000014618E710462CE7C6F120022EFA02F3CC
:100F8000B740B14020FA02F24FEA174E0A43B3FBD2
:100F9000FEF8BCB20EFB1833110C41EA034108FB0A
:100FA00004F9B04089454FEA104380B23ED9791820
:100FB00008F1FF3C01D289451FD8A1EB0901B1FB23
:100FC000FEF909FB04F80EFB191192B242EA014244
:100FD000424529D2BA1809F1FF31C4D24245C2D2E2
:100FE000A9F102013A44BEE7F0459DD2BEEB0203EF
:100FF0006CEB070C0138E14696E7A7EB0909494479
:10100000A8F1020CB1FBFEF909FB04F8DBE773461B
:101010007FE7504666E70846FDE63B44023A33E781
:10102000ACF1020C3B441CE749469CE7A1EB0901EB
:10103000C446B1FBFEF909FB04F8C4E7704700BFE2
:1010400080B584B000AFF860B9607A6000BF7B689B
:101050009BB21946B8680AF0BFF90346012BF6D0D7
:101060007B6818461037BD4680BD000080B582B051
:1010700000AF786039603A6879680B480CF055FC2D
:10108000094A3B68134400221A703B68DAB2074BE6
:101090001A70032106480AF09FF9064B01221A70C4
:1010A00000BF0837BD4680BD840600202100002017
:1010B00024000020B606002080B483B000AF786022
:1010C0007B681B68054A934202D1054B01221A70C6
:1010D00000BF0C37BD465DF8047B70470008004038
:1010E00080060020000000002DE9B0432DED028BAA
:1010F0008AB002AF02F01AF800F07AFA00F01CFD94
:101100000AF09EF800F0DEFA00F00AFB00F0A8FBFF
:1011100000F01CFC00F0BCFC00F06CFC0021B048AE
:1011200005F0BAFC0021AF4805F0B6FC3C21AE4802
:1011300005F020FE3C21AD4805F01CFEAC4805F052
:10114000E1FBAC49AC4800F027FFAC49AC4800F0EB
:1011500079FEAC4BD3ED007AAB4B93ED007AAB4B01
:10116000D3ED006A01230093B0EE661AF0EE470A51
:10117000B0EE670AA64BA74A9E49A74801F07EFB3E
:10118000A64BD3ED007AA64B93ED007AA54BD3ED99
:10119000006A00230093B0EE661AF0EE470AB0EE44
:1011A000670AA14BA14A9549A14801F067FB6FF07E
:1011B0006303009364236FF013021421964801F037
:1011C000EBFB6FF06303009364236FF01D021E219D
:1011D000974801F0E1FB02F00FF80346954A1360CF
:1011E00002F00AF807EE900AF8EE677AC7ED077A80
:1011F000914B1B78002B00F0E380904990480CF055
:10120000C1FAB8618F49B869FEF7E2FF0346002BC7
:101210002AD18A4900200CF0B5FAB860874900202D
:101220000CF0B0FA7860854900200CF0ABFA386019
:10123000B8680AF030FDB0EE408A78680AF02BFDFD
:10124000F0EE408A38680AF026FDF0EE407AB0EE03
:10125000671AF0EE680AB0EE480A6F4801F052FBD8
:1012600079480CF095F9A8E07849B869FEF7B0FF25
:101270000346002B49D1684BD3ED017AF0EEE77AB3
:1012800017EE900AFFF770F902460B4670480CF013
:1012900017F9614B9B681846FFF766F94EA3D3E92F
:1012A0000023FFF7E3FA02460B46144623F00045FD
:1012B00022462B4667480CF003F9574BDB6818466B
:1012C000FFF752F944A3D3E90023FFF7A5F902463B
:1012D0000B46904623F0004942464B465E480CF0D0
:1012E000EFF8444BD3E900235C480CF0E9F8444B99
:1012F0005B881BB219465A480CF0E2F8594B1B7830
:10130000194659480CF0DCF857E05849B869FEF71F
:101310005FFF0346002B0FD1484900200CF032FA42
:10132000F860F8680AF0BAFC0346DAB2504B1A705B
:1013300045480CF02DF940E04E49B869FEF748FFEA
:101340000346002B12D13D4900200CF01BFA3861F6
:1013500038690AF09DFCB0EE407AF0EE607A464BB8
:1013600083ED007B38480CF013F926E04349B86957
:10137000FEF72EFF0346002B12D1304900200CF05F
:1013800001FA786178690AF083FCB0EE407AF0EEF9
:10139000607A254B83ED007B2B480CF0F9F80CE0CC
:1013A0003749B869FEF714FF0346002B05D13548CD
:1013B0000CF0EEF834480CF0EBF81F4B00221A70DA
:1013C000284B1B78682B61D001F042FA09490A4882
:1013D00000F0E2FDEDE000BF7B14AE47E17A843F10
:1013E000F803002040040020880400201805002095
:1013F000D004002050060020600500205806002080
:10140000C0050020100000207C06002014000020F1
:101410007006002060060020D00500200800002093
:101420000C00002078060020000000206806002044
:1014300010060020E0060020B60600203005010856
:10144000840600203405010838050108400501081C
:1014500044050108500501085C05010868050108FC
:1014600074050108C90600208005010894050108DB
:101470002000002098050108180000209C050108A4
:10148000A0050108A4050108C0050108494800F0AD
:1014900047FF494B1B78002B16D04849484800F0BD
:1014A000DFFC484801F097FA474BD3E90001474B6E
:1014B000D3E90023FEF7F8FE02460B464449C1E992
:1014C00000233D4B00221A70424B93ED007BB0EE9F
:1014D000470AF0EE670A3A4800F01EFD384B9B8839
:1014E0009BB2DBB2364A528812B292B2194602203F
:1014F00000F042FC324B9B68D3E900014FF0000240
:10150000354BFFF719FB0346002B4ED02C4B9B6845
:10151000D3E900014FF00002304BFFF7EFFA03462A
:10152000002B42D02E4BD3ED007AF5EE407AF1EE4F
:1015300010FA3AD02B4BD3ED007AF5EE407AF1EE6B
:1015400010FA09D101F058FE07EE900AF8EE677A1A
:10155000244BC3ED007A2CE001F04EFE07EE900A1A
:10156000B8EE677A1F4BD3ED007A77EE677A9FED7E
:101570001E7AF4EEC77AF1EE10FA00DA19E001F003
:101580003BFE07EE900AB8EE677AD7ED077A77EE62
:10159000677A9FED157A77EEC77A144BC3ED007A20
:1015A0000F4B4FF000021A6003E00E4B4FF00002A9
:1015B0001A601DE6600500208006002088040020D7
:1015C000C005002010060020580600200000002062
:1015D000C0060020680600200000224000002640CF
:1015E00028000020BC06002000007A44B806002035
:1015F00080B594B000AF07F12003302200211846D7
:101600000CF0A6F807F10C0300221A605A609A60E9
:10161000DA601A610023BB60284B1B6C274A43F039
:1016200080531364254B1B6C03F08053BB60BB6875
:1016300000237B60224B1B68214A43F480431360E4
:101640001F4B1B6803F480437B607B6801233B6274
:101650004FF480337B620223BB634FF48003FB6350
:1016600004233B6448237B640223BB640323FB64A1
:1016700007F12003184604F071FC0346002B01D04B
:1016800000F0DCFA0F23FB6002233B6100237B6147
:101690004FF48053BB614FF48053FB6107F10C039F
:1016A0000221184604F0D2FE0346002B01D000F0C0
:1016B000C5FA00BF5037BD4680BD00BF00380240AC
:1016C0000070004080B500AF124B134A1A60114BF6
:1016D000124A5A600F4B00229A600E4B0022DA60C9
:1016E0000C4B4FF480421A610A4B00225A61094B9D
:1016F00000229A61074B0022DA61064B00221A622F
:10170000044802F085F90346002B01D000F096FA58
:1017100000BF80BDA403002000540040A08601004B
:1017200080B596B000AF07F1480300221A605A60F6
:101730009A60DA6007F1400300221A605A6007F1EC
:10174000240300221A605A609A60DA601A615A61B2
:101750009A613B1D2022002118460BF0F9FF3E4BF9
:101760003E4A1A603C4B47225A603B4B00229A602B
:10177000394B40F2E732DA60374B00221A61364BC0
:1017800000225A61344B00229A61334805F06AF80E
:101790000346002B01D000F051FA4FF48053BB6494
:1017A00007F1480319462C4805F024FD0346002B99
:1017B00001D000F043FA284805F014F90346002B45
:1017C00001D000F03BFA00233B6400237B6407F167
:1017D00040031946204806F013F90346002B01D0B8
:1017E00000F02CFA60237B620023BB620023FB62C3
:1017F00000233B6300237B630023BB630023FB6365
:1018000007F1240300221946134805F031FC034672
:10181000002B01D000F012FA00237B600023BB6094
:101820000023FB6000233B6100237B614FF40053E6
:10183000BB6100233B623B1D1946074806F05CF97B
:101840000346002B01D000F0F9F9034801F0E4FA57
:1018500000BF5837BD4680BDF8030020000001409E
:1018600080B58EB000AF07F1280300221A605A60DD
:101870009A60DA6007F1200300221A605A603B1D6B
:1018800000221A605A609A60DA601A615A619A619D
:101890002D4B4FF080421A602B4B47225A602A4B47
:1018A00000229A60284B40F2E732DA60264B002291
:1018B0001A61254B00229A61234804F0D3FF0346A6
:1018C000002B01D000F0BAF94FF48053BB6207F14E
:1018D000280319461C4805F08DFC0346002B01D057
:1018E00000F0ACF9184805F07DF80346002B01D054
:1018F00000F0A4F900233B6200237B6207F1200380
:101900001946114806F07CF80346002B01D000F080
:1019100095F960237B600023BB600023FB600023FC
:101920007B613B1D00221946074805F0A1FB0346D9
:10193000002B01D000F082F9034801F06DFA00BFDE
:101940003837BD4680BD00BF4004002080B58CB054
:1019500000AF07F10C032422002118460BF0F8FE1B
:101960003B1D00221A605A60204B214A1A601F4B0F
:1019700000225A601D4B00229A601C4B4FF6FF72EA
:10198000DA601A4B00221A61184B00229A61032375
:10199000FB6000233B6101237B610023BB610023CB
:1019A000FB6100233B6201237B620023BB620023B7
:1019B000FB6207F10C0319460C4805F035F90346A4
:1019C000002B01D000F03AF900237B600023BB60BC
:1019D0003B1D1946054806F013F80346002B01D0BD
:1019E00000F02CF900BF3037BD4680BD88040020D0
:1019F0000004004080B586B000AF07F10803002264
:101A00001A605A609A60DA603B4600221A605A6097
:101A10001D4B1E4A1A601C4B41F61F425A601A4B5E
:101A200000229A60184B6322DA60174B00221A6179
:101A3000154B00229A61144804F014FF0346002B52
:101A400001D000F0FBF84FF48053BB6007F10803AE
:101A500019460D4805F0CEFB0346002B01D000F0DF
:101A6000EDF800233B6000237B603B4619460648A7
:101A700005F0C6FF0346002B01D000F0DFF800BFE1
:101A80001837BD4680BD00BFD004002000080040CC
:101A900080B58CB000AF07F10C032422002118465A
:101AA0000BF056FE3B1D00221A605A60204B214A63
:101AB0001A601F4B00225A601D4B00229A601C4B7B
:101AC0004FF0FF32DA601A4B00221A61184B0022E5
:101AD0009A610323FB6000233B6101237B610023A8
:101AE000BB610023FB6100233B6201237B62002377
:101AF000BB620023FB6207F10C0319460C4805F09A
:101B000093F80346002B01D000F098F800237B6087
:101B10000023BB603B1D1946054805F071FF0346D5
:101B2000002B01D000F08AF800BF3037BD4680BDE1
:101B300018050020000C004080B58AB000AF07F106
:101B4000140300221A605A609A60DA601A61002356
:101B50003B61374B1B6B364A43F080031363344BB6
:101B60001B6B03F080033B613B690023FB60304B40
:101B70001B6B2F4A43F0010313632D4B1B6B03F0C8
:101B80000103FB60FB680023BB60294B1B6B284AE9
:101B900043F004031363264B1B6B03F00403BB6089
:101BA000BB6800237B60224B1B6B214A43F002037E
:101BB00013631F4B1B6B03F002037B607B680023E6
:101BC0003B601B4B1B6B1A4A43F010031363184B0B
:101BD0001B6B03F010033B603B680022302115486B
:101BE00001F0FCFE00220321134801F0F7FE302330
:101BF0007B610123BB610023FB6102233B6207F190
:101C0000140319460B4801F039FC03237B610123BF
:101C1000BB610023FB6102233B6207F114031946F9
:101C2000054801F02BFC00BF2837BD4680BD00BF32
:101C300000380240000802400004024080B400AFB7
:101C400072B600BF00BFFDE780B500AF01220121E1
:101C5000044801F0C3FE00220221024801F0BEFE4A
:101C600000BF80BD0004024080B500AF00221021FB
:101C7000044801F0B3FE01222021024801F0AEFE2B
:101C800000BF80BD0008024080B500AF00220121E6
:101C9000044801F0A3FE01220221024801F09EFE49
:101CA00000BF80BD0004024080B500AF01221021BA
:101CB000044801F093FE00222021024801F08EFE2C
:101CC00000BF80BD0008024080B500AF00220121A6
:101CD000044801F083FE00220221024801F07EFE4A
:101CE00000BF80BD0004024080B500AF002210217B
:101CF000044801F073FE00222021024801F06EFE2C
:101D000000BF80BD0008024080B485B000AF03462C
:101D1000FB80FB88642B01D96423FB80FB881A4677
:101D2000920013445B00FB81044B1B68FA895A63E1
:101D300000BF1437BD465DF8047B7047F8030020F0
:101D400080B485B000AF0346FB80FB88642B01D9CB
:101D50006423FB80FB881A46920013445B00FB81DE
:101D6000044B1B68FA895A6300BF1437BD465DF8FF
:101D7000047B70474004002080B582B000AF03466A
:101D8000FB710B46BB711346BB80BB88502B01D93E
:101D90005023BB80FB79022B2CD0022B47DC002B7D
:101DA00002D0012B13D042E0BB79022B02D1FFF706
:101DB0008BFF40E0BB79002B02D1FFF745FF01E02C
:101DC000FFF762FFBB881846FFF79EFF33E0BB7941
:101DD000022B02D1FFF788FF2DE0BB79002B02D147
:101DE000FFF742FF01E0FFF75FFFBB881846FFF7F0
:101DF000A7FF20E0BB79022B04D1FFF765FFFFF7B7
:101E000073FF18E0BB79002B04D1FFF71DFFFFF72C
:101E10002BFF03E0FFF738FFFFF746FFBB881846AC
:101E2000FFF772FFBB881846FFF78AFF03E00448FC
:101E30000BF0AEFB00BF00BF0837BD4680BD00BF42
:101E4000E405010880B483B000AF786039607B6836
:101E50003A689A6000BF0C37BD465DF8047B704756
:101E60002DE9904387B000AF786039603B681B680C
:101E70005B6A3B617B681B881BB21A463B699B1AF5
:101E80007B617B69B3F5004F03DB7B69A3F580338E
:101E90007B617B6913F5004F03DA7B6903F58033BF
:101EA0007B613B691AB27B681A801A4BFB60B7EE04
:101EB000007AD7ED037A77EE677A17EE900AFEF78D
:101EC00053FB7B689B68D3E90023FEF7A5FB024622
:101ED0000B46904699467B6907EE903AB8EEE77A52
:101EE000D7ED037A67EE277A17EE900AFEF73CFBF0
:101EF00002460B4679688C6840464946FEF7D6F99B
:101F000002460B46C4E9002300BF1C37BD46BDE8AE
:101F1000908300BFCDCCCC3DF0B587B000AF7861E9
:101F200087ED020B01231E464FF000024FF0000325
:101F3000D7E90201FEF700FE0346002B01D1002382
:101F40001E46F3B283F00103DBB29AB27B699A803A
:101F5000BB683B60FB6823F000437B604FF00002EE
:101F60000C4BD7E90001FEF7E7FD0346002B01D03B
:101F7000642209E0BC68FB6823F00045204629463E
:101F8000FEF7FAFD03461AB27B695A8000BF1C3780
:101F9000BD46F0BD0000594080B588B004AF786000
:101FA00039607B683A689A65642001F031F94FF432
:101FB0007A7302930123019307F10F030093012326
:101FC0007522D021264801F091FFFA7B254B1A702B
:101FD000FB7B682B3FD10023BB734FF47A730293D2
:101FE0000123019307F10E03009301236B22D021FB
:101FF0001B4801F081FE0723BB734FF47A730293F1
:102000000123019307F10E03009301231922D0212C
:10201000134801F071FE0023BB734FF47A730293EF
:102020000123019307F10E03009301231C22D02109
:102030000B4801F061FE0023BB734FF47A730293E7
:102040000123019307F10E03009301231B22D021EA
:10205000034801F051FE00BF1037BD4680BD00BFF0
:10206000A4030020C9060020B0B596B000AFF86107
:1020700087ED040B87ED021B87ED002BFB69D3E98D
:102080000823D7E90201FEF70FF902460B46C7E91C
:102090001423FB69D3E90645D7E91423D7E90001E6
:1020A000FEF7BAFA02460B4620462946FEF7FEF82E
:1020B00002460B46F969C1E90623FB69D3E90A45E3
:1020C000FB69D3E91001D7E90023FEF7A5FA024620
:1020D0000B4610461946FB69D3E90C23FEF7E4F8DA
:1020E00002460B4610461946FB69D3E90E23FEF75C
:1020F000DBF802460B4610461946FB69D3E900237C
:10210000FEF7D4F802460B4610461946D7E90023DD
:10211000FEF782FA02460B4620462946FEF7C6F82D
:1021200002460B46F969C1E90A23FB69D3E90C456C
:10213000FB69D3E91001D7E90023FEF76DFA0246E7
:102140000B4620462946FEF7AFF802460B46F969D2
:10215000C1E90C23FB69D3E90E45FB69D3E9100102
:10216000D7E90023FEF758FA02460B4620462946D7
:10217000FEF79AF802460B46F969C1E90E23FB699E
:10218000D3E91045FB69D3E90201D7E90023FEF743
:1021900043FA02460B4620462946FEF787F80246D8
:1021A0000B46F969C1E91023FB69D3E90A01FB6910
:1021B000D3E90423FEF77AF802460B46C7E9122357
:1021C000FB69D3E90A01D7E91223FEF74FFB024668
:1021D0000B46C7E90823FB69D3E90E01D7E91223AF
:1021E000FEF744FB02460B46C7E90A23FB69D3E925
:1021F0000623D7E90401FEF757F802460B46C7E964
:102200001023FB69D3E90645D7E90801D7E9102374
:10221000FEF702FA02460B4620462946FEF746F82C
:1022200002460B46F969C1E90623FB69D3E9084573
:10223000D7E90A01D7E91023FEF7EEF902460B466B
:1022400020462946FEF732F802460B46F969C1E9F5
:102250000823FB69D3E90A23C7E90E23FB69D3E905
:102260000C23C7E90C23FB69D3E90A45D7E9080128
:10227000D7E90E23FEF7D0F902460B462046294641
:10228000FEF712F802460B46F969C1E90A23FB6919
:10229000D3E90C45D7E90801D7E90C23FEF7BCF9CF
:1022A00002460B4620462946FDF7FEFF02460B4636
:1022B000F969C1E90C23FB69D3E90E45D7E90A01A5
:1022C000D7E90E23FEF7A8F902460B462046294619
:1022D000FDF7EAFF02460B46F969C1E90E23FB69E7
:1022E000D3E91045D7E90A01D7E90C23FEF794F9A1
:1022F00002460B4620462946FDF7D6FF02460B460E
:10230000F969C1E91023FB69D3E9062343EC172BD4
:10231000B0EE470AF0EE670A5837BD46B0BD000080
:102320002DE9B04F94B004AF7860052000F070FF45
:102330004FF47A7302930E23019307F1080300937D
:1023400001233B22D021A04801F0D0FD03461A46CC
:102350009E4B1A709D4B1B78002B0ED000F00CFA90
:10236000994801F099FC032000F052FF964801F0D3
:102370004FFB974B00221A70E7E1954B68221A70C9
:102380003B7A1BB21B021AB27B7A1BB213431AB2FE
:102390007B681A80BB7A1BB21B021AB2FB7A1BB293
:1023A00013431AB27B685A803B7B1BB21B021AB2E2
:1023B0007B7B1BB213431AB27B689A80BB7B1BB238
:1023C0001B021AB2FB7B1BB21343FB863B7C1BB286
:1023D0001B021AB27B7C1BB213431AB27B681A84AD
:1023E000BB7C1BB21B021AB2FB7C1BB213431AB29A
:1023F0007B685A843B7D1BB21B021AB27B7D1BB2E9
:1024000013431AB27B689A847B68B3F9003018468C
:10241000FEF798F84FF000026E4BFEF727FA0246DF
:102420000B467968C1E902237B68B3F9023018468C
:10243000FEF788F84FF00002664BFEF717FA0246E7
:102440000B467968C1E904237B68B3F90430184668
:10245000FEF778F856A3D3E90023FEF707FA024601
:102460000B467968C1E90623B7F9363007EE903A92
:10247000B8EEE77ADFED586AC7EE267A9FED577A15
:1024800077EE877A7B68C3ED107A7B68B3F92030EA
:102490001846FEF757F848A3D3E90023FEF7E6F9FC
:1024A00002460B467968C1E90A237B68B3F92230FA
:1024B0001846FEF747F840A3D3E90023FEF7D6F904
:1024C00002460B467968C1E90C237B68B3F92430D6
:1024D0001846FEF737F838A3D3E90023FEF7C6F90C
:1024E00002460B467968C1E90E2300F085FE0246DC
:1024F0003B4B1B68D31A1846FEF714F84FF0000246
:10250000384BFEF7B3F902460B46C7E90A2300F041
:1025100073FE0346324A13607B68B3F900301A46F3
:102520007B68B3F9003003FB02F27B68B3F9043037
:1025300019467B68B3F9043001FB03F313441846D2
:10254000FEF700F802460B4643EC102B0DF078FC2A
:1025500087ED080B4FF000024FF00003D7E90801A8
:10256000FEF7C2FA0346002B3ED17B68B3F9023076
:102570001846FDF7E7FFD7E90823FEF777F902468B
:102580000B4643EC172BB0EE470AF0EE670A0DF04E
:1025900083FC51EC100B0AA3D3E90023FEF73CF8AF
:1025A00002460B46C7E90E2324E000BFAFF30080CC
:1025B000000000000029CC400000000000606040E6
:1025C000F8C1631ADCA54C40A4030020C806002013
:1025D000C90600200000D0400000AA43B81E1242E5
:1025E000E006002000408F404FF000024FF0000353
:1025F000C7E90E237B68B3F900305B421846FDF74C
:10260000A1FF82468B467B68B3F904301846FDF77C
:1026100099FF02460B4643EC112B4BEC10AB0DF02F
:102620000DFC51EC100B52A3D3E90023FDF7F4FF8E
:1026300002460B46C7E906234FF00002464BD7E996
:102640000601FEF75BFA0346002B0AD07B68D3E94C
:1026500014014FF00002414BFEF76EFA0346002BC7
:1026600014D14FF000023D4BD7E90601FEF764FAA2
:102670000346002B15D07B68D3E914014FF000020C
:10268000354BFEF73BFA0346002B0AD03449D7E915
:102690000623C1E906237968D7E90623C1E9142393
:1026A00014E07B6893ED0C7B97ED0A2BB0EE471A94
:1026B000F0EE671A97ED060B2948FFF7D5FCB0EE50
:1026C000407AF0EE607A7B6883ED147B7B68D3E917
:1026D0001423904623F000494FF000021F4B404660
:1026E0004946FEF729FA0346002B08D07B68D3E958
:1026F0000A23144683F000457B68C3E90A4519495B
:10270000D7E90E23C1E900231749D7E90623C1E918
:1027100000237B6893ED0A7B97ED0A2BB0EE471AF6
:10272000F0EE671A97ED0E0B1048FFF79DFCB0EE28
:10273000407AF0EE607A7B6883ED127B7B68996D5E
:102740007B68D3E91223C1E900234037BD46BDE8C9
:10275000B08F00BFAFF30080008056C000805640AD
:1027600078000020D0060020D8060020300000208D
:10277000F8C1631ADCA54C4080B586B000AF3B467B
:1027800000221A605A609A60DA601A61C0233B60C6
:1027900011237B600123BB600223FB603B4619468B
:1027A0002A4800F06BFE01228021284801F016F92A
:1027B000012000F02DFD00237B6119E080212348DA
:1027C00001F0F4F80346012B16D0012240211F48E6
:1027D00001F004F9012000F01BFD002240211B48FC
:1027E00001F0FCF8012000F013FD7B6901337B61EF
:1027F0007B69082BE2DD00E000BF00228021134846
:1028000001F0ECF8012000F003FD012240210F4807
:1028100001F0E4F8012000F0FBFC012280210B48CC
:1028200001F0DCF8012000F0F3FC12237B600023B0
:10283000BB600223FB6004233B613B46194603480F
:1028400000F01CFE00BF1837BD4680BD00040240EA
:1028500080B500AF00220121074801F0BFF8142025
:1028600000F0D6FC01220121034801F0B7F8142042
:1028700000F0CEFC00BF80BD0004024080B588B0EF
:1028800000AFF861B9617A613B6187ED030AC7ED7A
:10289000020A87ED011AFB69BA691A62FB697A6953
:1028A0005A62FB693A699A62FB690A221A6197F8CF
:1028B00028301946F86900F015F897ED011AD7EDA0
:1028C000020A97ED030AF86900F01CF800F094FC86
:1028D0000246FB691B69D21AFB695A6100BF2037A7
:1028E000BD4680BD80B483B000AF78600B46FB70FE
:1028F0007B68FA781A7000BF0C37BD465DF8047B20
:102900007047000080B487B000AFF86087ED020A1E
:10291000C7ED010A87ED001AFB681B6907EE903AC4
:10292000B8EE677ADFED1B6AC7EE267AC7ED057A47
:10293000FB681B78012B11D1D7ED027AF1EE677A93
:10294000C7ED027AD7ED017AF1EE677AC7ED017A29
:10295000D7ED007AF1EE677AC7ED007AFB68BA68C6
:102960005A6097ED017AD7ED057A67EE277AFB6812
:10297000C3ED027AD7ED006A97ED057AC6EE877A45
:10298000FB68C3ED037A00BF1C37BD465DF8047BCE
:10299000704700BF00007A4480B485B000AFF86093
:1029A000084611461A4603467B810B463B81134677
:1029B000FB80FB687A891A83FB683A895A83FB6833
:1029C000FA889A83FB683A8BDA8300BF1437BD46D6
:1029D0005DF8047B7047B0B58EB000AF786000F052
:1029E0000BFC78637B685B697A6BD31A3B637B680B
:1029F0001B693A6B9A42C0F0A9807B681B6AD3E9D5
:102A00000023C7E90A237B689B6AD3E90023C7E94F
:102A10000823D7E90A23D7E90801FDF745FC024658
:102A20000B46C7E906237B68D3E90C457B689B68A6
:102A30001846FDF799FDD7E90623FDF7EDFD02469F
:102A40000B4620462946FDF731FC02460B467968C5
:102A5000C1E90C237B68D3E90C457B68B3F91830D6
:102A60001846FDF76FFD02460B4620462946FEF745
:102A700063F80346002B0AD07B68B3F91830184678
:102A8000FDF760FD02460B467968C1E90C237B68BF
:102A9000D3E90C457B68B3F91A301846FDF752FDAF
:102AA00002460B4620462946FEF728F80346002B2F
:102AB0000AD07B68B3F91A301846FDF743FD024689
:102AC0000B467968C1E90C237B68D3E90E23D7E96B
:102AD0000601FDF7E9FB02460B46C7E904237B68C4
:102AE0005B681846FDF740FDD7E90623FDF794FD26
:102AF00002460B46104619467B68D3E90C23FDF7C6
:102B0000D5FB02460B4614461D467B68DB6818461B
:102B1000FDF72AFDD7E90423FDF77EFD02460B46AB
:102B200020462946FDF7C2FB02460B46C7E90223B1
:102B30007B68596AD7E90223C1E900237968D7E99C
:102B40000623C1E90E237B687A6B5A6100BF3837D0
:102B5000BD46B0BD80B483B000AF00237B60104B96
:102B60005B6C0F4A43F4804353640D4B5B6C03F47E
:102B700080437B607B6800233B60094B1B6C084AE9
:102B800043F080531364064B1B6C03F080533B608F
:102B90003B6800BF0C37BD465DF8047B704700BF43
:102BA0000038024080B58AB000AF786007F11403A6
:102BB00000221A605A609A60DA601A617B681B68AA
:102BC000194A93422CD100233B61184B1B6B174AC7
:102BD00043F002031363154B1B6B03F002033B61CD
:102BE0003B694FF440737B611223BB610023FB619F
:102BF00003233B6204237B6207F1140319460C484C
:102C000000F03CFC0023FB60084B1B6C074A43F4BC
:102C100000131364054B1B6C03F40013FB60FB688B
:102C200000BF2837BD4680BD005400400038024038
:102C30000004024080B582B000AF78607B681B68FA
:102C40000B4A93420FD10B4B1B6C0A4A23F400131F
:102C500013644FF48071084800F0ACFD4FF400712C
:102C6000054800F0A7FD00BF0837BD4680BD00BF86
:102C700000540040003802400004024080B586B095
:102C800000AF78607B681B68224A93420ED1002314
:102C90007B61214B5B6C204A43F0010353641E4B64
:102CA0005B6C03F001037B617B692EE07B681B6832
:102CB000B3F1804F0ED100233B61174B1B6C164ABA
:102CC00043F001031364144B1B6C03F001033B61DD
:102CD0003B691AE07B681B68104A934215D10023B8
:102CE000FB600D4B1B6C0C4A43F0040313640A4B4E
:102CF0001B6C03F00403FB60FB68002200211E2014
:102D000000F085FB1E2000F09EFB00BF1837BD467B
:102D100080BD00BF000001400038024000080040B4
:102D200080B58CB000AF786007F11C0300221A60F8
:102D30005A609A60DA601A617B681B68324A934273
:102D40002CD10023BB61314B1B6C304A43F0020392
:102D500013642E4B1B6C03F00203BB61BB690023A1
:102D60007B612A4B1B6B294A43F001031363274BFA
:102D70001B6B03F001037B617B69C023FB610223B2
:102D80003B6200237B620023BB620223FB6207F1EC
:102D90001C0319461E4800F071FB30E07B681B687D
:102DA0001C4A93422BD100233B61184B1B6C174AE2
:102DB00043F008031364154B1B6C03F008033B61DD
:102DC0003B690023FB60114B1B6B104A43F001036E
:102DD00013630E4B1B6B03F00103FB60FB680323C3
:102DE000FB6102233B6200237B620023BB62022360
:102DF000FB6207F11C031946054800F03FFB00BFCA
:102E00003037BD4680BD00BF00040040003802409E
:102E100000000240000C004080B58AB000AF78602E
:102E200007F1140300221A605A609A60DA601A618E
:102E30007B681B68244A93421FD100233B61234BCC
:102E40001B6B224A43F010031363204B1B6B03F0F0
:102E500010033B613B694FF400737B610223BB614C
:102E60000023FB6100233B6201237B6207F1140313
:102E70001946174800F002FB22E07B681B68B3F19B
:102E8000804F1DD10023FB60104B1B6B0F4A43F09A
:102E9000010313630D4B1B6B03F00103FB60FB6825
:102EA00020237B610223BB610023FB6100233B6283
:102EB00001237B6207F114031946064800F0DEFA8D
:102EC00000BF2837BD4680BD0000014000380240E9
:102ED000001002400000024080B400AF00BFFDE7D8
:102EE00080B400AF00BFFDE780B400AF00BFFDE7D6
:102EF00080B400AF00BFFDE780B400AF00BFFDE7C6
:102F000080B400AF00BFBD465DF8047B704780B45D
:102F100000AF00BFBD465DF8047B704780B400AFD2
:102F200000BFBD465DF8047B704780B500AF00F080
:102F30004FF900BF80BD000080B500AF024803F02C
:102F4000A7FF00BF80BD00BFD004002080B500AF48
:102F5000024801F0F5FE00BF80BD00BFCC1B002081
:102F600080B400AF01231846BD465DF8047B70476E
:102F700080B582B000AF786039600AF0A9FC0346E2
:102F800016221A604FF0FF3318460837BD4680BD41
:102F900080B582B000AF78604FF0FF317868FFF7FE
:102FA000E7FF00BFFDE780B586B000AFF860B9600D
:102FB0007A6000237B610AE0AFF300800146BB68C2
:102FC0005A1CBA60CAB21A707B6901337B617A6994
:102FD0007B689A42F0DB7B6818461837BD4680BD97
:102FE00080B483B000AF78604FF0FF3318460C37E1
:102FF000BD465DF8047B704780B483B000AF786055
:1030000039603B684FF400525A60002318460C3771
:10301000BD465DF8047B704780B483B000AF786034
:10302000012318460C37BD465DF8047B704780B419
:1030300085B000AFF860B9607A6000231846143795
:10304000BD465DF8047B704780B586B000AF786000
:10305000144A154BD31A7B617B693B61134B1B6888
:10306000002B02D1114B124A1A60104B1A687B6870
:1030700013443A699A4207D20AF02AFC03460C220A
:103080001A604FF0FF3309E0084B1B68FB60074BE9
:103090001A687B681344054A1360FB6818461837A2
:1030A000BD4680BD0000022000040000E4060020B0
:1030B0002024002080B400AF064BD3F88830054AA6
:1030C00043F47003C2F8883000BFBD465DF8047B4E
:1030D000704700BF00ED00E0DFF834D0FFF7EAFFF3
:1030E0000C480D490D4A002302E0D458C450043363
:1030F000C4188C42F9D30A4A0A4C002301E0136039
:103100000432A242FBD30AF0E9FBFDF7EDFF704762
:10311000000002200000002084030020680B01084A
:10312000880300201C240020FEE7000080B500AFCB
:103130000E4B1B680D4A43F4007313600B4B1B6866
:103140000A4A43F480631360084B1B68074A43F440
:1031500080731360032000F04FF90F2000F008F88F
:10316000FFF7F8FC0023184680BD00BF003C02407A
:1031700080B582B000AF7860124B1A68124B1B7892
:1031800019464FF47A73B3FBF1F3B2FBF3F318462D
:1031900000F067F90346002B01D001230EE07B68A5
:1031A0000F2B0AD8002279684FF0FF3000F02FF97A
:1031B000064A7B681360002300E0012318460837A5
:1031C000BD4680BDC0000020C8000020C400002013
:1031D00080B400AF064B1B781A46064B1B6813449D
:1031E000044A136000BFBD465DF8047B704700BF12
:1031F000C8000020E806002080B400AF034B1B6825
:103200001846BD465DF8047B704700BFE806002005
:1032100080B584B000AF7860FFF7EEFFB8607B68E0
:10322000FB60FB68B3F1FF3F05D00A4B1B781A46E1
:10323000FB681344FB6000BFFFF7DEFF0246BB687C
:10324000D31AFA689A42F7D800BF00BF1037BD46BC
:1032500080BD00BFC800002080B485B000AF78609A
:103260007B6803F00703FB600C4BDB68BB60BA684C
:103270004FF6FF031340BB60FB681A02BB681343A1
:1032800043F0BF6343F40033BB60044ABB68D360C0
:1032900000BF1437BD465DF8047B704700ED00E0C9
:1032A00080B400AF044BDB681B0A03F00703184629
:1032B000BD465DF8047B704700ED00E080B483B04C
:1032C00000AF0346FB7197F90730002B0BDBFB794E
:1032D00003F01F02074997F907305B09012000FA44
:1032E00002F241F8232000BF0C37BD465DF8047B95
:1032F000704700BF00E100E080B483B000AF034638
:103300003960FB7197F90730002B0ADB3B68DAB2B2
:103310000C4997F907301201D2B20B4483F800230D
:103320000AE03B68DAB20849FB7903F00F03043B7B
:103330001201D2B20B441A7600BF0C37BD465DF8BD
:10334000047B704700E100E000ED00E080B489B04C
:1033500000AFF860B9607A60FB6803F00703FB61B7
:10336000FB69C3F10703042B28BF0423BB61FB697E
:103370000433062B02D9FB69033B00E000237B6189
:103380004FF0FF32BB6902FA03F3DA43BB681A401D
:103390007B699A404FF0FF317B6901FA03F3D9430F
:1033A0007B680B40134318462437BD465DF8047B09
:1033B0007047000080B582B000AF78607B68013B49
:1033C000B3F1807F01D301230FE00A4A7B68013B00
:1033D00053600F214FF0FF30FFF78EFF054B0022A7
:1033E0009A60044B07221A60002318460837BD462E
:1033F00080BD00BF10E000E080B582B000AF786013
:103400007868FFF729FF00BF0837BD4680BD80B54B
:1034100086B000AF0346B9607A60FB7300237B611E
:10342000FFF73EFF78617A68B9687869FFF78EFF29
:10343000024697F90F3011461846FFF75DFF00BFAF
:103440001837BD4680BD80B582B000AF0346FB7122
:1034500097F907301846FFF731FF00BF0837BD4620
:1034600080BD80B582B000AF78607868FFF7A2FFBA
:10347000034618460837BD4680BD000080B489B0B9
:1034800000AF7860396000237B6100233B6100233B
:10349000BB610023FB616BE10122FB6902FA03F3CC
:1034A0007B613B681B687A6913403B613A697B69C1
:1034B0009A4240F05A813B685B6803F00303012B9A
:1034C00005D03B685B6803F00303022B30D17B68B7
:1034D0009B68BB61FB695B00032202FA03F3DB43D9
:1034E000BA691340BB613B68DA68FB695B0002FAAA
:1034F00003F3BA691343BB617B68BA699A607B685E
:103500005B68BB610122FB6902FA03F3DB43BA6922
:103510001340BB613B685B681B0903F00102FB6958
:1035200002FA03F3BA691343BB617B68BA695A6054
:103530003B685B6803F00303032B17D07B68DB68F1
:10354000BB61FB695B00032202FA03F3DB43BA6948
:103550001340BB613B689A68FB695B0002FA03F3A6
:10356000BA691343BB617B68BA69DA603B685B6820
:1035700003F00303022B23D1FB69DA087B680832CE
:1035800053F82230BB61FB6903F007039B000F2255
:1035900002FA03F3DB43BA691340BB613B681A6963
:1035A000FB6903F007039B0002FA03F3BA691343B4
:1035B000BB61FB69DA087B680832B96943F82210FD
:1035C0007B681B68BB61FB695B00032202FA03F3A3
:1035D000DB43BA691340BB613B685B6803F00302DD
:1035E000FB695B0002FA03F3BA691343BB617B68B2
:1035F000BA691A603B685B6803F44033002B00F043
:10360000B4800023FB60604B5B6C5F4A43F48043F3
:1036100053645D4B5B6C03F48043FB60FB685B4A67
:10362000FB699B08023352F82330BB61FB6903F04E
:1036300003039B000F2202FA03F3DB43BA69134032
:10364000BB617B68524A93422BD07B68514A9342BC
:1036500025D07B68504A93421FD07B684F4A9342E3
:1036600019D07B684E4A934213D07B684D4A9342EF
:103670000DD07B684C4A934207D07B684B4A9342FB
:1036800001D107230EE008230CE006230AE00523FE
:1036900008E0042306E0032304E0022302E0012300
:1036A00000E00023FA6902F0030292009340BA6935
:1036B0001343BB613549FB699B080233BA6941F882
:1036C00023203B4B9B68BB613B69DB43BA691340DA
:1036D000BB613B685B6803F48013002B03D0BA69BD
:1036E0003B691343BB61324ABB699360304BDB6873
:1036F000BB613B69DB43BA691340BB613B685B68F4
:1037000003F40013002B03D0BA693B691343BB6178
:10371000274ABB69D360264B5B68BB613B69DB43CF
:10372000BA691340BB613B685B6803F40033002B4C
:1037300003D0BA693B691343BB611D4ABB6953603F
:103740001B4B1B68BB613B69DB43BA691340BB6120
:103750003B685B6803F48033002B03D0BA693B6994
:103760001343BB61124ABB691360FB690133FB6100
:10377000FB690F2B7FF690AE00BF00BF2437BD461C
:103780005DF8047B704700BF0038024000380140FC
:10379000000002400004024000080240000C024009
:1037A000001002400014024000180240001C0240B9
:1037B000003C014080B487B000AF786039600023DE
:1037C0003B610023FB600023BB6000237B61CDE0F5
:1037D00001227B6902FA03F33B613A683B691340BB
:1037E000FB60FA683B699A4240F0BD80654A7B699C
:1037F0009B08023352F82330BB607B6903F003035C
:103800009B000F2202FA03F3BA681340BB607B6887
:103810005D4A93422BD07B685C4A934225D07B68FB
:103820005B4A93421FD07B685A4A934219D07B6807
:10383000594A934213D07B68584A93420DD07B6813
:10384000574A934207D07B68564A934201D10723D7
:103850000EE008230CE006230AE0052308E0042319
:1038600006E0032304E0022302E0012300E000233A
:103870007A6902F0030292009340BA689A4232D108
:10388000494B1A68FB68DB43474913400B60464BC2
:103890005A68FB68DB43444913404B60424BDA688B
:1038A000FB68DB4340491340CB603F4B9A68FB68A1
:1038B000DB433D4913408B607B6903F003039B00AE
:1038C0000F2202FA03F3BB602E4A7B699B08023386
:1038D00052F82310BB68DA432A487B699B080A40E8
:1038E000023340F823207B681A687B695B00032160
:1038F00001FA03F3DB431A407B681A607B69DA083C
:103900007B68083253F822107B6903F007039B00A1
:103910000F2202FA03F3DB437A69D20819407B686D
:10392000083243F822107B68DA687B695B00032168
:1039300001FA03F3DB431A407B68DA607B685A685C
:1039400001217B6901FA03F3DB431A407B685A606B
:103950007B689A687B695B00032101FA03F3DB4310
:103960001A407B689A607B6901337B617B690F2B0E
:103970007FF62EAF00BF00BF1C37BD465DF8047B4D
:10398000704700BF003801400000024000040240C0
:1039900000080240000C02400010024000140240E7
:1039A00000180240001C0240003C014080B485B079
:1039B00000AF78600B467B807B681A697B88134078
:1039C000002B02D00123FB7301E00023FB73FB7B80
:1039D00018461437BD465DF8047B704780B483B049
:1039E00000AF78600B467B8013467B707B78002BA2
:1039F00003D07A887B689A6103E07B881A047B682D
:103A00009A6100BF0C37BD465DF8047B704700002B
:103A100080B584B000AF78607B68002B01D10123B2
:103A20002BE17B6893F83D30DBB2002B06D17B683D
:103A3000002283F83C207868FFF7B4F87B682422E2
:103A400083F83D207B681B681A687B681B6822F03E
:103A500001021A607B681B681A687B681B6842F465
:103A600000421A607B681B681A687B681B6822F436
:103A700000421A6002F0E2FEF8607B685B68814AEF
:103A8000934207D8FB68804A934294BF01230023E6
:103A9000DBB206E0FB687D4A934294BF012300231A
:103AA000DBB2002B01D00123E7E0FB68784AA2FBE0
:103AB00003239B0CBB607B681B685B6823F03F01A2
:103AC0007B681B68BA680A435A607B681B681B6A7C
:103AD00023F03F017B685B686A4A934202D8BB6867
:103AE000013309E0BB684FF4967202FB03F3694AA5
:103AF000A2FB03239B0901337A6812680B4313620C
:103B00007B681B68DB6923F44F4222F0FF027B686D
:103B10005B685C498B4219D8FB68591E7B685B68FF
:103B20005B00B1FBF3F3591C40F6FC730B40002B18
:103B30000AD0FB68591E7B685B685B00B1FBF3F33E
:103B40000133C3F30B0351E004234FE07B689B6810
:103B5000002B11D1FB68581E7B6859680B465B002F
:103B60000B44B0FBF3F30133C3F30B03002B0CBF87
:103B700001230023DBB212E0FB68581E7B68596802
:103B80000B469B000B4499000B44B0FBF3F301334D
:103B9000C3F30B03002B0CBF01230023DBB2002B6C
:103BA00001D0012322E07B689B68002B0ED1FB68CB
:103BB000581E7B6859680B465B000B44B0FBF3F35F
:103BC0000133C3F30B0343F400430FE0FB68581EBB
:103BD0007B6859680B469B000B4499000B44B0FB73
:103BE000F3F30133C3F30B0343F4404379680968EB
:103BF0001343CB617B681B681B6823F0C0017B68A3
:103C0000DA697B681B6A1A437B681B680A431A607F
:103C10007B681B689B6823F4034323F0FF037A68E7
:103C200011697A68D26811437A6812680B4393600D
:103C30007B681B68DB6823F0FF017B685A697B683F
:103C40009B691A437B681B680A43DA607B681B68C0
:103C50001A687B681B6842F001021A607B680022C8
:103C60001A647B68202283F83D207B6800221A6357
:103C70007B68002283F83E20002318461037BD469B
:103C800080BD00BFA08601007F841E00FF083D00AC
:103C900083DE1B43D34D621080B582B000AF7860E5
:103CA0007B68002B01D1012321E07B68242283F86B
:103CB0003D207B681B681A687B681B6822F0010244
:103CC0001A607868FEF7B6FF7B6800221A647B688A
:103CD000002283F83D207B6800221A637B68002263
:103CE00083F83E207B68002283F83C20002318469E
:103CF0000837BD4680BD000080B588B002AFF860CF
:103D0000084611461A4603467B810B463B81134603
:103D1000FB80FFF771FA7861FB6893F83D30DBB206
:103D2000202B40F0D9807B690093192301226D4933
:103D3000F86800F08BFC0346002B01D00223CCE096
:103D4000FB6893F83C30012B01D10223C5E0FB68EE
:103D5000012283F83C20FB681B681B6803F0010309
:103D6000012B07D0FB681B681A68FB681B6842F0D0
:103D700001021A60FB681B681A68FB681B6822F462
:103D800000621A60FB68212283F83D20FB68402214
:103D900083F83E20FB6800221A64FB683A6A5A6284
:103DA000FB68BA8C5A85FB685B8D9AB2FB681A85F2
:103DB000FB684D4ADA62F8883A8979897B69019310
:103DC000BB6A00930346F86800F0C2FA0346002B72
:103DD00052D0012381E07A69B96AF86800F050FD99
:103DE0000346002B0DD0FB681B6C042B07D1FB682E
:103DF0001B681A68FB681B6842F400721A60012392
:103E00006BE0FB685B6A1A78FB681B681A61FB68E9
:103E10005B6A5A1CFB685A62FB681B8D013B9AB2B5
:103E2000FB681A85FB685B8D9BB2013B9AB2FB680D
:103E30005A85FB681B685B6903F00403042B1BD1E4
:103E4000FB681B8D002B17D0FB685B6A1A78FB6838
:103E50001B681A61FB685B6A5A1CFB685A62FB6844
:103E60001B8D013B9AB2FB681A85FB685B8D9BB288
:103E7000013B9AB2FB685A85FB681B8D002BAAD1C7
:103E80007A69B96AF86800F043FD0346002B0DD04B
:103E9000FB681B6C042B07D1FB681B681A68FB6866
:103EA0001B6842F400721A60012316E0FB681B686D
:103EB0001A68FB681B6842F400721A60FB682022D3
:103EC00083F83D20FB68002283F83E20FB68002237
:103ED00083F83C20002300E0022318461837BD4633
:103EE00080BD00BF020010000000FFFF80B58CB055
:103EF00002AFF860084611461A4603467B810B461E
:103F00003B811346FB80FFF777F97862FB6893F8F3
:103F10003D30DBB2202B40F014827B6A00931923E2
:103F200001227B49F86800F091FB0346002B01D089
:103F3000022307E2FB6893F83C30012B01D10223F6
:103F400000E2FB68012283F83C20FB681B681B68C9
:103F500003F00103012B07D0FB681B681A68FB689C
:103F60001B6842F001021A60FB681B681A68FB6854
:103F70001B6822F400621A60FB68222283F83D204D
:103F8000FB68402283F83E20FB6800221A64FB682D
:103F90003A6B5A62FB68BA8E5A85FB685B8D9AB29F
:103FA000FB681A85FB685B4ADA62F8883A89798986
:103FB0007B6A0193BB6B00930346F86800F05EFADE
:103FC0000346002B01D00123BCE1FB681B8D002BB5
:103FD00013D100233B62FB681B685B693B62FB6893
:103FE0001B689B693B623B6AFB681B681A68FB683D
:103FF0001B6842F400721A6090E1FB681B8D012B74
:104000001BD1FB681B681A68FB681B6822F480627E
:104010001A600023FB61FB681B685B69FB61FB683E
:104020001B689B69FB61FB69FB681B681A68FB687E
:104030001B6842F400721A6070E1FB681B8D022B52
:104040001BD1FB681B681A68FB681B6822F480623E
:104050001A60FB681B681A68FB681B6842F4006200
:104060001A600023BB61FB681B685B69BB61FB686E
:104070001B689B69BB61BB6950E100237B61FB68E6
:104080001B685B697B61FB681B689B697B617B6963
:1040900044E1FB681B8D032B00F2F180FB681B8D54
:1040A000012B23D17A6AB96BF86800F079FC0346DA
:1040B000002B01D0012345E1FB681B681A69FB68EE
:1040C0005B6AD2B21A70FB685B6A5A1CFB685A6260
:1040D000FB681B8D013B9AB2FB681A85FB685B8D00
:1040E0009BB2013B9AB2FB685A8517E1FB681B8DB6
:1040F000022B4ED17B6A0093BB6B00220649F86805
:1041000000F0A4FA0346002B08D001231AE100BFF7
:10411000020010000000FFFF04000100FB681B68A4
:104120001A68FB681B6842F400721A60FB681B681F
:104130001A69FB685B6AD2B21A70FB685B6A5A1C28
:10414000FB685A62FB681B8D013B9AB2FB681A85BB
:10415000FB685B8D9BB2013B9AB2FB685A85FB689A
:104160001B681A69FB685B6AD2B21A70FB685B6AEB
:104170005A1CFB685A62FB681B8D013B9AB2FB68B4
:104180001A85FB685B8D9BB2013B9AB2FB685A852E
:10419000C4E07B6A0093BB6B00226C49F86800F0B6
:1041A00055FA0346002B01D00123CBE0FB681B68C6
:1041B0001A68FB681B6822F480621A60FB681B683F
:1041C0001A69FB685B6AD2B21A70FB685B6A5A1C98
:1041D000FB685A62FB681B8D013B9AB2FB681A852B
:1041E000FB685B8D9BB2013B9AB2FB685A857B6A88
:1041F0000093BB6B00225549F86800F027FA03468C
:10420000002B01D001239DE0FB681B681A68FB6846
:104210001B6842F400721A60FB681B681A69FB682D
:104220005B6AD2B21A70FB685B6A5A1CFB685A62FE
:10423000FB681B8D013B9AB2FB681A85FB685B8D9E
:104240009BB2013B9AB2FB685A85FB681B681A69EE
:10425000FB685B6AD2B21A70FB685B6A5A1CFB6827
:104260005A62FB681B8D013B9AB2FB681A85FB689A
:104270005B8D9BB2013B9AB2FB685A854EE07A6A2D
:10428000B96BF86800F08CFB0346002B01D00123CA
:1042900058E0FB681B681A69FB685B6AD2B21A7047
:1042A000FB685B6A5A1CFB685A62FB681B8D013B0A
:1042B0009AB2FB681A85FB685B8D9BB2013B9AB290
:1042C000FB685A85FB681B685B6903F00403042BD9
:1042D00024D1FB681B8D032B07D1FB681B681A6870
:1042E000FB681B6822F480621A60FB681B681A690D
:1042F000FB685B6AD2B21A70FB685B6A5A1CFB6887
:104300005A62FB681B8D013B9AB2FB681A85FB68F9
:104310005B8D9BB2013B9AB2FB685A85FB681B8D93
:10432000002B7FF4B6AEFB68202283F83D20FB68AB
:10433000002283F83E20FB68002283F83C20002303
:1043400000E0022318462837BD4680BD0400010066
:1043500080B588B002AFF860084611461A46034699
:104360007B810B463B811346FB80FB681B681A6808
:10437000FB681B6842F480721A607B6A00933B6A98
:1043800000224FF00111F86800F060F90346002B9D
:104390000DD0FB681B681B6803F48073B3F5807F46
:1043A00003D1FB684FF400721A6403235FE07B893A
:1043B000DBB21A46FB681B6802F0FE021A617B6AD8
:1043C0003A6A2D49F86800F0BBF90346002B01D08A
:1043D00001234CE000237B61FB681B685B697B6108
:1043E000FB681B689B697B617B697A6A396AF8683C
:1043F00000F046FA0346002B0DD0FB681B6C042B23
:1044000007D1FB681B681A68FB681B6842F40072DE
:104410001A6001232BE0FB88012B05D13B89DAB21E
:10442000FB681B681A6121E03B891B0A9BB2DAB268
:10443000FB681B681A617A6A396AF86800F020FA2A
:104440000346002B0DD0FB681B6C042B07D1FB68C7
:104450001B681A68FB681B6842F400721A6001232B
:1044600005E03B89DAB2FB681B681A610023184635
:104470001837BD4680BD00BF0200010080B588B07E
:1044800002AFF860084611461A4603467B810B4688
:104490003B811346FB80FB681B681A68FB681B683E
:1044A00042F480621A60FB681B681A68FB681B682C
:1044B00042F480721A607B6A00933B6A00224FF0DC
:1044C0000111F86800F0C2F80346002B0DD0FB681C
:1044D0001B681B6803F48073B3F5807F03D1FB680E
:1044E0004FF400721A640323AAE07B89DBB21A46F8
:1044F000FB681B6802F0FE021A617B6A3A6A524945
:10450000F86800F01DF90346002B01D0012397E065
:1045100000237B61FB681B685B697B61FB681B6830
:104520009B697B617B697A6A396AF86800F0A8F94F
:104530000346002B0DD0FB681B6C042B07D1FB68D6
:104540001B681A68FB681B6842F400721A6001233A
:1045500076E0FB88012B05D13B89DAB2FB681B684A
:104560001A6121E03B891B0A9BB2DAB2FB681B6827
:104570001A617A6A396AF86800F082F90346002BFA
:104580000DD0FB681B6C042B07D1FB681B681A68F5
:10459000FB681B6842F400721A60012350E03B89FB
:1045A000DAB2FB681B681A617A6A396AF86800F047
:1045B00067F90346002B0DD0FB681B6C042B07D159
:1045C000FB681B681A68FB681B6842F400721A607B
:1045D000012335E0FB681B681A68FB681B6842F41E
:1045E00080721A607B6A00933B6A00224FF00111CF
:1045F000F86800F02BF80346002B0DD0FB681B6811
:104600001B6803F48073B3F5807F03D1FB684FF41C
:1046100000721A64032313E07B89DBB243F00103C9
:10462000DAB2FB681B681A617B6A3A6A0649F86865
:1046300000F086F80346002B01D0012300E00023A0
:1046400018461837BD4680BD0200010080B584B011
:1046500000AFF860B9603B601346FB7148E03B680F
:10466000B3F1FF3F44D0FEF7C7FD0246BB69D31A42
:104670003A689A4202D33B68002B39D1BB681B0CC5
:10468000DBB2012B0DD1FB681B685B69DA43BB68A9
:1046900013409BB2002B0CBF01230023DBB21A4650
:1046A0000CE0FB681B689B69DA43BB6813409BB254
:1046B000002B0CBF01230023DBB21A46FB799A4280
:1046C00016D1FB6800221A63FB68202283F83D2084
:1046D000FB68002283F83E20FB681B6C43F020023D
:1046E000FB681A64FB68002283F83C20012323E066
:1046F000BB681B0CDBB2012B0DD1FB681B685B692F
:10470000DA43BB6813409BB2002B0CBF012300238C
:10471000DBB21A460CE0FB681B689B69DA43BB6896
:1047200013409BB2002B0CBF01230023DBB21A46BF
:10473000FB799A4293D0002318461037BD4680BDBE
:1047400080B584B000AFF860B9607A603B6071E01A
:10475000FB681B685B6903F48063B3F5806F23D14A
:10476000FB681B681A68FB681B6842F400721A60D9
:10477000FB681B686FF480625A61FB6800221A6351
:10478000FB68202283F83D20FB68002283F83E204E
:10479000FB681B6C43F00402FB681A64FB68002290
:1047A00083F83C20012367E07B68B3F1FF3F41D0F1
:1047B000FEF722FD02463B68D31A7A689A4202D37A
:1047C0007B68002B36D1BB681B0CDBB2012B0CD1F4
:1047D000FB681B685B69DA43BB6813409BB2002B24
:1047E00014BF01230023DBB20BE0FB681B689B694D
:1047F000DA43BB6813409BB2002B14BF0123002394
:10480000DBB2002B16D0FB6800221A63FB68202263
:1048100083F83D20FB68002283F83E20FB681B6C78
:1048200043F02002FB681A64FB68002283F83C20F6
:10483000012321E0BB681B0CDBB2012B0CD1FB6810
:104840001B685B69DA43BB6813409BB2002B14BF43
:1048500001230023DBB20BE0FB681B689B69DA4392
:10486000BB6813409BB2002B14BF01230023DBB2B3
:10487000002B7FF46DAF002318461037BD4680BD76
:1048800080B584B000AFF860B9607A6034E0F86851
:1048900000F0E3F80346002B01D0012334E0BB68AD
:1048A000B3F1FF3F28D0FEF7A7FC02467B68D31A7E
:1048B000BA689A4202D3BB68002B1DD1FB681B6803
:1048C0005B6903F08003802B16D0FB6800221A631B
:1048D000FB68202283F83D20FB68002283F83E20FD
:1048E000FB681B6C43F02002FB681A64FB68002223
:1048F00083F83C20012307E0FB681B685B6903F039
:104900008003802BC3D1002318461037BD4680BDDD
:1049100080B584B000AFF860B9607A6034E0F868C0
:1049200000F09BF80346002B01D0012334E0BB6864
:10493000B3F1FF3F28D0FEF75FFC02467B68D31A35
:10494000BA689A4202D3BB68002B1DD1FB681B6872
:104950005B6903F00403042B16D0FB6800221A6382
:10496000FB68202283F83D20FB68002283F83E206C
:10497000FB681B6C43F02002FB681A64FB68002292
:1049800083F83C20012307E0FB681B685B6903F0A8
:104990000403042BC3D1002318461037BD4680BD45
:1049A00080B584B000AFF860B9607A6049E0FB6818
:1049B0001B685B6903F01003102B19D1FB681B689F
:1049C0006FF010025A61FB6800221A63FB68202214
:1049D00083F83D20FB68002283F83E20FB681A6CB8
:1049E000FB681A64FB68002283F83C20012330E056
:1049F000FEF702FC02467B68D31ABA689A4202D3D9
:104A0000BB68002B1DD1FB681B685B6903F040038A
:104A1000402B16D0FB6800221A63FB68202283F823
:104A20003D20FB68002283F83E20FB681B6C43F0AE
:104A30002002FB681A64FB68002283F83C200123F3
:104A400007E0FB681B685B6903F04003402BAED1B5
:104A5000002318461037BD4680BD80B483B000AF38
:104A600078607B681B685B6903F48063B3F5806FD3
:104A70001BD17B681B686FF480625A617B680022DF
:104A80001A637B68202283F83D207B68002283F82C
:104A90003E207B681B6C43F004027B681A647B68D1
:104AA000002283F83C20012300E0002318460C3745
:104AB000BD465DF8047B704780B586B002AF786074
:104AC0007B68002B01D1012301E17B681B68BB607F
:104AD0007B6893F89534DBB2002B06D17B6800220B
:104AE00083F89424786806F0BFFD7B68032283F87E
:104AF0009524BB68B3F1A04F02D17B6800229A7164
:104B00007B681B68184603F074F97B6818687B683B
:104B10001A7C8DF8002004330ECB03F053F80346C3
:104B2000002B05D07B68022283F895240123CEE078
:104B30007B681B680021184603F06CF90346002BC4
:104B400005D07B68022283F895240123BFE000236F
:104B5000FB734AE0FA7B79681346DB0013449B0041
:104B60000B44153301221A70FA7B79681346DB0077
:104B700013449B000B441433FA7B1A70FA7BFB7BC3
:104B800098B279681346DB0013449B000B442E3324
:104B900002461A80FA7B79681346DB0013449B00B7
:104BA0000B44183300221A70FA7B79681346DB0035
:104BB00013449B000B441C3300221A60FA7B796873
:104BC0001346DB0013449B000B44203300221A6081
:104BD000FA7B79681346DB0013449B000B442433B3
:104BE00000221A60FB7B0133FB737B681B79FA7B25
:104BF0009A42AFD30023FB7344E0FA7B79681346F3
:104C0000DB0013449B000B4403F2552300221A706F
:104C1000FA7B79681346DB0013449B000B4403F5D1
:104C20001573FA7B1A70FA7B79681346DB0013441C
:104C30009B000B4403F5167300221A70FA7B796807
:104C40001346DB0013449B000B4403F5177300224B
:104C50001A60FA7B79681346DB0013449B000B440F
:104C600003F5187300221A60FA7B79681346DB009B
:104C700013449B000B4403F5197300221A60FB7B5D
:104C80000133FB737B681B79FA7B9A42B5D37B684F
:104C900018687B681A7C8DF8002004330ECB03F073
:104CA00005F90346002B05D07B68022283F8952482
:104CB00001230CE07B6800225A747B68012283F890
:104CC00095247B681B68184604F04FF900231846AA
:104CD0001037BD4680BD80B584B000AF78607B687A
:104CE0001B68FB607B6893F89434012B01D102238D
:104CF00022E07B68012283F89424FB68DB6803F0E0
:104D00004003002B09D07B685B7B012B05D1FB683E
:104D10009B6B43F48032FB689A637B681B68184680
:104D200003F056F87B681B68184604F0FDF87B68B2
:104D3000002283F89424002318461037BD4680BD16
:104D400090B58DB000AF78607B681B683B623B6AB2
:104D5000FB617B681B68184604F0BBF90346002B17
:104D600040F08C847B681B68184604F01FF90346EA
:104D7000002B00F08284FB6903F500639B681B0A2B
:104D8000C3F30D027B68C3F8D4247B681B68184604
:104D900004F00CF9034603F00203022B07D17B68F1
:104DA0001B685A697B681B6802F002025A617B68C3
:104DB0001B68184604F0FAF8034603F01003102BA2
:104DC00061D17B681B689A697B681B6822F01002BE
:104DD0009A613B6A1B6ABB61BB6903F00F02134611
:104DE000DB0013449B0003F514737A681344043307
:104DF0007B61BB6903F4F013B3F5802F24D1BA694A
:104E000047F6F0731340002B35D07B69D968BB6936
:104E10001B099BB2C3F30A039BB21A46386A03F01C
:104E200031FF7B69DA68BB691B09C3F30A031A44C3
:104E30007B69DA607B695A69BB691B09C3F30A03A2
:104E40001A447B695A6116E0BB6903F4F013B3F5A9
:104E5000402F10D17B6803F29C4308221946386A20
:104E600003F010FF7B695A69BB691B09C3F30A038E
:104E70001A447B695A617B681B689A697B681B6866
:104E800042F010029A617B681B68184604F08EF8A5
:104E9000034603F40023B3F5002F40F0A78000235E
:104EA0007B627B681B68184604F093F8B86299E04F
:104EB000BB6A03F00103002B00F08E807B681B6847
:104EC0007A6AD2B21146184604F0B7F838613B69E5
:104ED00003F00103002B0CD07B6A5A01FB691344D9
:104EE00003F530631A4601239360796A786800F00D
:104EF000A3FE3B6903F00803002B0CD07B6A5A0128
:104F0000FB69134403F530631A4608239360796AFA
:104F1000786800F079FF3B6903F01003002B08D09C
:104F20007B6A5A01FB69134403F530631A46102368
:104F300093603B6903F00203002B30D03B6A5B694E
:104F400003F08003802B09D1FB6903F500635B68E4
:104F5000FA6902F5006243F4806353607A6A13468B
:104F6000DB0013449B0003F514737A681344043385
:104F70007B617B69DB78012B08D17B690022DA70C9
:104F80007B6ADBB21946786806F074FC7B6A5A01CA
:104F9000FB69134403F530631A46022393603B69AF
:104FA00003F02003002B08D07B6A5A01FB691344ED
:104FB00003F530631A46202393603B6903F40053E2
:104FC000002B09D07B6A5A01FB69134403F5306357
:104FD0001A464FF4005393607B6A01337B62BB6ACD
:104FE0005B08BB62BB6A002B7FF462AF7B681B6807
:104FF000184603F0DBFF034603F48023B3F5802F4C
:1050000040F0DB807B681B68184603F0FCFFB86249
:1050100000237B62CDE0BB6A03F00103002B00F0AC
:10502000C2807B681B687A6AD2B21146184604F0C7
:1050300022F838613B6903F00103002B57D07B6AEB
:1050400003F00F03012202FA03F3FB60FB6903F58F
:1050500000635A6BFB68DB43F96901F5006113409B
:105060004B637B6A5A01FB69134403F510631A46CC
:10507000012393607B689B79012B32D179687A6A2E
:105080001346DB0013449B000B44203319687868F7
:105090007A6A1346DB0013449B0003441C331B68ED
:1050A000194478687A6A1346DB0013449B00034472
:1050B000203319607B6A002B13D179687A6A134612
:1050C000DB0013449B000B4424331B68002B08D1E6
:1050D0007B6818687B6803F29C431A46012104F040
:1050E00029F87B6ADBB21946786806F03EFB3B691B
:1050F00003F00803002B08D07B6A5A01FB691344B4
:1051000003F510631A46082393603B6903F010030C
:10511000002B08D07B6A5A01FB69134403F5106326
:105120001A46102393603B6903F04003002B08D01C
:105130007B6A5A01FB69134403F510631A46402346
:1051400093603B6903F00203002B23D0796A386A2D
:1051500003F010F87A6A1346DB0013449B00103307
:105160007A68134404337B617B69DB78012B08D1B7
:105170007B690022DA707B6ADBB21946786806F038
:105180008BFB7B6A5A01FB69134403F510631A46D3
:10519000022393603B6903F08003002B03D0796AFC
:1051A000786800F0BDFC7B6A01337B62BB6A5B08F8
:1051B000BB62BB6A002B7FF42EAF7B681B6818466E
:1051C00003F0F4FE034603F00043B3F1004F22D195
:1051D000FB6903F500635B68FA6902F5006223F07E
:1051E000010353607B6893F8CC34012B08D17B68B2
:1051F000002283F8CC240021786800F0A3FE02E0AE
:10520000786806F029FB7B681B685A697B681B6815
:1052100002F000425A617B681B68184603F0C6FE24
:10522000034603F40063B3F5006F12D1FB6903F585
:1052300000639B6803F00103012B02D1786806F03C
:10524000E5FA7B681B685A697B681B6802F4006298
:105250005A617B681B68184603F0A8FE034603F4F6
:105260008053B3F5805F40F0B780FB6903F50063BE
:105270005B68FA6902F5006223F0010353607B6802
:105280001B681021184602F075FF0023FB6246E000
:10529000FB6A5A01FB69134403F510631A464FF683
:1052A0007F339360FB6A5A01FB69134403F5106373
:1052B0001B68FA6A5101FA690A4402F5106223F484
:1052C00000131360FB6A5A01FB69134403F5306352
:1052D0001A464FF67F339360FB6A5A01FB69134409
:1052E00003F530631B68FA6A5101FA690A4402F552
:1052F000306223F400131360FB6A5A01FB69134404
:1053000003F530631B68FA6A5101FA690A4402F531
:10531000306243F000631360FB6A0133FB627B6819
:105320001B791A46FB6A9342B2D3FB6903F500630B
:10533000DB69FA6902F5006243F00113D3617B680F
:10534000DB7B002B16D0FB6903F50063D3F88430B8
:10535000FA6902F5006243F00B03C2F88430FB697E
:1053600003F500635B6CFA6902F5006243F00B031E
:10537000536415E0FB6903F500635B69FA6902F5A4
:10538000006243F4005343F02B035361FB6903F5C0
:1053900000631B69FA6902F5006243F00B031361B5
:1053A000FB6903F500631B68FA6902F5006223F4E8
:1053B000FE6313607B6818687B6899797B6803F2E9
:1053C0009C431A4603F0B6FE7B681B685A697B68EB
:1053D0001B6802F480525A617B681B68184603F010
:1053E000E5FD034603F40053B3F5005F23D17B686A
:1053F0001B68184603F07BFE7B681B68184602F0AA
:1054000032FF03461A467B68DA717B681C6801F03C
:1054100009FA01467B68DB791A46204602F036FC21
:10542000786806F0CAF97B681B685A697B681B6854
:1054300002F400525A617B681B68184603F0B6FDFF
:10544000034603F00803082B0AD1786806F0A7F991
:105450007B681B685A697B681B6802F008025A6106
:105460007B681B68184603F0A1FD034603F0800328
:10547000802B23D13B6A9B6923F080023B6A9A61AF
:1054800001237B6214E079687A6A1346DB001344D7
:105490009B000B4403F257231B78012B05D17B6A39
:1054A000DBB21946786800F00AFB7B6A01337B6245
:1054B0007B681B791A467B6A9342E4D37B681B683E
:1054C000184603F073FD034603F48013B3F5801F01
:1054D0003CD101237B622BE07B6A5A01FB691344B8
:1054E00003F510631B68BB6179687A6A1346DB00B9
:1054F00013449B000B4418331B78012B15D1BB6957
:10550000002B12DA79687A6A1346DB0013449B0099
:105510000B44173301221A707B6ADBB263F07F03FE
:10552000DBB21946786800F0CAFA7B6A01337B6205
:105530007B681B791A467B6A9342CDD37B681B68D4
:105540005A697B681B6802F480125A617B681B6889
:10555000184603F02BFD034603F40013B3F5001FB8
:1055600056D101237B6245E07B6A5A01FB691344F3
:1055700003F530631B68BB6179687A6A1346DB0008
:1055800013449B000B4403F516731B78012B2ED19B
:10559000BB69002B2BDABB691A0C7B68D3F8D434B7
:1055A000534003F00103002B21D179687A6A134636
:1055B000DB0013449B000B4403F2572301221A70B3
:1055C0003B6A9B6943F080023B6A9A613B6A5B6974
:1055D00003F08003002B0AD1FB6903F500635B68CD
:1055E000FA6902F5006243F40073536008E07B6AD5
:1055F00001337B627B681B791A467B6A9342B3D383
:105600007B681B685A697B681B6802F400125A6148
:105610007B681B68184603F0C9FC034603F080430F
:10562000B3F1804F0AD1786806F048F97B681B68AF
:105630005A697B681B6802F080425A617B681B686C
:10564000184603F0B3FC034603F00403042B15D102
:105650007B681B685B68BB61BB6903F00403002BBC
:1056600002D0786806F038F97B681B6859687B6857
:105670001B68BA690A435A6000E000BF3437BD4670
:1056800090BD80B582B000AF78600B46FB707B6840
:1056900093F89434012B01D1022312E07B6801229C
:1056A00083F894247B68FA785A747B681B68FA78CC
:1056B0001146184603F012FC7B68002283F89424FC
:1056C000002318460837BD4680BD80B584B000AFC2
:1056D0007860084611461A460346FB700B463B802D
:1056E0001346BB700023FB7297F90330002B0FDACF
:1056F000FB7803F00F021346DB0013449B001033CA
:105700007A6813440433FB60FB6801225A700FE08F
:10571000FB7803F00F021346DB0013449B0003F5F4
:1057200014737A6813440433FB60FB6800225A70D8
:10573000FB7803F00F03DAB2FB681A703B88C3F3FF
:105740000A02FB689A60FB68BA781A71FB685B789A
:10575000002B04D0FB681B781A46FB685A83BB7881
:10576000022B02D1FB6800225A717B6893F89434B3
:10577000012B01D102230EE07B68012283F89424DF
:105780007B681B68F968184602F092FD7B6800226E
:1057900083F89424FB7A18461037BD4680BD80B547
:1057A00084B000AF78600B46FB7097F90330002B94
:1057B0000FDAFB7803F00F021346DB0013449B0063
:1057C00010337A6813440433FB60FB6801225A707B
:1057D0000FE0FB7803F00F021346DB0013449B003D
:1057E00003F514737A6813440433FB60FB680022EA
:1057F0005A70FB7803F00F03DAB2FB681A707B680B
:1058000093F89434012B01D102230EE07B6801222E
:1058100083F894247B681B68F968184602F0D0FD71
:105820007B68002283F89424002318461037BD4675
:1058300080BD80B586B000AFF8607A603B600B46F3
:10584000FB72FB7A03F00F021346DB0013449B004C
:1058500003F51473FA68134404337B617B697A6837
:10586000DA607B693A681A617B6900225A617B6958
:1058700000225A70FB7A03F00F03DAB27B691A70C8
:10588000FB689B79012B02D17A687B69DA61FB683E
:105890001868FB689B791A46796902F06DFE00234F
:1058A00018461837BD4680BD80B483B000AF78601D
:1058B0000B46FB70FB7803F00F0279681346DB00A0
:1058C00013449B000B4403F51A731B6818460C37EE
:1058D000BD465DF8047B704780B586B000AFF860C8
:1058E0007A603B600B46FB72FB7A03F00F021346B3
:1058F000DB0013449B001033FA68134404337B61CC
:105900007B697A68DA607B693A681A617B69002290
:105910005A617B6901225A70FB7A03F00F03DAB2F5
:105920007B691A70FB689B79012B02D17A687B69CD
:10593000DA61FB681868FB689B791A46796902F09E
:105940001BFE002318461837BD4680BD80B584B0C5
:1059500000AF78600B46FB70FB7803F00F037A68AA
:105960001279934201D901234FE097F90330002BBC
:105970000FDAFB7803F00F021346DB0013449B00A1
:1059800010337A6813440433FB60FB6801225A70B9
:105990000DE0FA781346DB0013449B0003F5147303
:1059A0007A6813440433FB60FB6800225A70FB687A
:1059B00001229A70FB7803F00F03DAB2FB681A70C9
:1059C0007B6893F89434012B01D102231DE07B689E
:1059D000012283F894247B681B68F968184603F059
:1059E000A9F9FB7803F00F03002B09D17B68186835
:1059F0007B6899797B6803F29C431A4603F09AFB13
:105A00007B68002283F89424002318461037BD4693
:105A100080BD80B584B000AF78600B46FB70FB782A
:105A200003F00F037A681279934201D9012342E00F
:105A300097F90330002B0FDAFB7803F00F021346BF
:105A4000DB0013449B0010337A6813440433FB607B
:105A5000FB6801225A700FE0FB7803F00F02134637
:105A6000DB0013449B0003F514737A68134404337A
:105A7000FB60FB6800225A70FB6800229A70FB787A
:105A800003F00F03DAB2FB681A707B6893F8943462
:105A9000012B01D102230EE07B68012283F89424BC
:105AA0007B681B68F968184603F0B2F97B6800222E
:105AB00083F89424002318461037BD4680BD80B576
:105AC00084B000AF78600B46FB7097F90330002B71
:105AD0000CDAFB7803F00F021346DB0013449B0043
