:020000040800F2
:1000000000000220A5200008A51E0008AD1E000863
:10001000B51E0008BD1E0008C51E00080000000037
:10002000000000000000000000000000CD1E0008DD
:10003000DB1E000800000000E91E0008F71E000893
:10004000F5200008F5200008F5200008F52000083C
:10005000F5200008F5200008F5200008F52000082C
:10006000F5200008F5200008F5200008F52000081C
:10007000F5200008F5200008F5200008F52000080C
:10008000F5200008F5200008F5200008F5200008FC
:10009000F5200008F5200008F5200008F5200008EC
:1000A000F5200008F5200008F5200008F5200008DC
:1000B000F5200008F5200008051F0008F5200008BD
:1000C000F5200008F5200008F5200008F5200008BC
:1000D000F5200008F5200008F5200008F5200008AC
:1000E000F5200008F5200008F5200008F52000089C
:1000F000F5200008F5200008F5200008F52000088C
:10010000F5200008F5200008F5200008F52000087B
:10011000F5200008F5200008F5200008F52000086B
:10012000F5200008F5200008F5200008F52000085B
:10013000F5200008F5200008F5200008F52000084B
:10014000F5200008F5200008F5200008191F000818
:10015000F5200008F5200008F5200008F52000082B
:10016000F5200008F5200008F5200008F52000081B
:10017000F5200008F5200008F52000080000000028
:08018000F5200008F52000083D
:1001900010B5054C237833B9044B13B10448AFF3C1
:1001A00000800123237010BDE00200200000000049
:1001B00094D3000808B5034B1BB103490348AFF3C0
:1001C000008008BD00000000E402002094D3000875
:1001D00001F0FF01102A2BDB10F0070F08D010F8F8
:1001E000013B013A8B422DD010F0070F42B3F6D1FC
:1001F000F0B441EA012141EA014122F007047FF015
:1002000000070023F0E80256083C85EA010586EA6B
:10021000010685FA47F5A3FA87F586FA47F6A5FAA7
:1002200087F68EB9EED1F0BC01F0FF0102F00702B3
:1002300032B110F8013B013A83EA010313B1F8D15E
:100240000020704701387047002D06BF354603383F
:10025000073815F0010F07D1013015F4807F02BF78
:10026000013015F4C03F0130F0BC0138704700BFC9
:10027000034613F8012B002AFBD1181A01387047E6
:1002800081F0004102E000BF83F0004330B54FEA47
:1002900041044FEA430594EA050F08BF90EA020FB4
:1002A0001FBF54EA000C55EA020C7FEA645C7FEA47
:1002B000655C00F0E2804FEA5454D4EB5555B8BF6A
:1002C0006D420CDD2C4480EA020281EA030382EADB
:1002D000000083EA010180EA020281EA0303362D6D
:1002E00088BF30BD11F0004F4FEA01314FF4801C40
:1002F0004CEA113102D0404261EB410113F0004F52
:100300004FEA03334CEA133302D0524263EB430308
:1003100094EA050F00F0A780A4F10104D5F1200EA6
:100320000DDB02FA0EFC22FA05F2801841F1000101
:1003300003FA0EF2801843FA05F359410EE0A5F1D5
:1003400020050EF1200E012A03FA0EFC28BF4CF006
:10035000020C43FA05F3C01851EBE37101F00045BC
:1003600007D54FF0000EDCF1000C7EEB00006EEBC9
:100370000101B1F5801F1BD3B1F5001F0CD3490853
:100380005FEA30004FEA3C0C04F101044FEA4452AA
:1003900012F5800F80F09A80BCF1004F08BF5FEA31
:1003A000500C50F1000041EB045141EA050130BD11
:1003B0005FEA4C0C404141EB0101013C28BFB1F523
:1003C000801FE9D291F0000F04BF01460020B1FA6E
:1003D00081F308BF2033A3F10B03B3F120020CDA41
:1003E0000C3208DD02F1140CC2F10C0201FA0CF01F
:1003F00021FA02F10CE002F11402D8BFC2F1200C84
:1004000001FA02F120FA0CFCDCBF41EA0C01904039
:10041000E41AA2BF01EB0451294330BD6FEA040482
:100420001F3C1CDA0C340EDC04F11404C4F120026D
:1004300020FA04F001FA02F340EA030021FA04F37F
:1004400045EA030130BDC4F10C04C4F1200220FAD6
:1004500002F001FA04F340EA0300294630BD21FA14
:1004600004F0294630BD94F0000F83F4801306BFDA
:1004700081F480110134013D4EE77FEA645C18BFCE
:100480007FEA655C29D094EA050F08BF90EA020F65
:1004900005D054EA000C04BF1946104630BD91EA5D
:1004A000030F1EBF0021002030BD5FEA545C05D160
:1004B0004000494128BF41F0004130BD14F580049F
:1004C0003CBF01F5801130BD01F0004545F0FE4113
:1004D00041F470014FF0000030BD7FEA645C1ABF48
:1004E000194610467FEA655C1CBF0B46024650EA7F
:1004F000013406BF52EA033591EA030F41F40021AB
:1005000030BD00BF90F0000F04BF0021704730B530
:100510004FF4806404F132044FF000054FF0000105
:1005200050E700BF90F0000F04BF0021704730B5C6
:100530004FF4806404F1320410F0004548BF40429B
:100540004FF000013EE700BF42004FEAE2014FEAF0
:1005500031014FEA02701FBF12F07F4393F07F4FCB
:1005600081F06051704732F07F4208BF704793F0CE
:100570007F4F04BF41F40021704730B54FF46074E1
:1005800001F0004521F000411CE700BF50EA0102E4
:1005900008BF704730B54FF000050AE050EA01028D
:1005A00008BF704730B511F0004502D5404261EBFD
:1005B00041014FF4806404F132045FEA915C3FF43E
:1005C000D8AE4FF003025FEADC0C18BF03325FEADB
:1005D000DC0C18BF033202EBDC02C2F1200300FA8C
:1005E00003FC20FA02F001FA03FE40EA0E0021FAB1
:1005F00002F11444BDE600BF70B54FF0FF0C4CF49F
:10060000E06C1CEA11541DBF1CEA135594EA0C0F50
:1006100095EA0C0F00F0DEF82C4481EA030621EA8B
:100620004C5123EA4C5350EA013518BF52EA0335C6
:1006300041F4801143F4801338D0A0FB02CE4FF078
:100640000005E1FB02E506F00042E0FB03E54FF0A8
:100650000006E1FB03569CF0000F18BF4EF0010EA0
:10066000A4F1FF04B6F5007F64F5407404D25FEA9C
:100670004E0E6D4146EB060642EAC62141EA55514F
:100680004FEAC52040EA5E504FEACE2EB4F1FD0C91
:1006900088BFBCF5E06F1ED8BEF1004F08BF5FEA0F
:1006A000500E50F1000041EB045170BD06F00046C1
:1006B00046EA010140EA020081EA0301B4EB5C046E
:1006C000C2BFD4EB0C0541EA045170BD41F4801166
:1006D0004FF0000E013C00F3AB8014F1360FDEBF8B
:1006E000002001F0004170BDC4F10004203C35DA67
:1006F0000C341BDC04F11404C4F1200500FA05F3EA
:1007000020FA04F001FA05F240EA020001F000428A
:1007100021F0004110EBD37021FA04F642EB060100
:100720005EEA430E08BF20EAD37070BDC4F10C042A
:10073000C4F1200500FA04F320FA05F001FA04F2EE
:1007400040EA020001F0004110EBD37041F10001DA
:100750005EEA430E08BF20EAD37070BDC4F12005E5
:1007600000FA05F24EEA020E20FA04F301FA05F24D
:1007700043EA020321FA04F001F0004121FA04F2F5
:1007800020EA020000EBD3705EEA430E08BF20EAC5
:10079000D37070BD94F0000F0FD101F000464000FF
:1007A00041EB010111F4801F08BF013CF7D041EA81
:1007B000060195F0000F18BF704703F00046520085
:1007C00043EB030313F4801F08BF013DF7D043EA56
:1007D0000603704794EA0C0F0CEA135518BF95EA0C
:1007E0000C0F0CD050EA410618BF52EA4306D1D193
:1007F00081EA030101F000414FF0000070BD50EAB2
:10080000410606BF1046194652EA430619D094EA3B
:100810000C0F02D150EA013613D195EA0C0F05D125
:1008200052EA03361CBF104619460AD181EA030179
:1008300001F0004141F0FE4141F470014FF0000031
:1008400070BD41F0FE4141F4780170BD70B54FF0CC
:10085000FF0C4CF4E06C1CEA11541DBF1CEA13554C
:1008600094EA0C0F95EA0C0F00F0A7F8A4EB05042E
:1008700081EA030E52EA03354FEA013100F0888025
:100880004FEA03334FF0805545EA131343EA1263EE
:100890004FEA022245EA111545EA10654FEA0026A3
:1008A0000EF000419D4208BF964244F1FD0404F55C
:1008B000407402D25B084FEA3202B61A65EB0305B8
:1008C0005B084FEA32024FF480104FF4002CB6EB75
:1008D000020E75EB030E22BFB61A754640EA0C00F5
:1008E0005B084FEA3202B6EB020E75EB030E22BF35
:1008F000B61A754640EA5C005B084FEA3202B6EB76
:10090000020E75EB030E22BFB61A754640EA9C0034
:100910005B084FEA3202B6EB020E75EB030E22BF04
:10092000B61A754640EADC0055EA060E18D04FEAC2
:10093000051545EA16754FEA06164FEAC30343EA62
:1009400052734FEAC2025FEA1C1CC0D111F4801F2F
:100950000BD141EA00014FF000004FF0004CB6E728
:1009600011F4801F04BF01430020B4F1FD0C88BFC7
:10097000BCF5E06F3FF6AFAEB5EB030C04BFB6EBD2
:10098000020C5FEA500C50F1000041EB045170BDC5
:100990000EF0004E4EEA113114EB5C04C2BFD4EBF2
:1009A0000C0541EA045170BD41F480114FF0000E76
:1009B000013C90E645EA060E8DE60CEA135594EAF2
:1009C0000C0F08BF95EA0C0F3FF43BAF94EA0C0FF5
:1009D0000AD150EA01347FF434AF95EA0C0F7FF46A
:1009E00025AF104619462CE795EA0C0F06D152EABE
:1009F00003353FF4FDAE1046194622E750EA4106A2
:100A000018BF52EA43067FF4C5AE50EA41047FF4B2
:100A10000DAF52EA43057FF4EBAE12E74FF0FF3C17
:100A200006E000BF4FF0010C02E000BF4FF0010CE8
:100A30004DF804CD4FEA410C7FEA6C5C4FEA430C61
:100A400018BF7FEA6C5C1BD001B050EA410C0CBFB0
:100A500052EA430C91EA030F02BF90EA020F002012
:100A6000704710F1000F91EA030F58BF994208BF79
:100A700090422CBFD8176FEAE37040F00100704736
:100A80004FEA410C7FEA6C5C02D150EA013C07D18D
:100A90004FEA430C7FEA6C5CD6D152EA033CD3D0D8
:100AA0005DF8040B704700BF8446104662468C46D2
:100AB0001946634600E000BF01B5FFF7B7FF002805
:100AC00048BF10F1000F01BD4DF808EDFFF7F4FF2E
:100AD0000CBF012000205DF808FB00BF4DF808EDB9
:100AE000FFF7EAFF34BF012000205DF808FB00BFDC
:100AF0004DF808EDFFF7E0FF94BF012000205DF8FE
:100B000008FB00BF4DF808EDFFF7CEFF94BF0120B2
:100B100000205DF808FB00BF4DF808EDFFF7C4FFAB
:100B200034BF012000205DF808FB00BF4FEA410CF4
:100B30007FEA6C5C02D150EA013C0AD14FEA430CD7
:100B40007FEA6C5C02D152EA033C02D14FF0000014
:100B500070474FF0010070474FEA410212F5001252
:100B600015D211D56FF47873B3EB625212D94FEAF4
:100B7000C12343F0004343EA505311F0004F23FADE
:100B800002F018BF404270474FF00000704750EA33
:100B9000013005D111F0004008BF6FF000407047F0
:100BA0004FF00000704700BF53B94AB9002908BF91
:100BB00000281CBF4FF0FF314FF0FF3000F088B924
:100BC000ADF1080C6DE904CE00F006F8DDF804E0A4
:100BD000DDE9022304B070472DE9F047089D8E46F9
:100BE00004468846002B4AD18A42174662D9B2FA97
:100BF00082F64EB1C6F1200301FA06F820FA03F39B
:100C0000B74043EA0808B4404FEA174E1FFA87FC82
:100C1000B8FBFEF1230C0EFB118843EA084301FBED
:100C20000CF29A4209D9FB1801F1FF3080F0EA80FA
:100C30009A4240F2E78002393B449A1AA3B2B2FBCF
:100C4000FEF00EFB102243EA024300FB0CFC9C4525
:100C500009D9FB1800F1FF3280F0D6809C4540F2A4
:100C6000D3803B44023840EA0140A3EB0C0300214F
:100C70001DB1F3400022C5E90032BDE8F0878B4288
:100C800005D90DB1C5E9000100210846F5E7B3FA21
:100C900083F1002946D1734502D3824200F20581D7
:100CA000841A6EEB030201209046002DE5D0C5E9C1
:100CB0000048E2E7002A00F09080B2FA82F6002EA7
:100CC00040F0A4808A1A030C4FEA174E80B2BCB2DF
:100CD0000121B2FBFEFC0EFB1C2243EA024304FB93
:100CE0000CF29A4207D9FB180CF1FF3802D29A4253
:100CF00000F2E080C4469B1AB3FBFEF20EFB1233F7
:100D000040EA034302FB04F49C4207D9FB1802F1BA
:100D1000FF3002D29C4200F2CA8002461B1B42EA0C
:100D20000C40A5E7C1F120068B4022FA06F71F43CD
:100D30000EFA01F420FA06F32EFA06FE4FEA1749DE
:100D4000234300FA01F81FFA87FCBEFBF9F01C0CE4
:100D500009FB10EE44EA0E4400FB0CFEA64502FA25
:100D600001F209D93C1900F1FF3A80F09C80A645B8
:100D700040F2998002383C44A4EB0E041FFA83FE33
:100D8000B4FBF9F309FB13444EEA044403FB0CFCE7
:100D9000A44508D93C1903F1FF3E80F08280A445A8
:100DA0007FD9023B3C4443EA0040A4EB0C04A0FB87
:100DB00002EC64457346E14662D35FD05DB1B8EBA7
:100DC000030264EB090404FA06F622FA01F31E4357
:100DD000CC40C5E9006400214FE7B1FBF2FC010CF7
:100DE00041EA0E4180B240EA01423B4638463C4669
:100DF000B846BE462026B1FBF7F1A2EB080241EA55
:100E00000C4166E7014618E710462CE7C6F12002C0
:100E10002EFA02F3B740B14020FA02F24FEA174E21
:100E20000A43B3FBFEF8BCB20EFB1833110C41EAC7
:100E3000034108FB04F9B04089454FEA104380B2F2
:100E40003ED9791808F1FF3C01D289451FD8A1EBA2
:100E50000901B1FBFEF909FB04F80EFB191192B26E
:100E600042EA0142424529D2BA1809F1FF31C4D2FF
:100E70004245C2D2A9F102013A44BEE7F0459DD2F3
:100E8000BEEB02036CEB070C0138E14696E7A7EBDB
:100E900009094944A8F1020CB1FBFEF909FB04F869
:100EA000DBE773467FE7504666E70846FDE63B44CE
:100EB000023A33E7ACF1020C3B441CE749469CE79D
:100EC000A1EB0901C446B1FBFEF909FB04F8C4E734
:100ED000704700BF80B584B000AFF860B9607A6039
:100EE00000BF7B689BB21946B86809F017F9034642
:100EF000012BF6D07B6818461037BD4680BD000038
:100F000080B582B000AF786039603A6879680B4884
:100F10000AF02DFC094A3B68134400221A703B6812
:100F2000DAB2074B1A700321064809F0F7F8064BAE
:100F300001221A7000BF0837BD4680BDD0050020D1
:100F400010000020140000200206002080B483B0AE
:100F500000AF78607B681B68054A934202D1054B5D
:100F600001221A7000BF0C37BD465DF8047B704744
:100F7000000800400306002080B582B002AF01F0F7
:100F8000BBF800F0A3F800F045FB08F0FBFF00F011
:100F900007F900F033F900F0D1F900F045FA00F05C
:100FA000E5FA00F095FA0021314804F017FC002121
:100FB000304804F013FC3C212F4804F07DFD3C2117
:100FC0002E4804F079FD2E4804F03EFB4FF47A7071
:100FD00001F004F92B492C4800F0D8FC2B492C488F
:100FE00000F09EFC2B4BD3ED007A2B4B93ED007A57
:100FF0002A4BD3ED006A01230093B0EE661AF0EE9F
:10100000470AB0EE670A264B264A1E49264800F0DA
:101010001DFD264BD3ED007A254B93ED007A254B31
:10102000D3ED006A00230093B0EE661AF0EE470A93
:10103000B0EE670A204B214A1449214800F006FD12
:1010400001F0C0F803461F4A13601F4B1B78002BAA
:1010500006D009490E4800F071FC1B4B00221A70A3
:10106000002364220021022000F0F4FBEDE700BF22
:101070005003002098030020E003002070040020AB
:101080002804002098050020B8040020A0050020B6
:10109000180500200C000020C8050020CC05002009
:1010A000B8050020A805002028050020C005002064
:1010B00008000020C405002000000020B00500202A
:1010C00060050020080600200306002080B594B0CB
:1010D00000AF07F120033022002118460AF0C8FAB9
:1010E00007F10C0300221A605A609A60DA601A61F4
:1010F0000023BB60284B1B6C274A43F080531364CA
:10110000254B1B6C03F08053BB60BB6800237B60E6
:10111000224B1B68214A43F4804313601F4B1B681A
:1011200003F480437B607B6801233B624FF4803390
:101130007B620223BB634FF48003FB6304233B64A5
:1011400048237B640223BB640323FB6407F1200371
:10115000184603F0A5FD0346002B01D000F0DCFA91
:101160000F23FB6002233B6100237B614FF480531C
:10117000BB614FF48053FB6107F10C030221184659
:1011800004F006F80346002B01D000F0C5FA00BFBA
:101190005037BD4680BD00BF00380240007000409F
:1011A00080B500AF124B134A1A60114B124A5A60B5
:1011B0000F4B00229A600E4B0022DA600C4B4FF46A
:1011C00080421A610A4B00225A61094B00229A613F
:1011D000074B0022DA61064B00221A62044801F034
:1011E000E9FA0346002B01D000F096FA00BF80BD5B
:1011F000FC02002000540040A086010080B596B09B
:1012000000AF07F1480300221A605A609A60DA6062
:1012100007F1400300221A605A6007F124030022FC
:101220001A605A609A60DA601A615A619A613B1DCD
:101230002022002118460AF01BFA3E4B3E4A1A6053
:101240003C4B47225A603B4B00229A60394B40F29C
:10125000E732DA60374B00221A61364B00225A61BE
:10126000344B00229A61334804F09EF90346002B68
:1012700001D000F051FA4FF48053BB6407F14803EA
:1012800019462C4804F058FE0346002B01D000F00C
:1012900043FA284804F048FA0346002B01D000F036
:1012A0003BFA00233B6400237B6407F140031946AB
:1012B000204805F047FA0346002B01D000F02CFA35
:1012C00060237B620023BB620023FB6200233B633D
:1012D00000237B630023BB630023FB6307F124032C
:1012E00000221946134804F065FD0346002B01D087
:1012F00000F012FA00237B600023BB600023FB6038
:1013000000233B6100237B614FF40053BB6100234A
:101310003B623B1D1946074805F090FA0346002B37
:1013200001D000F0F9F9034800F05CFD00BF583728
:10133000BD4680BD500300200000014080B58EB046
:1013400000AF07F1280300221A605A609A60DA6041
:1013500007F1200300221A605A603B1D00221A6028
:101360005A609A60DA601A615A619A612D4B4FF0A7
:1013700080421A602B4B47225A602A4B00229A6007
:10138000284B40F2E732DA60264B00221A61254BE7
:1013900000229A61234804F007F90346002B01D08C
:1013A00000F0BAF94FF48053BB6207F128031946E5
:1013B0001C4804F0C1FD0346002B01D000F0ACF93D
:1013C000184804F0B1F90346002B01D000F0A4F94D
:1013D00000233B6200237B6207F12003194611487A
:1013E00005F0B0F90346002B01D000F095F9602319
:1013F0007B600023BB600023FB6000237B613B1DFF
:1014000000221946074804F0D5FC0346002B01D002
:1014100000F082F9034800F0E5FC00BF3837BD4614
:1014200080BD00BF9803002080B58CB000AF07F1ED
:101430000C032422002118460AF01AF93B1D002251
:101440001A605A60204B214A1A601F4B00225A60D2
:101450001D4B00229A601C4B4FF6FF72DA601A4B4C
:1014600000221A61184B00229A610323FB600023BB
:101470003B6101237B610023BB610023FB610023EF
:101480003B6201237B620023BB620023FB6207F106
:101490000C0319460C4804F069FA0346002B01D0EE
:1014A00000F03AF900237B600023BB603B1D194626
:1014B000054805F047F90346002B01D000F02CF950
:1014C00000BF3037BD4680BDE0030020000400406F
:1014D00080B586B000AF07F1080300221A605A6099
:1014E0009A60DA603B4600221A605A601D4B1E4A21
:1014F0001A601C4B41F61F425A601A4B00229A6038
:10150000184B6322DA60174B00221A61154B002238
:101510009A61144804F048F80346002B01D000F00B
:10152000FBF84FF48053BB6007F1080319460D48E0
:1015300004F002FD0346002B01D000F0EDF800237B
:101540003B6000237B603B461946064805F0FAF8ED
:101550000346002B01D000F0DFF800BF1837BD466E
:1015600080BD00BF280400200008004080B58CB07A
:1015700000AF07F10C032422002118460AF078F886
:101580003B1D00221A605A60204B214A1A601F4BF3
:1015900000225A601D4B00229A601C4B4FF0FF3214
:1015A000DA601A4B00221A61184B00229A61032359
:1015B000FB6000233B6101237B610023BB610023AF
:1015C000FB6100233B6201237B620023BB6200239B
:1015D000FB6207F10C0319460C4804F0C7F90346F7
:1015E000002B01D000F098F800237B600023BB6043
:1015F0003B1D1946054805F0A5F80346002B01D010
:1016000000F08AF800BF3037BD4680BD700400206E
:10161000000C004080B58AB000AF07F1140300222F
:101620001A605A609A60DA601A6100233B61374B96
:101630001B6B364A43F080031363344B1B6B03F080
:1016400080033B613B690023FB60304B1B6B2F4ADF
:1016500043F0010313632D4B1B6B03F00103FB608D
:10166000FB680023BB60294B1B6B284A43F0040333
:101670001363264B1B6B03F00403BB60BB680023A2
:101680007B60224B1B6B214A43F0020313631F4B09
:101690001B6B03F002037B607B6800233B601B4BEA
:1016A0001B6B1A4A43F010031363184B1B6B03F0B8
:1016B00010033B603B6800223021154801F060F8C0
:1016C00000220321134801F05BF830237B610123E2
:1016D000BB610023FB6102233B6207F1140319463F
:1016E0000B4800F0B1FE03237B610123BB610023A3
:1016F000FB6102233B6207F114031946054800F021
:10170000A3FE00BF2837BD4680BD00BF00380240A1
:10171000000802400004024080B400AF72B600BF6F
:1017200000BFFDE780B500AF01220121044801F0B0
:1017300027F800220221024801F022F800BF80BDF4
:101740000004024080B500AF00221021044801F0DF
:1017500017F801222021024801F012F800BF80BDD5
:101760000008024080B500AF00220121044801F0CA
:1017700007F801220221024801F002F800BF80BDF3
:101780000004024080B500AF01221021044800F09F
:10179000F7FF00222021024800F0F2FF00BF80BDC9
:1017A0000008024080B500AF00220121044800F08B
:1017B000E7FF00220221024800F0E2FF00BF80BDE7
:1017C0000004024080B500AF00221021044800F060
:1017D000D7FF00222021024800F0D2FF00BF80BDC9
:1017E0000008024080B485B000AF0346FB80FB8850
:1017F000642B01D96423FB80FB881A4692001344B2
:101800005B00FB81044B1B68FA895A6300BF1437E5
:10181000BD465DF8047B70475003002080B485B05E
:1018200000AF0346FB80FB88642B01D96423FB8057
:10183000FB881A46920013445B00FB81044B1B6833
:10184000FA895A6300BF1437BD465DF8047B7047C0
:101850009803002090B583B000AF044608461146B7
:101860001A462346FB710346BB710B46BB801346E9
:101870007B80FB79022B2CD0022B47DC002B02D083
:10188000012B13D042E0BB79022B02D1FFF78AFF74
:1018900040E0BB79002B02D1FFF744FF01E0FFF7E6
:1018A00061FFBB881846FFF79DFF33E0BB79022B31
:1018B00002D1FFF787FF2DE0BB79002B02D1FFF7A4
:1018C00041FF01E0FFF75EFF7B881846FFF7A6FFA8
:1018D00020E0BB79022B04D1FFF764FFFFF772FF12
:1018E00018E0BB79002B04D1FFF71CFFFFF72AFF9C
:1018F00003E0FFF737FFFFF745FFBB881846FFF708
:1019000071FFBB881846FFF789FF03E0034809F021
:10191000CFFD00BF00BF0C37BD4690BDC8D3000847
:1019200080B483B000AF786039607B683A689A60B1
:1019300000BF0C37BD465DF8047B704790B585B09D
:1019400000AF786039603B681B685B6A1BB2FB8143
:10195000FB891BB29AB27B681B881BB29BB2D31A5D
:101960009BB21BB2BB81FB891AB27B681A80BB8910
:101970001AB27B689C681046FEF7D4FD02460B46FF
:10198000C4E9002300BF1437BD4690BD80B588B0C0
:1019900004AF786039607B683A689A656423029383
:1019A0000123019307F10F03009301237522D02136
:1019B000244801F03DF9FA7B234B1A70FB7B682B1E
:1019C0003BD10023BB73642302930123019307F1EE
:1019D0000E03009301236B22D0211A4801F02EF848
:1019E0000723BB73642302930123019307F10E03C2
:1019F000009301231922D021124801F01FF800237F
:101A0000BB73642302930123019307F10E03009338
:101A100001231C22D0210B4801F010F80023BB73D6
:101A2000642302930123019307F10E030093012322
:101A30001B22D021034801F001F800BF1037BD463A
:101A400080BD00BFFC0200200406002080B588B0E5
:101A500000AFF861B9617A613B6187ED030AC7EDB8
:101A6000020A87ED011AFB69BA699A61FB697A6912
:101A7000DA61FB693A691A62FB6964221A6197F8B4
:101A800028301946F86900F015F897ED011AD7EDDE
:101A9000020A97ED030AF86900F01CF800F092FBC7
:101AA0000246FB691B69D21AFB695A6100BF2037E5
:101AB000BD4680BD80B483B000AF78600B46FB703C
:101AC0007B68FA781A7000BF0C37BD465DF8047B5E
:101AD0007047000080B487B000AFF86087ED020A5D
:101AE000C7ED010A87ED001AFB681B6907EE903A03
:101AF000B8EE677ADFED1B6AC7EE267AC7ED057A86
:101B0000FB681B78012B11D1D7ED027AF1EE677AD1
:101B1000C7ED027AD7ED017AF1EE677AC7ED017A67
:101B2000D7ED007AF1EE677AC7ED007AFB68BA6804
:101B30005A6097ED017AD7ED057A67EE277AFB6850
:101B4000C3ED027AD7ED006A97ED057AC6EE877A83
:101B5000FB68C3ED037A00BF1C37BD465DF8047B0C
:101B6000704700BF00007A4480B483B000AF002308
:101B70007B60104B5B6C0F4A43F4804353640D4B06
:101B80005B6C03F480437B607B6800233B60094B04
:101B90001B6C084A43F080531364064B1B6C03F024
:101BA00080533B603B6800BF0C37BD465DF8047B4B
:101BB000704700BF0038024080B58AB000AF78603F
:101BC00007F1140300221A605A609A60DA601A6101
:101BD0007B681B68194A93422CD100233B61184B48
:101BE0001B6B174A43F002031363154B1B6B03F087
:101BF00002033B613B694FF440737B611223BB617D
:101C00000023FB6103233B6204237B6207F114037F
:101C100019460C4800F018FC0023FB60084B1B6CB5
:101C2000074A43F400131364054B1B6C03F40013C1
:101C3000FB60FB6800BF2837BD4680BD00540040F4
:101C4000003802400004024080B586B000AF7860E2
:101C50007B681B68224A93420ED100237B61214B93
:101C60005B6C204A43F0010353641E4B5B6C03F032
:101C700001037B617B692EE07B681B68B3F1804FB9
:101C80000ED100233B61174B1B6C164A43F0010336
:101C90001364144B1B6C03F001033B613B691AE0B6
:101CA0007B681B68104A934215D10023FB600D4BE3
:101CB0001B6C0C4A43F0040313640A4B1B6C03F0C7
:101CC0000403FB60FB68002200211E2000F085FB5E
:101CD0001E2000F09EFB00BF1837BD4680BD00BF30
:101CE00000000140003802400008004080B58CB080
:101CF00000AF786007F11C0300221A605A609A60F6
:101D0000DA601A617B681B68324A93422CD1002347
:101D1000BB61314B1B6C304A43F0020313642E4B02
:101D20001B6C03F00203BB61BB6900237B612A4B80
:101D30001B6B294A43F001031363274B1B6B03F012
:101D400001037B617B69C023FB6102233B620023AB
:101D50007B620023BB620223FB6207F11C0319466E
:101D60001E4800F071FB30E07B681B681C4A934200
:101D70002BD100233B61184B1B6C174A43F008031F
:101D80001364154B1B6C03F008033B613B69002394
:101D9000FB60114B1B6B104A43F0010313630E4BA6
:101DA0001B6B03F00103FB60FB680323FB61022351
:101DB0003B6200237B620023BB620223FB6207F1CC
:101DC0001C031946054800F03FFB00BF3037BD46F5
:101DD00080BD00BF00040040003802400000024007
:101DE000000C004080B58AB000AF786007F11403A2
:101DF00000221A605A609A60DA601A617B681B6878
:101E0000244A93421FD100233B61234B1B6B224A80
:101E100043F010031363204B1B6B03F010033B6173
:101E20003B694FF400737B610223BB610023FB61BC
:101E300000233B6201237B6207F114031946174814
:101E400000F002FB22E07B681B68B3F1804F1DD1DC
:101E50000023FB60104B1B6B0F4A43F0010313631D
:101E60000D4B1B6B03F00103FB60FB6820237B61C0
:101E70000223BB610023FB6100233B6201237B62E1
:101E800007F114031946064800F0DEFA00BF2837B0
:101E9000BD4680BD000001400038024000100240F5
:101EA0000000024080B400AF00BFFDE780B400AF87
:101EB00000BFFDE780B400AF00BFFDE780B400AF16
:101EC00000BFFDE780B400AF00BFFDE780B400AF06
:101ED00000BFBD465DF8047B704780B400AF00BF13
:101EE000BD465DF8047B704780B400AF00BFBD46BF
:101EF0005DF8047B704780B500AF00F04FF900BF7C
:101F000080BD000080B500AF024803F063FE00BF53
:101F100080BD00BF2804002080B500AF024801F05A
:101F2000B1FD00BF80BD00BFF41A002080B400AF37
:101F300001231846BD465DF8047B704780B582B02A
:101F400000AF7860396009F0E5FB034616221A609D
:101F50004FF0FF3318460837BD4680BD80B582B0CC
:101F600000AF78604FF0FF317868FFF7E7FF00BF00
:101F7000FDE780B586B000AFF860B9607A600023F5
:101F80007B610AE0AFF300800146BB685A1CBA606F
:101F9000CAB21A707B6901337B617A697B689A42A5
:101FA000F0DB7B6818461837BD4680BD80B483B02F
:101FB00000AF78604FF0FF3318460C37BD465DF830
:101FC000047B704780B483B000AF786039603B68B1
:101FD0004FF400525A60002318460C37BD465DF896
:101FE000047B704780B483B000AF7860012318464B
:101FF0000C37BD465DF8047B704780B485B000AFF8
:10200000F860B9607A60002318461437BD465DF861
:10201000047B704780B586B000AF7860144A154BDA
:10202000D31A7B617B693B61134B1B68002B02D188
:10203000114B124A1A60104B1A687B6813443A69B4
:102040009A4207D209F066FB03460C221A604FF051
:10205000FF3309E0084B1B68FB60074B1A687B687D
:102060001344054A1360FB6818461837BD4680BD07
:1020700000000220000400000C060020482300207D
:1020800080B400AF064BD3F88830054A43F47003A0
:10209000C2F8883000BFBD465DF8047B704700BFC2
:1020A00000ED00E0DFF834D0FFF7EAFF0C480D49FF
:1020B0000D4A002302E0D458C4500433C4188C42A3
:1020C000F9D30A4A0A4C002301E013600432A24209
:1020D000FBD309F025FBFEF74FFF704700000220FD
:1020E00000000020DC020020C4D70008E00200202D
:1020F00044230020FEE7000080B500AF0E4B1B68B4
:102100000D4A43F4007313600B4B1B680A4A43F4F7
:1021100080631360084B1B68074A43F480731360A5
:10212000032000F04FF90F2000F008F8FFF71CFD26
:102130000023184680BD00BF003C024080B582B03D
:1021400000AF7860124B1A68124B1B7819464FF497
:102150007A73B3FBF1F3B2FBF3F3184600F067F9BF
:102160000346002B01D001230EE07B680F2B0AD819
:10217000002279684FF0FF3000F02FF9064A7B68A3
:102180001360002300E0012318460837BD4680BDD8
:1021900018000020200000201C00002080B400AFA8
:1021A000064B1B781A46064B1B681344044A1360FF
:1021B00000BFBD465DF8047B704700BF20000020D3
:1021C0001006002080B400AF034B1B681846BD46C4
:1021D0005DF8047B704700BF1006002080B584B016
:1021E00000AF7860FFF7EEFFB8607B68FB60FB68CC
:1021F000B3F1FF3F05D00A4B1B781A46FB68134426
:10220000FB6000BFFFF7DEFF0246BB68D31AFA6827
:102210009A42F7D800BF00BF1037BD4680BD00BF4F
:102220002000002080B485B000AF78607B6803F0A8
:102230000703FB600C4BDB68BB60BA684FF6FF031B
:102240001340BB60FB681A02BB68134343F0BF63D3
:1022500043F40033BB60044ABB68D36000BF14374B
:10226000BD465DF8047B704700ED00E080B400AF30
:10227000044BDB681B0A03F007031846BD465DF8F4
:10228000047B704700ED00E080B483B000AF0346EC
:10229000FB7197F90730002B0BDBFB7903F01F0272
:1022A000074997F907305B09012000FA02F241F86B
:1022B000232000BF0C37BD465DF8047B704700BF8C
:1022C00000E100E080B483B000AF03463960FB71E9
:1022D00097F90730002B0ADB3B68DAB20C4997F913
:1022E00007301201D2B20B4483F800230AE03B68A6
:1022F000DAB20849FB7903F00F03043B1201D2B2B2
:102300000B441A7600BF0C37BD465DF8047B70475E
:1023100000E100E000ED00E080B489B000AFF860BB
:10232000B9607A60FB6803F00703FB61FB69C3F1E6
:102330000703042B28BF0423BB61FB690433062B6E
:1023400002D9FB69033B00E000237B614FF0FF32C1
:10235000BB6902FA03F3DA43BB681A407B699A400F
:102360004FF0FF317B6901FA03F3D9437B680B40DF
:10237000134318462437BD465DF8047B70470000C0
:1023800080B582B000AF78607B68013BB3F1807F9D
:1023900001D301230FE00A4A7B68013B53600F2100
:1023A0004FF0FF30FFF78EFF054B00229A60044B81
:1023B00007221A60002318460837BD4680BD00BFBB
:1023C00010E000E080B582B000AF78607868FFF779
:1023D00029FF00BF0837BD4680BD80B586B000AF7D
:1023E0000346B9607A60FB7300237B61FFF73EFF11
:1023F00078617A68B9687869FFF78EFF024697F9C5
:102400000F3011461846FFF75DFF00BF1837BD4675
:1024100080BD80B582B000AF0346FB7197F90730ED
:102420001846FFF731FF00BF0837BD4680BD80B5B5
:1024300082B000AF78607868FFF7A2FF03461846C5
:102440000837BD4680BD000080B489B000AF786019
:10245000396000237B6100233B610023BB610023C3
:10246000FB616BE10122FB6902FA03F37B613B68CC
:102470001B687A6913403B613A697B699A4240F074
:102480005A813B685B6803F00303012B05D03B686E
:102490005B6803F00303022B30D17B689B68BB6150
:1024A000FB695B00032202FA03F3DB43BA691340C2
:1024B000BB613B68DA68FB695B0002FA03F3BA6947
:1024C0001343BB617B68BA699A607B685B68BB61D8
:1024D0000122FB6902FA03F3DB43BA691340BB61D3
:1024E0003B685B681B0903F00102FB6902FA03F316
:1024F000BA691343BB617B68BA695A603B685B6821
:1025000003F00303032B17D07B68DB68BB61FB6917
:102510005B00032202FA03F3DB43BA691340BB6199
:102520003B689A68FB695B0002FA03F3BA691343DC
:10253000BB617B68BA69DA603B685B6803F00303E0
:10254000022B23D1FB69DA087B68083253F822306A
:10255000BB61FB6903F007039B000F2202FA03F340
:10256000DB43BA691340BB613B681A69FB6903F03E
:1025700007039B0002FA03F3BA691343BB61FB69CB
:10258000DA087B680832B96943F822107B681B6857
:10259000BB61FB695B00032202FA03F3DB43BA6908
:1025A0001340BB613B685B6803F00302FB695B009F
:1025B00002FA03F3BA691343BB617B68BA691A6014
:1025C0003B685B6803F44033002B00F0B4800023C9
:1025D000FB60604B5B6C5F4A43F4804353645D4B2C
:1025E0005B6C03F48043FB60FB685B4AFB699B0800
:1025F000023352F82330BB61FB6903F003039B00F5
:102600000F2202FA03F3DB43BA691340BB617B6814
:10261000524A93422BD07B68514A934225D07B6823
:10262000504A93421FD07B684F4A934219D07B682F
:102630004E4A934213D07B684D4A93420DD07B683B
:102640004C4A934207D07B684B4A934201D10723FF
:102650000EE008230CE006230AE0052308E004232B
:1026600006E0032304E0022302E0012300E000234C
:10267000FA6902F0030292009340BA691343BB6106
:102680003549FB699B080233BA6941F823203B4B6B
:102690009B68BB613B69DB43BA691340BB613B6824
:1026A0005B6803F48013002B03D0BA693B691343C2
:1026B000BB61324ABB699360304BDB68BB613B69ED
:1026C000DB43BA691340BB613B685B6803F40013EA
:1026D000002B03D0BA693B691343BB61274ABB692E
:1026E000D360264B5B68BB613B69DB43BA6913402F
:1026F000BB613B685B6803F40033002B03D0BA690D
:102700003B691343BB611D4ABB6953601B4B1B688C
:10271000BB613B69DB43BA691340BB613B685B68E3
:1027200003F48033002B03D0BA693B691343BB61C8
:10273000124ABB691360FB690133FB61FB690F2B14
:102740007FF690AE00BF00BF2437BD465DF8047B26
:10275000704700BF003802400038014000000240CE
:102760000004024000080240000C02400010024039
:102770000014024000180240001C0240003C0140CE
:1027800080B483B000AF78600B467B8013467B70CB
:102790007B78002B03D07A887B689A6103E07B8882
:1027A0001A047B689A6100BF0C37BD465DF8047B54
:1027B0007047000080B584B000AF78607B68002B64
:1027C00001D101232BE17B6893F83D30DBB2002B74
:1027D00006D17B68002283F83C207868FFF7ECF98B
:1027E0007B68242283F83D207B681B681A687B681D
:1027F0001B6822F001021A607B681B681A687B68FC
:102800001B6842F400421A607B681B681A687B6888
:102810001B6822F400421A6002F0B2FEF8607B6886
:102820005B68814A934207D8FB68804A934294BF11
:1028300001230023DBB206E0FB687D4A934294BF8C
:1028400001230023DBB2002B01D00123E7E0FB686A
:10285000784AA2FB03239B0CBB607B681B685B6808
:1028600023F03F017B681B68BA680A435A607B68A3
:102870001B681B6A23F03F017B685B686A4A9342CE
:1028800002D8BB68013309E0BB684FF4967202FBC3
:1028900003F3694AA2FB03239B0901337A68126898
:1028A0000B4313627B681B68DB6923F44F4222F001
:1028B000FF027B685B685C498B4219D8FB68591E34
:1028C0007B685B685B00B1FBF3F3591C40F6FC735B
:1028D0000B40002B0AD0FB68591E7B685B685B00CD
:1028E000B1FBF3F30133C3F30B0351E004234FE0D7
:1028F0007B689B68002B11D1FB68581E7B68596868
:102900000B465B000B44B0FBF3F30133C3F30B0343
:10291000002B0CBF01230023DBB212E0FB68581E22
:102920007B6859680B469B000B4499000B44B0FB35
:10293000F3F30133C3F30B03002B0CBF012300237C
:10294000DBB2002B01D0012322E07B689B68002BC7
:102950000ED1FB68581E7B6859680B465B000B4420
:10296000B0FBF3F30133C3F30B0343F400430FE075
:10297000FB68581E7B6859680B469B000B44990006
:102980000B44B0FBF3F30133C3F30B0343F44043B5
:10299000796809681343CB617B681B681B6823F067
:1029A000C0017B68DA697B681B6A1A437B681B6815
:1029B0000A431A607B681B689B6823F4034323F077
:1029C000FF037A6811697A68D26811437A681268DD
:1029D0000B4393607B681B68DB6823F0FF017B6817
:1029E0005A697B689B691A437B681B680A43DA60F3
:1029F0007B681B681A687B681B6842F001021A60DA
:102A00007B6800221A647B68202283F83D207B6863
:102A100000221A637B68002283F83E2000231846B8
:102A20001037BD4680BD00BFA08601007F841E0018
:102A3000FF083D0083DE1B43D34D621080B588B094
:102A400002AFF860084611461A4603467B810B46E2
:102A50003B811346FB80FFF7B5FB7861FB6893F879
:102A60003D30DBB2202B40F0D9807B6900931923E5
:102A700001226D49F86800F08BFC0346002B01D061
:102A80000223CCE0FB6893F83C30012B01D10223F8
:102A9000C5E0FB68012283F83C20FB681B681B68CB
:102AA00003F00103012B07D0FB681B681A68FB6861
:102AB0001B6842F001021A60FB681B681A68FB6819
:102AC0001B6822F400621A60FB68212283F83D2013
:102AD000FB68402283F83E20FB6800221A64FB68F2
:102AE0003A6A5A62FB68BA8C5A85FB685B8D9AB267
:102AF000FB681A85FB684D4ADA62F8883A89798959
:102B00007B690193BB6A00930346F86800F0C2FA40
:102B10000346002B52D0012381E07A69B96AF86834
:102B200000F050FD0346002B0DD0FB681B6C042BFE
:102B300007D1FB681B681A68FB681B6842F40072C7
:102B40001A6001236BE0FB685B6A1A78FB681B68FC
:102B50001A61FB685B6A5A1CFB685A62FB681B8D32
:102B6000013B9AB2FB681A85FB685B8D9BB2013B07
:102B70009AB2FB685A85FB681B685B6903F0040323
:102B8000042B1BD1FB681B8D002B17D0FB685B6AE5
:102B90001A78FB681B681A61FB685B6A5A1CFB6841
:102BA0005A62FB681B8D013B9AB2FB681A85FB6871
:102BB0005B8D9BB2013B9AB2FB685A85FB681B8D0B
:102BC000002BAAD17A69B96AF86800F043FD034680
:102BD000002B0DD0FB681B6C042B07D1FB681B6816
:102BE0001A68FB681B6842F400721A60012316E041
:102BF000FB681B681A68FB681B6842F400721A6065
:102C0000FB68202283F83D20FB68002283F83E20E9
:102C1000FB68002283F83C20002300E002231846D2
:102C20001837BD4680BD00BF020010000000FFFF46
:102C300080B58CB002AFF860084611461A460346CC
:102C40007B810B463B811346FB80FFF7BBFA786222
:102C5000FB6893F83D30DBB2202B40F014827B6A96
:102C60000093192301227B49F86800F091FB034689
:102C7000002B01D0022307E2FB6893F83C30012BC4
:102C800001D1022300E2FB68012283F83C20FB68AB
:102C90001B681B6803F00103012B07D0FB681B684E
:102CA0001A68FB681B6842F001021A60FB681B6827
:102CB0001A68FB681B6822F400621A60FB68222213
:102CC00083F83D20FB68402283F83E20FB68002209
:102CD0001A64FB683A6B5A62FB68BA8E5A85FB68C5
:102CE0005B8D9AB2FB681A85FB685B4ADA62F888EA
:102CF0003A8979897B6A0193BB6B00930346F86834
:102D000000F05EFA0346002B01D00123BCE1FB6812
:102D10001B8D002B13D100233B62FB681B685B6992
:102D20003B62FB681B689B693B623B6AFB681B68F4
:102D30001A68FB681B6842F400721A6090E1FB6835
:102D40001B8D012B1BD1FB681B681A68FB681B6875
:102D500022F480621A600023FB61FB681B685B69D8
:102D6000FB61FB681B689B69FB61FB69FB681B6877
:102D70001A68FB681B6842F400721A6070E1FB6815
:102D80001B8D022B1BD1FB681B681A68FB681B6834
:102D900022F480621A60FB681B681A68FB681B6873
:102DA00042F400621A600023BB61FB681B685B6928
:102DB000BB61FB681B689B69BB61BB6950E1002379
:102DC0007B61FB681B685B697B61FB681B689B69B7
:102DD0007B617B6944E1FB681B8D032B00F2F18072
:102DE000FB681B8D012B23D17A6AB96BF86800F060
:102DF00079FC0346002B01D0012345E1FB681B68E9
:102E00001A69FB685B6AD2B21A70FB685B6A5A1C6B
:102E1000FB685A62FB681B8D013B9AB2FB681A85FE
:102E2000FB685B8D9BB2013B9AB2FB685A8517E148
:102E3000FB681B8D022B4ED17B6A0093BB6B00227B
:102E40000649F86800F0A4FA0346002B08D00123D5
:102E50001AE100BF020010000000FFFF04000100A3
:102E6000FB681B681A68FB681B6842F400721A60F2
:102E7000FB681B681A69FB685B6AD2B21A70FB6850
:102E80005B6A5A1CFB685A62FB681B8D013B9AB255
:102E9000FB681A85FB685B8D9BB2013B9AB2FB68AD
:102EA0005A85FB681B681A69FB685B6AD2B21A70A4
:102EB000FB685B6A5A1CFB685A62FB681B8D013B0E
:102EC0009AB2FB681A85FB685B8D9BB2013B9AB294
:102ED000FB685A85C4E07B6A0093BB6B00226C4997
:102EE000F86800F055FA0346002B01D00123CBE02F
:102EF000FB681B681A68FB681B6822F480621A6012
:102F0000FB681B681A69FB685B6AD2B21A70FB68BF
:102F10005B6A5A1CFB685A62FB681B8D013B9AB2C4
:102F2000FB681A85FB685B8D9BB2013B9AB2FB681C
:102F30005A857B6A0093BB6B00225549F86800F004
:102F400027FA0346002B01D001239DE0FB681B6894
:102F50001A68FB681B6842F400721A60FB681B6801
:102F60001A69FB685B6AD2B21A70FB685B6A5A1C0A
:102F7000FB685A62FB681B8D013B9AB2FB681A859D
:102F8000FB685B8D9BB2013B9AB2FB685A85FB687C
:102F90001B681A69FB685B6AD2B21A70FB685B6ACD
:102FA0005A1CFB685A62FB681B8D013B9AB2FB6896
:102FB0001A85FB685B8D9BB2013B9AB2FB685A8510
:102FC0004EE07A6AB96BF86800F08CFB0346002B80
:102FD00001D0012358E0FB681B681A69FB685B6A33
:102FE000D2B21A70FB685B6A5A1CFB685A62FB68B3
:102FF0001B8D013B9AB2FB681A85FB685B8D9BB207
:10300000013B9AB2FB685A85FB681B685B6903F059
:103010000403042B24D1FB681B8D032B07D1FB6811
:103020001B681A68FB681B6822F480621A60FB68E0
:103030001B681A69FB685B6AD2B21A70FB685B6A2C
:103040005A1CFB685A62FB681B8D013B9AB2FB68F5
:103050001A85FB685B8D9BB2013B9AB2FB685A856F
:10306000FB681B8D002B7FF4B6AEFB68202283F833
:103070003D20FB68002283F83E20FB68002283F895
:103080003C20002300E0022318462837BD4680BDBF
:103090000400010080B588B002AFF8600846114610
:1030A0001A4603467B810B463B811346FB80FB6837
:1030B0001B681A68FB681B6842F480721A607B6A9E
:1030C00000933B6A00224FF00111F86800F060F9AC
:1030D0000346002B0DD0FB681B681B6803F480734C
:1030E000B3F5807F03D1FB684FF400721A640323A9
:1030F0005FE07B89DBB21A46FB681B6802F0FE02C8
:103100001A617B6A3A6A2D49F86800F0BBF90346F8
:10311000002B01D001234CE000237B61FB681B687E
:103120005B697B61FB681B689B697B617B697A6A71
:10313000396AF86800F046FA0346002B0DD0FB68A8
:103140001B6C042B07D1FB681B681A68FB681B68A3
:1031500042F400721A6001232BE0FB88012B05D199
:103160003B89DAB2FB681B681A6121E03B891B0AC4
:103170009BB2DAB2FB681B681A617A6A396AF8682E
:1031800000F020FA0346002B0DD0FB681B6C042BCB
:1031900007D1FB681B681A68FB681B6842F4007261
:1031A0001A60012305E03B89DAB2FB681B681A61EB
:1031B000002318461837BD4680BD00BF020001003D
:1031C00080B588B002AFF860084611461A4603463B
:1031D0007B810B463B811346FB80FB681B681A68AA
:1031E000FB681B6842F480621A60FB681B681A68FF
:1031F000FB681B6842F480721A607B6A00933B6A2A
:1032000000224FF00111F86800F0C2F80346002BCD
:103210000DD0FB681B681B6803F48073B3F5807FD7
:1032200003D1FB684FF400721A640323AAE07B8980
:10323000DBB21A46FB681B6802F0FE021A617B6A69
:103240003A6A5249F86800F01DF90346002B01D094
:10325000012397E000237B61FB681B685B697B614E
:10326000FB681B689B697B617B697A6A396AF868CD
:1032700000F0A8F90346002B0DD0FB681B6C042B53
:1032800007D1FB681B681A68FB681B6842F4007270
:103290001A60012376E0FB88012B05D13B89DAB265
:1032A000FB681B681A6121E03B891B0A9BB2DAB2FA
:1032B000FB681B681A617A6A396AF86800F082F95B
:1032C0000346002B0DD0FB681B6C042B07D1FB6859
:1032D0001B681A68FB681B6842F400721A600123BD
:1032E00050E03B89DAB2FB681B681A617A6A396A76
:1032F000F86800F067F90346002B0DD0FB681B6CE3
:10330000042B07D1FB681B681A68FB681B6842F432
:1033100000721A60012335E0FB681B681A68FB68BD
:103320001B6842F480721A607B6A00933B6A002239
:103330004FF00111F86800F02BF80346002B0DD078
:10334000FB681B681B6803F48073B3F5807F03D1AF
:10335000FB684FF400721A64032313E07B89DBB22D
:1033600043F00103DAB2FB681B681A617B6A3A6AB0
:103370000649F86800F086F80346002B01D00123C7
:1033800000E0002318461837BD4680BD020001004A
:1033900080B584B000AFF860B9603B601346FB7144
:1033A00048E03B68B3F1FF3F44D0FEF70BFF024615
:1033B000BB69D31A3A689A4202D33B68002B39D1D1
:1033C000BB681B0CDBB2012B0DD1FB681B685B6972
:1033D000DA43BB6813409BB2002B0CBF01230023D0
:1033E000DBB21A460CE0FB681B689B69DA43BB68DA
:1033F00013409BB2002B0CBF01230023DBB21A4603
:10340000FB799A4216D1FB6800221A63FB682022DE
:1034100083F83D20FB68002283F83E20FB681B6C8C
:1034200043F02002FB681A64FB68002283F83C200A
:10343000012323E0BB681B0CDBB2012B0DD1FB6821
:103440001B685B69DA43BB6813409BB2002B0CBF5F
:1034500001230023DBB21A460CE0FB681B689B6962
:10346000DA43BB6813409BB2002B0CBF012300233F
:10347000DBB21A46FB799A4293D0002318461037E4
:10348000BD4680BD80B584B000AFF860B9607A6099
:103490003B6071E0FB681B685B6903F48063B3F514
:1034A000806F23D1FB681B681A68FB681B6842F4B5
:1034B00000721A60FB681B686FF480625A61FB68D7
:1034C00000221A63FB68202283F83D20FB6800225B
:1034D00083F83E20FB681B6C43F00402FB681A640F
:1034E000FB68002283F83C20012367E07B68B3F18E
:1034F000FF3F41D0FEF766FE02463B68D31A7A686A
:103500009A4202D37B68002B36D1BB681B0CDBB21E
:10351000012B0CD1FB681B685B69DA43BB68134065
:103520009BB2002B14BF01230023DBB20BE0FB682E
:103530001B689B69DA43BB6813409BB2002B14BF26
:1035400001230023DBB2002B16D0FB6800221A6394
:10355000FB68202283F83D20FB68002283F83E2090
:10356000FB681B6C43F02002FB681A64FB680022B6
:1035700083F83C20012321E0BB681B0CDBB2012B4C
:103580000CD1FB681B685B69DA43BB6813409BB2D4
:10359000002B14BF01230023DBB20BE0FB681B6888
:1035A0009B69DA43BB6813409BB2002B14BF012315
:1035B0000023DBB2002B7FF46DAF002318461037D9
:1035C000BD4680BD80B584B000AFF860B9607A6058
:1035D00034E0F86800F0E3F80346002B01D0012343
:1035E00034E0BB68B3F1FF3F28D0FEF7EBFD0246A5
:1035F0007B68D31ABA689A4202D3BB68002B1DD1EC
:10360000FB681B685B6903F08003802B16D0FB68A6
:1036100000221A63FB68202283F83D20FB68002209
:1036200083F83E20FB681B6C43F02002FB681A64A1
:10363000FB68002283F83C20012307E0FB681B683D
:103640005B6903F08003802BC3D100231846103739
:10365000BD4680BD80B584B000AFF860B9607A60C7
:1036600034E0F86800F09BF80346002B01D00123FA
:1036700034E0BB68B3F1FF3F28D0FEF7A3FD02465C
:103680007B68D31ABA689A4202D3BB68002B1DD15B
:10369000FB681B685B6903F00403042B16D0FB680E
:1036A00000221A63FB68202283F83D20FB68002279
:1036B00083F83E20FB681B6C43F02002FB681A6411
:1036C000FB68002283F83C20012307E0FB681B68AD
:1036D0005B6903F00403042BC3D1002318461037A1
:1036E000BD4680BD80B584B000AFF860B9607A6037
:1036F00049E0FB681B685B6903F01003102B19D1CC
:10370000FB681B686FF010025A61FB6800221A63A5
:10371000FB68202283F83D20FB68002283F83E20CE
:10372000FB681A6CFB681A64FB68002283F83C2073
:10373000012330E0FEF746FD02467B68D31ABA68E3
:103740009A4202D3BB68002B1DD1FB681B685B69E2
:1037500003F04003402B16D0FB6800221A63FB687D
:10376000202283F83D20FB68002283F83E20FB687E
:103770001B6C43F02002FB681A64FB68002283F88C
:103780003C20012307E0FB681B685B6903F04003F2
:10379000402BAED1002318461037BD4680BD80B403
:1037A00083B000AF78607B681B685B6903F480635B
:1037B000B3F5806F1BD17B681B686FF480625A6120
:1037C0007B6800221A637B68202283F83D207B6897
:1037D000002283F83E207B681B6C43F004027B6868
:1037E0001A647B68002283F83C20012300E0002358
:1037F00018460C37BD465DF8047B704780B586B02F
:1038000002AF78607B68002B01D1012301E17B6866
:103810001B68BB607B6893F89534DBB2002B06D144
:103820007B68002283F89424786806F0BFFD7B68EB
:10383000032283F89524BB68B3F1A04F02D17B68C3
:1038400000229A717B681B68184603F074F97B6844
:1038500018687B681A7C8DF8002004330ECB03F0C7
:1038600053F80346002B05D07B68022283F8952489
:103870000123CEE07B681B680021184603F06CF939
:103880000346002B05D07B68022283F89524012390
:10389000BFE00023FB734AE0FA7B79681346DB0044
:1038A00013449B000B44153301221A70FA7B79688C
:1038B0001346DB0013449B000B441433FA7B1A704D
:1038C000FA7BFB7B98B279681346DB0013449B00BC
:1038D0000B442E3302461A80FA7B79681346DB00CC
:1038E00013449B000B44183300221A70FA7B79684A
:1038F0001346DB0013449B000B441C3300221A6068
:10390000FA7B79681346DB0013449B000B44203399
:1039100000221A60FA7B79681346DB0013449B008F
:103920000B44243300221A60FB7B0133FB737B685A
:103930001B79FA7B9A42AFD30023FB7344E0FA7BF6
:1039400079681346DB0013449B000B4403F25523B4
:1039500000221A70FA7B79681346DB0013449B003F
:103960000B4403F51573FA7B1A70FA7B79681346DA
:10397000DB0013449B000B4403F5167300221A70FE
:10398000FA7B79681346DB0013449B000B4403F574
:10399000177300221A60FA7B79681346DB00134420
:1039A0009B000B4403F5187300221A60FA7B7968B8
:1039B0001346DB0013449B000B4403F519730022EC
:1039C0001A60FB7B0133FB737B681B79FA7B9A429D
:1039D000B5D37B6818687B681A7C8DF800200433A7
:1039E0000ECB03F005F90346002B05D07B680222BD
:1039F00083F8952401230CE07B6800225A747B68CD
:103A0000012283F895247B681B68184604F04FF95F
:103A1000002318461037BD4680BD80B584B000AF86
:103A200078607B681B68FB607B6893F89434012B9B
:103A300001D1022322E07B68012283F89424FB68F1
:103A4000DB6803F04003002B09D07B685B7B012B14
:103A500005D1FB689B6B43F48032FB689A637B68FB
:103A60001B68184603F056F87B681B68184604F07C
:103A7000FDF87B68002283F8942400231846103751
:103A8000BD4680BD90B58DB000AF78607B681B6887
:103A90003B623B6AFB617B681B68184604F0BBF91C
:103AA0000346002B40F08C847B681B68184604F0AA
:103AB0001FF90346002B00F08284FB6903F50063C5
:103AC0009B681B0AC3F30D027B68C3F8D4247B6890
:103AD0001B68184604F00CF9034603F00203022B9E
:103AE00007D17B681B685A697B681B6802F0020279
:103AF0005A617B681B68184604F0FAF8034603F025
:103B00001003102B61D17B681B689A697B681B6866
:103B100022F010029A613B6A1B6ABB61BB6903F029
:103B20000F021346DB0013449B0003F514737A68FD
:103B3000134404337B61BB6903F4F013B3F5802FA6
:103B400024D1BA6947F6F0731340002B35D07B6956
:103B5000D968BB691B099BB2C3F30A039BB21A461F
:103B6000386A03F031FF7B69DA68BB691B09C3F36C
:103B70000A031A447B69DA607B695A69BB691B09CD
:103B8000C3F30A031A447B695A6116E0BB6903F464
:103B9000F013B3F5402F10D17B6803F29C43082249
:103BA0001946386A03F010FF7B695A69BB691B0923
:103BB000C3F30A031A447B695A617B681B689A69DC
:103BC0007B681B6842F010029A617B681B6818468C
:103BD00004F08EF8034603F40023B3F5002F40F001
:103BE000A78000237B627B681B68184604F093F86B
:103BF000B86299E0BB6A03F00103002B00F08E80ED
:103C00007B681B687A6AD2B21146184604F0B7F88E
:103C100038613B6903F00103002B0CD07B6A5A0129
:103C2000FB69134403F530631A4601239360796AF4
:103C3000786800F0A3FE3B6903F00803002B0CD06A
:103C40007B6A5A01FB69134403F530631A46082363
:103C50009360796A786800F079FF3B6903F010039C
:103C6000002B08D07B6A5A01FB69134403F53063CB
:103C70001A46102393603B6903F00203002B30D0F7
:103C80003B6A5B6903F08003802B09D1FB6903F574
:103C900000635B68FA6902F5006243F48063536075
:103CA0007A6A1346DB0013449B0003F514737A68A9
:103CB000134404337B617B69DB78012B08D17B697A
:103CC0000022DA707B6ADBB21946786806F074FC71
:103CD0007B6A5A01FB69134403F530631A460223D9
:103CE00093603B6903F02003002B08D07B6A5A01E4
:103CF000FB69134403F530631A46202393603B6944
:103D000003F40053002B09D07B6A5A01FB6913446A
:103D100003F530631A464FF4005393607B6A013316
:103D20007B62BB6A5B08BB62BB6A002B7FF462AF3D
:103D30007B681B68184603F0DBFF034603F480230F
:103D4000B3F5802F40F0DB807B681B68184603F0DA
:103D5000FCFFB86200237B62CDE0BB6A03F0010385
:103D6000002B00F0C2807B681B687A6AD2B21146D1
:103D7000184604F022F838613B6903F00103002B78
:103D800057D07B6A03F00F03012202FA03F3FB60B2
:103D9000FB6903F500635A6BFB68DB43F96901F5C6
:103DA000006113404B637B6A5A01FB69134403F5BE
:103DB00010631A46012393607B689B79012B32D1F3
:103DC00079687A6A1346DB0013449B000B44203366
:103DD000196878687A6A1346DB0013449B00034431
:103DE0001C331B68194478687A6A1346DB00134455
:103DF0009B000344203319607B6A002B13D1796840
:103E00007A6A1346DB0013449B000B4424331B687F
:103E1000002B08D17B6818687B6803F29C431A4624
:103E2000012104F029F87B6ADBB21946786806F0B4
:103E30003EFB3B6903F00803002B08D07B6A5A0164
:103E4000FB69134403F510631A46082393603B692A
:103E500003F01003002B08D07B6A5A01FB6913445E
:103E600003F510631A46102393603B6903F0400387
:103E7000002B08D07B6A5A01FB69134403F51063D9
:103E80001A46402393603B6903F00203002B23D0C2
:103E9000796A386A03F010F87A6A1346DB00134433
:103EA0009B0010337A68134404337B617B69DB78B1
:103EB000012B08D17B690022DA707B6ADBB21946DC
:103EC000786806F08BFB7B6A5A01FB69134403F5A3
:103ED00010631A46022393603B6903F08003002BB2
:103EE00003D0796A786800F0BDFC7B6A01337B629D
:103EF000BB6A5B08BB62BB6A002B7FF42EAF7B689A
:103F00001B68184603F0F4FE034603F00043B3F1C8
:103F1000004F22D1FB6903F500635B68FA6902F583
:103F2000006223F0010353607B6893F8CC34012BCB
:103F300008D17B68002283F8CC240021786800F047
:103F4000A3FE02E0786806F029FB7B681B685A69CB
:103F50007B681B6802F000425A617B681B68184648
:103F600003F0C6FE034603F40063B3F5006F12D1FD
:103F7000FB6903F500639B6803F00103012B02D189
:103F8000786806F0E5FA7B681B685A697B681B68ED
:103F900002F400625A617B681B68184603F0A8FEB1
:103FA000034603F48053B3F5805F40F0B780FB69AC
:103FB00003F500635B68FA6902F5006223F0010310
:103FC00053607B681B681021184602F075FF0023C0
:103FD000FB6246E0FB6A5A01FB69134403F5106378
:103FE0001A464FF67F339360FB6A5A01FB6913440C
:103FF00003F510631B68FA6A5101FA690A4402F575
:10400000106223F400131360FB6A5A01FB69134426
:1040100003F530631A464FF67F339360FB6A5A010B
:10402000FB69134403F530631B68FA6A5101FA69AE
:104030000A4402F5306223F400131360FB6A5A014C
:10404000FB69134403F530631B68FA6A5101FA698E
:104050000A4402F5306243F000631360FB6A0133E7
:10406000FB627B681B791A46FB6A9342B2D3FB69F9
:1040700003F50063DB69FA6902F5006243F001139E
:10408000D3617B68DB7B002B16D0FB6903F50063F3
:10409000D3F88430FA6902F5006243F00B03C2F8EA
:1040A0008430FB6903F500635B6CFA6902F500621A
:1040B00043F00B03536415E0FB6903F500635B6990
:1040C000FA6902F5006243F4005343F02B03536195
:1040D000FB6903F500631B69FA6902F5006243F0AE
:1040E0000B031361FB6903F500631B68FA6902F5B2
:1040F000006223F4FE6313607B6818687B6899791B
:104100007B6803F29C431A4603F0B6FE7B681B688B
:104110005A697B681B6802F480525A617B681B688D
:10412000184603F0E5FD034603F40053B3F5005FC2
:1041300023D17B681B68184603F07BFE7B681B68F5
:10414000184602F032FF03461A467B68DA717B6834
:104150001C6801F009FA01467B68DB791A462046A3
:1041600002F036FC786806F0CAF97B681B685A6969
:104170007B681B6802F400525A617B681B68184612
:1041800003F0B6FD034603F00803082B0AD1786854
:1041900006F0A7F97B681B685A697B681B6802F008
:1041A00008025A617B681B68184603F0A1FD0346AC
:1041B00003F08003802B23D13B6A9B6923F08002AC
:1041C0003B6A9A6101237B6214E079687A6A13463C
:1041D000DB0013449B000B4403F257231B78012B95
:1041E00005D17B6ADBB21946786800F00AFB7B6A6E
:1041F00001337B627B681B791A467B6A9342E4D366
:104200007B681B68184603F073FD034603F48013B4
:10421000B3F5801F3CD101237B622BE07B6A5A01FE
:10422000FB69134403F510631B68BB6179687A6A04
:104230001346DB0013449B000B4418331B78012BFF
:1042400015D1BB69002B12DA79687A6A1346DB0054
:1042500013449B000B44173301221A707B6ADBB2B4
:1042600063F07F03DBB21946786800F0CAFA7B6A14
:1042700001337B627B681B791A467B6A9342CDD3FC
:104280007B681B685A697B681B6802F480125A615C
:104290007B681B68184603F02BFD034603F40013EC
:1042A000B3F5001F56D101237B6245E07B6A5A01BA
:1042B000FB69134403F530631B68BB6179687A6A54
:1042C0001346DB0013449B000B4403F516731B7865
:1042D000012B2ED1BB69002B2BDABB691A0C7B6832
:1042E000D3F8D434534003F00103002B21D1796873
:1042F0007A6A1346DB0013449B000B4403F25723F6
:1043000001221A703B6A9B6943F080023B6A9A6102
:104310003B6A5B6903F08003002B0AD1FB6903F55C
:1043200000635B68FA6902F5006243F4007353604E
:1043300008E07B6A01337B627B681B791A467B6AE3
:104340009342B3D37B681B685A697B681B6802F48D
:1043500000125A617B681B68184603F0C9FC0346CB
:1043600003F08043B3F1804F0AD1786806F048F932
:104370007B681B685A697B681B6802F080425A613F
:104380007B681B68184603F0B3FC034603F0040384
:10439000042B15D17B681B685B68BB61BB6903F0AC
:1043A0000403002B02D0786806F038F97B681B689C
:1043B00059687B681B68BA690A435A6000E000BF0D
:1043C0003437BD4690BD80B582B000AF78600B46F3
:1043D000FB707B6893F89434012B01D1022312E027
:1043E0007B68012283F894247B68FA785A747B688E
:1043F0001B68FA781146184603F012FC7B6800220D
:1044000083F89424002318460837BD4680BD80B544
:1044100084B000AF7860084611461A460346FB7028
:104420000B463B801346BB700023FB7297F90330A9
:10443000002B0FDAFB7803F00F021346DB00134466
:104440009B0010337A6813440433FB60FB6801223D
:104450005A700FE0FB7803F00F021346DB001344A1
:104460009B0003F514737A6813440433FB60FB6804
:1044700000225A70FB7803F00F03DAB2FB681A705F
:104480003B88C3F30A02FB689A60FB68BA781A712A
:10449000FB685B78002B04D0FB681B781A46FB682E
:1044A0005A83BB78022B02D1FB6800225A717B68C9
:1044B00093F89434012B01D102230EE07B68012292
:1044C00083F894247B681B68F968184602F092FD13
:1044D0007B68002283F89424FB7A18461037BD4687
:1044E00080BD80B584B000AF78600B46FB7097F953
:1044F0000330002B0FDAFB7803F00F021346DB00CA
:1045000013449B0010337A6813440433FB60FB6848
:1045100001225A700FE0FB7803F00F021346DB0014
:1045200013449B0003F514737A6813440433FB604F
:10453000FB6800225A70FB7803F00F03DAB2FB68C5
:104540001A707B6893F89434012B01D102230EE09A
:104550007B68012283F894247B681B68F9681846FD
:1045600002F0D0FD7B68002283F8942400231846D3
:104570001037BD4680BD80B586B000AFF8607A6068
:104580003B600B46FB72FB7A03F00F021346DB0025
:1045900013449B0003F51473FA68134404337B61DE
:1045A0007B697A68DA607B693A681A617B69002204
:1045B0005A617B6900225A70FB7A03F00F03DAB26A
:1045C0007B691A70FB689B79012B02D17A687B6941
:1045D000DA61FB681868FB689B791A46796902F012
:1045E0006DFE002318461837BD4680BD80B483B0E9
:1045F00000AF78600B46FB70FB7803F00F02796820
:104600001346DB0013449B000B4403F51A731B682D
:1046100018460C37BD465DF8047B704780B586B000
:1046200000AFF8607A603B600B46FB72FB7A03F0E8
:104630000F021346DB0013449B001033FA68134447
:1046400004337B617B697A68DA607B693A681A6156
:104650007B6900225A617B6901225A70FB7A03F060
:104660000F03DAB27B691A70FB689B79012B02D1C8
:104670007A687B69DA61FB681868FB689B791A467F
:10468000796902F01BFE002318461837BD4680BD2D
:1046900080B584B000AF78600B46FB70FB7803F008
:1046A0000F037A681279934201D901234FE097F9F9
:1046B0000330002B0FDAFB7803F00F021346DB0008
:1046C00013449B0010337A6813440433FB60FB6887
:1046D00001225A700DE0FA781346DB0013449B0068
:1046E00003F514737A6813440433FB60FB680022FB
:1046F0005A70FB6801229A70FB7803F00F03DAB25C
:10470000FB681A707B6893F89434012B01D1022363
:104710001DE07B68012283F894247B681B68F9689C
:10472000184603F0A9F9FB7803F00F03002B09D119
:104730007B6818687B6899797B6803F29C431A460A
:1047400003F09AFB7B68002283F894240023184628
:104750001037BD4680BD80B584B000AF78600B4691
:10476000FB70FB7803F00F037A681279934201D94A
:10477000012342E097F90330002B0FDAFB7803F0B6
:104780000F021346DB0013449B0010337A68134476
:104790000433FB60FB6801225A700FE0FB7803F0E2
:1047A0000F021346DB0013449B0003F514737A6871
:1047B00013440433FB60FB6800225A70FB6800223C
:1047C0009A70FB7803F00F03DAB2FB681A707B680B
:1047D00093F89434012B01D102230EE07B6801226F
:1047E00083F894247B681B68F968184603F0B2F9D3
:1047F0007B68002283F89424002318461037BD46B6
:1048000080BD80B584B000AF78600B46FB7097F92F
:104810000330002B0CDAFB7803F00F021346DB00A9
:1048200013449B0010337A6813440433FB600CE09C
:10483000FB7803F00F021346DB0013449B0003F5E3
:1048400014737A6813440433FB607B681B68F9684F
:10485000184602F0D1FF0346FB72FB7A1846103768
:10486000BD4680BD80B58AB002AF786039607B6894
:104870001B687B617B693B613A681346DB0013442C
:104880009B0010337A6813440433FB60FB685A6959
:10489000FB681B699A4201D901236BE0FB681A6926
:1048A000FB685B69D31AFB61FB689B68FA699A42F3
:1048B00002D9FB689B68FB61FB6903339B08BB6102
:1048C0002AE0FB681A69FB685B69D31AFB61FB6825
:1048D0009B68FA699A4202D9FB689B68FB61FB6995
:1048E00003339B08BB61FB68D9683B68DAB2FB699C
:1048F00098B27B689B7900930346786903F026F8A9
:10490000FB68DA68FB691A44FB68DA60FB685A697D
:10491000FB691A44FB685A613B685A013B691344BE
:1049200003F510639B699BB2BA699A4209D8FB6888
:104930005A69FB681B699A4203D2FB681B69002B0A
:10494000BFD1FB681A69FB685B699A4211D83B6862
:1049500003F00F03012202FA03F3BB603B6903F586
:1049600000635A6BBB68DB43396901F50061134092
:104970004B63002318462037BD4680BD80B588B004
:1049800000AF786039607B681B68FB61FB69BB61C5
:10499000FB693C3304331B687B613B685A01BB698C
:1049A000134403F530639B683B617B689B79012B63
:1049B0007BD13B6903F00803002B15D07B69614A6A
:1049C000934240F2B9803B6903F40043002B00F0AE
:1049D000B3803B685A01BB69134403F530631A4640
:1049E0004FF400439360A7E03B6903F02003002BE2
:1049F00009D03B685A01BB69134403F530631A467A
:104A00002023936098E03B6903F02803002B40F0DB
:104A100093807B694B4A93420FD93B6903F400436F
:104A2000002B0AD03B685A01BB69134403F530637D
:104A30001A464FF4004393607EE03A681346DB0069
:104A400013449B0003F514737A6813440433FB602A
:104A5000FB681A6A3B685901BB690B4403F5306374
:104A60001B69C3F31203D21AFB685A613B68002B1F
:104A700014D1FB681B69002B09D17B6818687B681F
:104A800003F29C431A46012103F0F6F906E0FB68A5
:104A9000DA68FB685B691A44FB68DA603B68DBB282
:104AA0001946786805F0E8FC46E07B69264A93429F
:104AB00024D13B6903F40043002B0AD03B685A0120
:104AC000BB69134403F530631A464FF40043936007
:104AD00032E03B6903F02003002B08D03B685A0109
:104AE000BB69134403F530631A46202393603B6887
:104AF000DBB21946786805F0BFFC1DE03B68002B6F
:104B000014D179683A681346DB0013449B000B44C8
:104B100003F519731B68002B08D17B6818687B6844
:104B200003F29C431A46002103F0A6F93B68DBB26E
:104B30001946786805F0A0FC002318462037BD46CA
:104B400080BD00BF0A30544F0A31544F80B586B043
:104B500000AF786039607B681B687B617B693B6173
:104B60007B693C3304331B68FB603B685A013B693B
:104B7000134403F530639B68BB60FB68154A93429E
:104B80000ED9BB6803F40043002B09D03B685A01DF
:104B90003B69134403F530631A464FF400439360B6
:104BA000786805F057FCFB680A4A93420CD97B6889
:104BB0009B79012B08D17B6818687B6803F29C43C2
:104BC0001A46012103F058F9002318461837BD464C
:104BD00080BD00BF0A30544F80B485B000AF78600C
:104BE0000B46FB7013463B807B681B685B6ABB60AF
:104BF000FB78002B07D13B8819047B681B68BA68D7
:104C00000A439A6228E07B681B689B6A1B0CBA689F
:104C10001344BB600023FB730DE07B681A68FB7BC9
:104C200040339B0013445B681B0CBA681344BB60A1
:104C3000FB7B0133FB73FA7BFB78013B9A42ECD39D
:104C40003B8818047B681968FB78013BBA6802430B
:104C500040339B000B445A60002318461437BD466E
:104C60005DF8047B704780B483B000AF78600B467A
:104C70007B807B681B687A885A62002318460C3751
:104C8000BD465DF8047B704780B483B000AF7860A8
:104C90000B46FB7000BF0C37BD465DF8047B7047C8
:104CA00080B586B000AF78607B68002B01D101230E
:104CB00067E27B681B6803F00103002B75D0884B0B
:104CC0009B6803F00C03042B0CD0854B9B6803F00E
:104CD0000C03082B12D1824B5B6803F48003B3F5FD
:104CE000800F0BD17E4B1B6803F40033002B5BD08D
:104CF0007B685B68002B57D1012342E27B685B68CD
:104D0000B3F5803F06D1764B1B68754A43F4803378
:104D100013601DE07B685B68B3F5A02F0CD1704B6E
:104D20001B686F4A43F4802313606D4B1B686C4A09
:104D300043F4803313600BE0694B1B68684A23F42B
:104D400080331360664B1B68654A23F4802313602D
:104D50007B685B68002B13D0FDF734FA386108E0FC
:104D6000FDF730FA02463B69D31A642B01D90323BD
:104D700007E25B4B1B6803F40033002BF0D014E018
:104D8000FDF720FA386108E0FDF71CFA02463B699E
:104D9000D31A642B01D90323F3E1514B1B6803F4AD
:104DA0000033002BF0D100E000BF7B681B6803F0EC
:104DB0000203002B63D04A4B9B6803F00C03002BCB
:104DC0000BD0474B9B6803F00C03082B1CD1444BC2
:104DD0005B6803F48003002B16D1414B1B6803F082
:104DE0000203002B05D07B68DB68012B01D0012377
:104DF000C7E13B4B1B6823F0F8027B681B69DB00B3
:104E0000374913430B603AE07B68DB68002B20D006
:104E1000344B01221A60FDF7D5F9386108E0FDF73F
:104E2000D1F902463B69D31A022B01D90323A8E129
:104E30002B4B1B6803F00203002BF0D0284B1B68A0
:104E400023F0F8027B681B69DB00254913430B60E4
:104E500015E0244B00221A60FDF7B4F9386108E030
:104E6000FDF7B0F902463B69D31A022B01D903239F
:104E700087E11B4B1B6803F00203002BF0D17B681A
:104E80001B6803F00803002B36D07B685B69002B9E
:104E900016D0154B01221A60FDF794F9386108E02D
:104EA000FDF790F902463B69D31A022B01D903237F
:104EB00067E10B4B5B6F03F00203002BF0D01BE0AC
:104EC000094B00221A60FDF77DF938610EE0FDF70D
:104ED00079F902463B69D31A022B07D9032350E123
:104EE0000038024000004742800E4742884B5B6F0B
:104EF00003F00203002BEAD17B681B6803F0040374
:104F0000002B00F097800023FB75814B1B6C03F096
:104F10008053002B0FD10023BB607D4B1B6C7C4A60
:104F200043F0805313647A4B1B6C03F08053BB60D7
:104F3000BB680123FB75774B1B6803F48073002B60
:104F400018D1744B1B68734A43F480731360FDF7E8
:104F500039F9386108E0FDF735F902463B69D31AA3
:104F6000022B01D903230CE16A4B1B6803F4807305
:104F7000002BF0D07B689B68012B06D1644B1B6F24
:104F8000634A43F0010313671CE07B689B68052BB1
:104F90000CD15F4B1B6F5E4A43F0040313675C4BFD
:104FA0001B6F5B4A43F0010313670BE0584B1B6F09
:104FB000574A23F001031367554B1B6F544A23F0E4
:104FC000040313677B689B68002B15D0FDF7FAF884
:104FD00038610AE0FDF7F6F802463B69D31A41F260
:104FE0008832934201D90323CBE0494B1B6F03F076
:104FF0000203002BEED014E0FDF7E4F838610AE07C
:10500000FDF7E0F802463B69D31A41F28832934239
:1050100001D90323B5E03E4B1B6F03F00203002BC5
:10502000EED1FB7D012B05D1394B1B6C384A23F0A7
:10503000805313647B689B69002B00F0A180344B84
:105040009B6803F00C03082B5CD07B689B69022BE8
:1050500041D1314B00221A60FDF7B4F8386108E005
:10506000FDF7B0F802463B69D31A022B01D903239E
:1050700087E0274B1B6803F00073002BF0D17B689F
:10508000DA697B681B6A1A437B685B6A9B011A4377
:105090007B689B6A5B08013B1B041A437B68DB6AE5
:1050A0001B061B4913434B601B4B01221A60FDF783
:1050B00089F8386108E0FDF785F802463B69D31AA4
:1050C000022B01D903235CE0114B1B6803F0007332
:1050D000002BF0D054E0104B00221A60FDF772F85C
:1050E000386108E0FDF76EF802463B69D31A022BDF
:1050F00001D9032345E0064B1B6803F00073002B26
:10510000F0D13DE07B689B69012B07D1012338E09A
:105110000038024000700040600047421B4B5B6853
:10512000FB607B689B69012B28D0FB6803F480023D
:105130007B68DB699A4221D1FB6803F03F027B6800
:105140001B6A9A421AD1FA6847F6C07313407A680C
:10515000526A9201934211D1FB6803F440327B689A
:105160009B6A5B08013B1B049A4207D1FB6803F072
:1051700070627B68DB6A1B069A4201D0012300E063
:10518000002318461837BD4680BD00BF00380240D6
:1051900080B584B000AF786039607B68002B01D1A6
:1051A0000123CCE0684B1B6803F007033A689A427E
:1051B0000CD9654B3A68D2B21A70634B1B6803F086
:1051C00007033A689A4201D00123B8E07B681B6864
:1051D00003F00203002B20D07B681B6803F004035C
:1051E000002B05D0594B9B68584A43F4E053936019
:1051F0007B681B6803F00803002B05D0534B9B68AA
:10520000524A43F460439360504B9B6823F0F00292
:105210007B689B684D4913438B607B681B6803F078
:105220000103002B44D07B685B68012B07D1474BFF
:105230001B6803F40033002B19D101237FE07B6846
:105240005B68022B03D07B685B68032B07D13F4B65
:105250001B6803F00073002B09D101236FE03B4B67
:105260001B6803F00203002B01D1012367E0374BD9
:105270009B6823F003027B685B68344913438B60AF
:10528000FCF7A0FFF8600AE0FCF79CFF0246FB6811
:10529000D31A41F28832934201D903234FE02B4BBA
:1052A0009B6803F00C027B685B689B009A42EBD121
:1052B000254B1B6803F007033A689A420CD2224B35
:1052C0003A68D2B21A70204B1B6803F007033A68A1
:1052D0009A4201D0012332E07B681B6803F004038B
:1052E000002B08D0194B9B6823F4E0527B68DB68E5
:1052F000164913438B607B681B6803F00803002B7F
:1053000009D0124B9B6823F460427B681B69DB0069
:105310000E4913438B6000F021F802460B4B9B684B
:105320001B0903F00F030A49CB5C22FA03F3094A75
:105330001360094B1B681846FCF700FF0023184652
:105340001037BD4680BD00BF003C0240003802401F
:1053500028D40008180000201C0000202DE9B04FC0
:1053600094B000AF00237B640023FB6400233B6404
:105370000023BB64794B9B6803F00C03082B0DD012
:10538000082B00F2E180002B02D0042B03D0DBE0DD
:10539000734BBB64DBE0734BBB64D8E06F4B5B6863
:1053A00003F03F037B646D4B5B6803F48003002BC9
:1053B00063D06A4B5B689B090022BB63FA63BB6BDB
:1053C000C3F308033B6300237B63D7E90C45224604
:1053D0002B464FF000004FF00001590141EAD26125
:1053E000500102460B462146511A3961294663EBAA
:1053F00001037B614FF000024FF00003D7E904ABDB
:1054000059468B01514643EA916351468A01514600
:10541000B2EB0108594663EB01094FF000024FF06F
:1054200000034FEAC90343EA58734FEAC8029046A3
:105430009946234618EB0303BB602B4649EB030355
:10544000FB604FF000024FF00003D7E90245294608
:105450004B02214643EAD15321464A0210461946DF
:105460007B6C0022BB62FA62D7E90A23FBF79CFB44
:1054700002460B461346FB6458E0384B5B689B09B9
:10548000002218461146C0F308033B6200237B62EA
:10549000D7E9088942464B464FF000004FF0000123
:1054A000590141EAD261500102460B464146B2EB36
:1054B000010A494663EB010B4FF000024FF0000375
:1054C0004FEA8B1343EA9A634FEA8A12B2EB0A045B
:1054D00063EB0B054FF000024FF00003EB0043EAD3
:1054E0005473E20014461D464346E3183B604B46A6
:1054F00045EB03037B604FF000024FF00003D7E958
:10550000004529468B02214643EA915321468A02EF
:10551000104619467B6C0022BB61FA61D7E906236D
:10552000FBF742FB02460B461346FB640B4B5B68E2
:105530001B0C03F0030301335B003B64FA6C3B6C10
:10554000B2FBF3F3BB6402E0054BBB6400BFBB6C72
:1055500018465037BD46BDE8B08F00BF0038024046
:105560000024F40000127A0080B400AF034B1B68E3
:105570001846BD465DF8047B704700BF1800002048
:1055800080B500AFFFF7F0FF0246054B9B689B0A12
:1055900003F007030349CB5C22FA03F3184680BDEE
:1055A0000038024038D4000880B582B000AF78607F
:1055B0007B68002B01D1012341E07B6893F83D30EB
:1055C000DBB2002B06D17B68002283F83C20786890
:1055D000FCF73AFB7B68022283F83D207B681A685F
:1055E0007B6804331946104600F096FD7B68012263
:1055F00083F846207B68012283F83E207B680122E5
:1056000083F83F207B68012283F840207B680122D9
:1056100083F841207B68012283F842207B680122C5
:1056200083F843207B68012283F844207B680122B1
:1056300083F845207B68012283F83D20002318462B
:105640000837BD4680BD000080B485B000AF7860EB
:105650007B6893F83D30DBB2012B01D001234EE093
:105660007B68022283F83D207B681B68DA687B68D0
:105670001B6842F00102DA607B681B68234A934290
:1056800022D07B681B68B3F1804F1DD07B681B68FC
:105690001F4A934218D07B681B681E4A934213D05E
:1056A0007B681B681C4A93420ED07B681B681B4AB0
:1056B000934209D07B681B68194A934204D07B68E7
:1056C0001B68184A934211D17B681B689B6803F0E2
:1056D0000703FB60FB68062B10D07B681B681A6809
:1056E0007B681B6842F001021A6007E07B681B6858
:1056F0001A687B681B6842F001021A600023184692
:105700001437BD465DF8047B704700BF00000140C0
:105710000004004000080040000C0040000401406C
:10572000004001400018004080B582B000AF7860B2
:105730007B68002B01D1012341E07B6893F83D3069
:10574000DBB2002B06D17B68002283F83C2078680E
:1057500000F039F87B68022283F83D207B681A68E4
:105760007B6804331946104600F0D6FC7B680122A2
:1057700083F846207B68012283F83E207B68012263
:1057800083F83F207B68012283F840207B68012258
:1057900083F841207B68012283F842207B68012244
:1057A00083F843207B68012283F844207B68012230
:1057B00083F845207B68012283F83D2000231846AA
:1057C0000837BD4680BD80B483B000AF786000BFAD
:1057D0000C37BD465DF8047B7047000080B584B08F
:1057E00000AF786039603B68002B09D17B6893F883
:1057F0003E30DBB2012B14BF01230023DBB222E0D9
:105800003B68042B09D17B6893F83F30DBB2012B56
:1058100014BF01230023DBB215E03B68082B09D13C
:105820007B6893F84030DBB2012B14BF01230023C7
:10583000DBB208E07B6893F84130DBB2012B14BF88
:1058400001230023DBB2002B01D001237CE03B6865
:10585000002B04D17B68022283F83E2013E03B68D2
:10586000042B04D17B68022283F83F200BE03B68C5
:10587000082B04D17B68022283F8402003E07B6878
:10588000022283F841207B681B6801223968184690
:1058900000F032FF7B681B682D4A934204D07B687E
:1058A0001B682C4A934201D1012300E00023002B06
:1058B00007D07B681B685A6C7B681B6842F4004207
:1058C0005A647B681B68224A934222D07B681B681B
:1058D000B3F1804F1DD07B681B681F4A934218D0DC
:1058E0007B681B681D4A934213D07B681B681C4A67
:1058F00093420ED07B681B68164A934209D07B689E
:105900001B68184A934204D07B681B68164A93426E
:1059100011D17B681B689B6803F00703FB60FB6881
:10592000062B10D07B681B681A687B681B6842F0E6
:1059300001021A6007E07B681B681A687B681B68B5
:1059400042F001021A60002318461037BD4680BDA0
:105950000000014000040140000400400008004035
:10596000000C0040004001400018004080B586B0A7
:1059700000AF786039607B68002B01D1012397E08C
:105980007B6893F83D30DBB2002B06D17B680022A8
:1059900083F83C207868FCF7A9F97B68022283F839
:1059A0003D207B681B689B687A68126823F48043FB
:1059B00023F0070393607B681A687B6804331946F9
:1059C000104600F0A9FB7B681B689B687B617B68C5
:1059D0001B689B693B617B681B681B6AFB603B68BB
:1059E0001B687A6913437B613B6923F4407323F09E
:1059F00003033B613B689A683B689B691B02134346
:105A00003A6913433B613B6923F4406323F00C0381
:105A10003B613B6923F4704323F0F0033B613B6837
:105A2000DA683B68DB691B0213433A6913433B6145
:105A30003B681B691A013B681B6A1B0313433A69E5
:105A400013433B61FB6823F02203FB60FB6823F0F8
:105A50008803FB603B685A683B685B691B01134322
:105A6000FA681343FB607B681B687A699A607B68FD
:105A70001B683A699A617B681B68FA681A627B68DE
:105A8000012283F846207B68012283F83E207B6850
:105A9000012283F83F207B68012283F842207B6843
:105AA000012283F843207B68012283F83D200023F4
:105AB00018461837BD4680BD80B584B000AF786009
:105AC00039607B6893F83E30FB737B6893F83F3016
:105AD000BB737B6893F842307B737B6893F84330E9
